{"abi":[{"type":"constructor","inputs":[{"name":"_entryPoint","type":"address","internalType":"address"},{"name":"_owner","type":"address","internalType":"address"},{"name":"_manager","type":"address","internalType":"address"},{"name":"_signers","type":"address[]","internalType":"address[]"}],"stateMutability":"nonpayable"},{"type":"function","name":"DEFAULT_ADMIN_ROLE","inputs":[],"outputs":[{"name":"","type":"bytes32","internalType":"bytes32"}],"stateMutability":"view"},{"type":"function","name":"MANAGER_ROLE","inputs":[],"outputs":[{"name":"","type":"bytes32","internalType":"bytes32"}],"stateMutability":"view"},{"type":"function","name":"addSigner","inputs":[{"name":"_signer","type":"address","internalType":"address"}],"outputs":[],"stateMutability":"nonpayable"},{"type":"function","name":"addStake","inputs":[{"name":"unstakeDelaySec","type":"uint32","internalType":"uint32"}],"outputs":[],"stateMutability":"payable"},{"type":"function","name":"deposit","inputs":[],"outputs":[],"stateMutability":"payable"},{"type":"function","name":"entryPoint","inputs":[],"outputs":[{"name":"","type":"address","internalType":"contract IEntryPoint"}],"stateMutability":"view"},{"type":"function","name":"getCostInToken","inputs":[{"name":"_actualGasCost","type":"uint256","internalType":"uint256"},{"name":"_postOpGas","type":"uint256","internalType":"uint256"},{"name":"_actualUserOpFeePerGas","type":"uint256","internalType":"uint256"},{"name":"_exchangeRate","type":"uint256","internalType":"uint256"}],"outputs":[{"name":"","type":"uint256","internalType":"uint256"}],"stateMutability":"pure"},{"type":"function","name":"getDeposit","inputs":[],"outputs":[{"name":"","type":"uint256","internalType":"uint256"}],"stateMutability":"view"},{"type":"function","name":"getHash","inputs":[{"name":"_mode","type":"uint8","internalType":"uint8"},{"name":"_userOp","type":"tuple","internalType":"struct UserOperation","components":[{"name":"sender","type":"address","internalType":"address"},{"name":"nonce","type":"uint256","internalType":"uint256"},{"name":"initCode","type":"bytes","internalType":"bytes"},{"name":"callData","type":"bytes","internalType":"bytes"},{"name":"callGasLimit","type":"uint256","internalType":"uint256"},{"name":"verificationGasLimit","type":"uint256","internalType":"uint256"},{"name":"preVerificationGas","type":"uint256","internalType":"uint256"},{"name":"maxFeePerGas","type":"uint256","internalType":"uint256"},{"name":"maxPriorityFeePerGas","type":"uint256","internalType":"uint256"},{"name":"paymasterAndData","type":"bytes","internalType":"bytes"},{"name":"signature","type":"bytes","internalType":"bytes"}]}],"outputs":[{"name":"","type":"bytes32","internalType":"bytes32"}],"stateMutability":"view"},{"type":"function","name":"getRoleAdmin","inputs":[{"name":"role","type":"bytes32","internalType":"bytes32"}],"outputs":[{"name":"","type":"bytes32","internalType":"bytes32"}],"stateMutability":"view"},{"type":"function","name":"grantRole","inputs":[{"name":"role","type":"bytes32","internalType":"bytes32"},{"name":"account","type":"address","internalType":"address"}],"outputs":[],"stateMutability":"nonpayable"},{"type":"function","name":"hasRole","inputs":[{"name":"role","type":"bytes32","internalType":"bytes32"},{"name":"account","type":"address","internalType":"address"}],"outputs":[{"name":"","type":"bool","internalType":"bool"}],"stateMutability":"view"},{"type":"function","name":"isBundlerAllowed","inputs":[{"name":"bundler","type":"address","internalType":"address"}],"outputs":[{"name":"allowed","type":"bool","internalType":"bool"}],"stateMutability":"view"},{"type":"function","name":"postOp","inputs":[{"name":"mode","type":"uint8","internalType":"enum PostOpMode"},{"name":"context","type":"bytes","internalType":"bytes"},{"name":"actualGasCost","type":"uint256","internalType":"uint256"}],"outputs":[],"stateMutability":"nonpayable"},{"type":"function","name":"removeSigner","inputs":[{"name":"_signer","type":"address","internalType":"address"}],"outputs":[],"stateMutability":"nonpayable"},{"type":"function","name":"renounceRole","inputs":[{"name":"role","type":"bytes32","internalType":"bytes32"},{"name":"callerConfirmation","type":"address","internalType":"address"}],"outputs":[],"stateMutability":"nonpayable"},{"type":"function","name":"revokeRole","inputs":[{"name":"role","type":"bytes32","internalType":"bytes32"},{"name":"account","type":"address","internalType":"address"}],"outputs":[],"stateMutability":"nonpayable"},{"type":"function","name":"signers","inputs":[{"name":"account","type":"address","internalType":"address"}],"outputs":[{"name":"isValidSigner","type":"bool","internalType":"bool"}],"stateMutability":"view"},{"type":"function","name":"supportsInterface","inputs":[{"name":"interfaceId","type":"bytes4","internalType":"bytes4"}],"outputs":[{"name":"","type":"bool","internalType":"bool"}],"stateMutability":"view"},{"type":"function","name":"unlockStake","inputs":[],"outputs":[],"stateMutability":"nonpayable"},{"type":"function","name":"updateBundlerAllowlist","inputs":[{"name":"bundlers","type":"address[]","internalType":"address[]"},{"name":"allowed","type":"bool","internalType":"bool"}],"outputs":[],"stateMutability":"nonpayable"},{"type":"function","name":"validatePaymasterUserOp","inputs":[{"name":"userOp","type":"tuple","internalType":"struct UserOperation","components":[{"name":"sender","type":"address","internalType":"address"},{"name":"nonce","type":"uint256","internalType":"uint256"},{"name":"initCode","type":"bytes","internalType":"bytes"},{"name":"callData","type":"bytes","internalType":"bytes"},{"name":"callGasLimit","type":"uint256","internalType":"uint256"},{"name":"verificationGasLimit","type":"uint256","internalType":"uint256"},{"name":"preVerificationGas","type":"uint256","internalType":"uint256"},{"name":"maxFeePerGas","type":"uint256","internalType":"uint256"},{"name":"maxPriorityFeePerGas","type":"uint256","internalType":"uint256"},{"name":"paymasterAndData","type":"bytes","internalType":"bytes"},{"name":"signature","type":"bytes","internalType":"bytes"}]},{"name":"userOpHash","type":"bytes32","internalType":"bytes32"},{"name":"requiredPreFund","type":"uint256","internalType":"uint256"}],"outputs":[{"name":"context","type":"bytes","internalType":"bytes"},{"name":"validationData","type":"uint256","internalType":"uint256"}],"stateMutability":"nonpayable"},{"type":"function","name":"withdrawStake","inputs":[{"name":"withdrawAddress","type":"address","internalType":"address payable"}],"outputs":[],"stateMutability":"nonpayable"},{"type":"function","name":"withdrawTo","inputs":[{"name":"withdrawAddress","type":"address","internalType":"address payable"},{"name":"amount","type":"uint256","internalType":"uint256"}],"outputs":[],"stateMutability":"nonpayable"},{"type":"event","name":"BundlerAllowlistUpdated","inputs":[{"name":"bundler","type":"address","indexed":false,"internalType":"address"},{"name":"allowed","type":"bool","indexed":false,"internalType":"bool"}],"anonymous":false},{"type":"event","name":"RoleAdminChanged","inputs":[{"name":"role","type":"bytes32","indexed":true,"internalType":"bytes32"},{"name":"previousAdminRole","type":"bytes32","indexed":true,"internalType":"bytes32"},{"name":"newAdminRole","type":"bytes32","indexed":true,"internalType":"bytes32"}],"anonymous":false},{"type":"event","name":"RoleGranted","inputs":[{"name":"role","type":"bytes32","indexed":true,"internalType":"bytes32"},{"name":"account","type":"address","indexed":true,"internalType":"address"},{"name":"sender","type":"address","indexed":true,"internalType":"address"}],"anonymous":false},{"type":"event","name":"RoleRevoked","inputs":[{"name":"role","type":"bytes32","indexed":true,"internalType":"bytes32"},{"name":"account","type":"address","indexed":true,"internalType":"address"},{"name":"sender","type":"address","indexed":true,"internalType":"address"}],"anonymous":false},{"type":"event","name":"SignerAdded","inputs":[{"name":"signer","type":"address","indexed":false,"internalType":"address"}],"anonymous":false},{"type":"event","name":"SignerRemoved","inputs":[{"name":"signer","type":"address","indexed":false,"internalType":"address"}],"anonymous":false},{"type":"event","name":"UserOperationSponsored","inputs":[{"name":"userOpHash","type":"bytes32","indexed":true,"internalType":"bytes32"},{"name":"user","type":"address","indexed":true,"internalType":"address"},{"name":"paymasterMode","type":"uint8","indexed":false,"internalType":"uint8"},{"name":"token","type":"address","indexed":false,"internalType":"address"},{"name":"tokenAmountPaid","type":"uint256","indexed":false,"internalType":"uint256"},{"name":"exchangeRate","type":"uint256","indexed":false,"internalType":"uint256"}],"anonymous":false},{"type":"error","name":"AccessControlBadConfirmation","inputs":[]},{"type":"error","name":"AccessControlUnauthorizedAccount","inputs":[{"name":"account","type":"address","internalType":"address"},{"name":"neededRole","type":"bytes32","internalType":"bytes32"}]},{"type":"error","name":"AccessControlUnauthorizedAccount","inputs":[{"name":"account","type":"address","internalType":"address"},{"name":"neededRole","type":"bytes32","internalType":"bytes32"}]},{"type":"error","name":"BundlerNotAllowed","inputs":[{"name":"bundler","type":"address","internalType":"address"}]},{"type":"error","name":"ECDSAInvalidSignature","inputs":[]},{"type":"error","name":"ECDSAInvalidSignatureLength","inputs":[{"name":"length","type":"uint256","internalType":"uint256"}]},{"type":"error","name":"ECDSAInvalidSignatureS","inputs":[{"name":"s","type":"bytes32","internalType":"bytes32"}]},{"type":"error","name":"ExchangeRateInvalid","inputs":[]},{"type":"error","name":"PaymasterAndDataLengthInvalid","inputs":[]},{"type":"error","name":"PaymasterConfigLengthInvalid","inputs":[]},{"type":"error","name":"PaymasterModeInvalid","inputs":[]},{"type":"error","name":"PaymasterSignatureLengthInvalid","inputs":[]},{"type":"error","name":"PostOpTransferFromFailed","inputs":[{"name":"msg","type":"string","internalType":"string"}]},{"type":"error","name":"PreFundTooHigh","inputs":[]},{"type":"error","name":"RecipientInvalid","inputs":[]},{"type":"error","name":"TokenAddressInvalid","inputs":[]}],"bytecode":{"object":"0x6101606040525f60a052600160c081905260e052607561010052600c61012052601461014052348015610030575f5ffd5b50604051613ec5380380613ec583398101604081905261004f916102e6565b6001600160a01b038416608052838383838084848461006e5f83610107565b506100997f241ecf16d79d0f8dbfb92cbc07fe17840425976cf0667f022fe9877caa831b0882610107565b505f925050505b81518110156100f8576001805f8484815181106100bf576100bf61035f565b6020908102919091018101516001600160a01b031682528101919091526040015f20805460ff19169115159190911790556001016100a0565b50505050505050505050610373565b5f828152602081815260408083206001600160a01b038516845290915281205460ff166101a7575f838152602081815260408083206001600160a01b03861684529091529020805460ff1916600117905561015f3390565b6001600160a01b0316826001600160a01b0316847f2f8788117e7eff1d82e926ec794901d17c78024a50270940304540a733656f0d60405160405180910390a45060016101aa565b505f5b92915050565b5f6001600160a01b0382166101aa565b6101c9816101b0565b81146101d3575f5ffd5b50565b80516101aa816101c0565b634e487b7160e01b5f52604160045260245ffd5b601f19601f83011681018181106001600160401b038211171561021a5761021a6101e1565b6040525050565b5f61022b60405190565b905061023782826101f5565b919050565b5f6001600160401b03821115610254576102546101e1565b5060209081020190565b5f61027061026b8461023c565b610221565b8381529050602080820190840283018581111561028e5761028e5f5ffd5b835b818110156102b257806102a388826101d6565b84525060209283019201610290565b5050509392505050565b5f82601f8301126102ce576102ce5f5ffd5b81516102de84826020860161025e565b949350505050565b5f5f5f5f608085870312156102fc576102fc5f5ffd5b5f61030787876101d6565b9450506020610318878288016101d6565b9350506040610329878288016101d6565b92505060608501516001600160401b03811115610347576103475f5ffd5b610353878288016102bc565b91505092959194509250565b634e487b7160e01b5f52603260045260245ffd5b60805160a05160c05160e051610100516101205161014051613a756104505f395f8181610fe6015281816116d9015261179a01525f8181610f2e0152611f0801525f8181610f8801526120c001525f8181610f0d01528181610f670152610fc401525f81816115fd0152818161181e015281816118f30152611db401525f8181610ed90152818161184f015281816118b401528181611c240152611d4001525f81816103b4015281816106940152818161088f01528181610c4e01528181610d0a01528181610d9501528181610e4b01526113ca0152613a755ff3fe608060405260043610610183575f3560e01c8063a217fddf116100d1578063d0e30db01161007c578063eb12d61e11610057578063eb12d61e14610470578063ec87621c1461048f578063f465c77e146104c2575f5ffd5b8063d0e30db01461042a578063d547741f14610432578063dd16f84714610451575f5ffd5b8063bb9fe6bf116100ac578063bb9fe6bf146103e3578063c23a5cea146103f7578063c399ec8814610416575f5ffd5b8063a217fddf14610371578063a9a2340914610384578063b0d691fe146103a3575f5ffd5b806336568abe11610131578063736c0d5b1161010c578063736c0d5b146102d55780637dd345cb1461030357806391d1485414610322575f5ffd5b806336568abe146102695780634031c20e146102885780635525dcfb146102b6575f5ffd5b8063205c287811610161578063205c2878146101f0578063248a9ca31461020f5780632f2ff15d1461024a575f5ffd5b806301ffc9a7146101875780630396cb60146101bc5780630e316ab7146101d1575b5f5ffd5b348015610192575f5ffd5b506101a66101a1366004612bc8565b6104ef565b6040516101b39190612bf8565b60405180910390f35b6101cf6101ca366004612c1d565b610587565b005b3480156101dc575f5ffd5b506101cf6101eb366004612c6c565b6106fc565b3480156101fb575f5ffd5b506101cf61020a366004612c9b565b610848565b34801561021a575f5ffd5b5061023d610229366004612cd5565b5f9081526020819052604090206001015490565b6040516101b39190612cf9565b348015610255575f5ffd5b506101cf610264366004612d07565b6108f8565b348015610274575f5ffd5b506101cf610283366004612d07565b610922565b348015610293575f5ffd5b506101a66102a2366004612c6c565b60026020525f908152604090205460ff1681565b3480156102c1575f5ffd5b5061023d6102d0366004612d37565b610980565b3480156102e0575f5ffd5b506101a66102ef366004612c6c565b60016020525f908152604090205460ff1681565b34801561030e575f5ffd5b506101cf61031d366004612df8565b6109bc565b34801561032d575f5ffd5b506101a661033c366004612d07565b5f9182526020828152604080842073ffffffffffffffffffffffffffffffffffffffff93909316845291905290205460ff1690565b34801561037c575f5ffd5b5061023d5f81565b34801561038f575f5ffd5b506101cf61039e366004612ead565b610b71565b3480156103ae575f5ffd5b506103d67f000000000000000000000000000000000000000000000000000000000000000081565b6040516101b39190612f65565b3480156103ee575f5ffd5b506101cf610b85565b348015610402575f5ffd5b506101cf610411366004612c6c565b610cc3565b348015610421575f5ffd5b5061023d610d56565b6101cf610e0e565b34801561043d575f5ffd5b506101cf61044c366004612d07565b610eb2565b34801561045c575f5ffd5b5061023d61046b366004612fa1565b610ed6565b34801561047b575f5ffd5b506101cf61048a366004612c6c565b61108b565b34801561049a575f5ffd5b5061023d7f241ecf16d79d0f8dbfb92cbc07fe17840425976cf0667f022fe9877caa831b0881565b3480156104cd575f5ffd5b506104e16104dc366004612feb565b6111d1565b6040516101b39291906130a1565b5f7fffffffff0000000000000000000000000000000000000000000000000000000082167f7965db0b00000000000000000000000000000000000000000000000000000000148061058157507f01ffc9a7000000000000000000000000000000000000000000000000000000007fffffffff000000000000000000000000000000000000000000000000000000008316145b92915050565b335f9081527fad3228b676f7d3cd4284a5443f17f1962b36e491b30a40b2405849e597ba5fb5602052604090205460ff161580156105f35750335f9081527fe84508f2c7fa9c351146748b3025cb78b45df37d868e48c6a75102fecdeee645602052604090205460ff16155b1561065757337f241ecf16d79d0f8dbfb92cbc07fe17840425976cf0667f022fe9877caa831b086040517fe2517d3f00000000000000000000000000000000000000000000000000000000815260040161064e9291906130ca565b60405180910390fd5b6040517f0396cb6000000000000000000000000000000000000000000000000000000000815273ffffffffffffffffffffffffffffffffffffffff7f00000000000000000000000000000000000000000000000000000000000000001690630396cb609034906106cb9085906004016130f1565b5f604051808303818588803b1580156106e2575f5ffd5b505af11580156106f4573d5f5f3e3d5ffd5b505050505050565b335f9081527fad3228b676f7d3cd4284a5443f17f1962b36e491b30a40b2405849e597ba5fb5602052604090205460ff161580156107685750335f9081527fe84508f2c7fa9c351146748b3025cb78b45df37d868e48c6a75102fecdeee645602052604090205460ff16155b156107c357337f241ecf16d79d0f8dbfb92cbc07fe17840425976cf0667f022fe9877caa831b086040517fe2517d3f00000000000000000000000000000000000000000000000000000000815260040161064e9291906130ca565b73ffffffffffffffffffffffffffffffffffffffff81165f908152600160205260409081902080547fffffffffffffffffffffffffffffffffffffffffffffffffffffffffffffff00169055517f3525e22824a8a7df2c9a6029941c824cf95b6447f1e13d5128fd3826d35afe8b9061083d9083906130ff565b60405180910390a150565b5f610852816111f3565b6040517f205c287800000000000000000000000000000000000000000000000000000000815273ffffffffffffffffffffffffffffffffffffffff7f0000000000000000000000000000000000000000000000000000000000000000169063205c2878906108c690869086906004016130ca565b5f604051808303815f87803b1580156108dd575f5ffd5b505af11580156108ef573d5f5f3e3d5ffd5b50505050505050565b5f82815260208190526040902060010154610912816111f3565b61091c8383611200565b50505050565b73ffffffffffffffffffffffffffffffffffffffff81163314610971576040517f6697b23200000000000000000000000000000000000000000000000000000000815260040160405180910390fd5b61097b82826112f9565b505050565b5f670de0b6b3a764000082610995858761313a565b61099f9088613159565b6109a9919061313a565b6109b39190613199565b95945050505050565b335f9081527fad3228b676f7d3cd4284a5443f17f1962b36e491b30a40b2405849e597ba5fb5602052604090205460ff16158015610a285750335f9081527fe84508f2c7fa9c351146748b3025cb78b45df37d868e48c6a75102fecdeee645602052604090205460ff16155b15610a8357337f241ecf16d79d0f8dbfb92cbc07fe17840425976cf0667f022fe9877caa831b086040517fe2517d3f00000000000000000000000000000000000000000000000000000000815260040161064e9291906130ca565b5f5b8281101561091c578160025f868685818110610aa357610aa36131ac565b9050602002016020810190610ab89190612c6c565b73ffffffffffffffffffffffffffffffffffffffff16815260208101919091526040015f2080547fffffffffffffffffffffffffffffffffffffffffffffffffffffffffffffff00169115159190911790557f8ff8c5211f68ef53b4bdd15ab2ea6d87be8a3dbf58865bd8325c984057e4fcb4848483818110610b3d57610b3d6131ac565b9050602002016020810190610b529190612c6c565b83604051610b619291906131d9565b60405180910390a1600101610a85565b610b796113b2565b61091c84848484611423565b335f9081527fad3228b676f7d3cd4284a5443f17f1962b36e491b30a40b2405849e597ba5fb5602052604090205460ff16158015610bf15750335f9081527fe84508f2c7fa9c351146748b3025cb78b45df37d868e48c6a75102fecdeee645602052604090205460ff16155b15610c4c57337f241ecf16d79d0f8dbfb92cbc07fe17840425976cf0667f022fe9877caa831b086040517fe2517d3f00000000000000000000000000000000000000000000000000000000815260040161064e9291906130ca565b7f000000000000000000000000000000000000000000000000000000000000000073ffffffffffffffffffffffffffffffffffffffff1663bb9fe6bf6040518163ffffffff1660e01b81526004015f604051808303815f87803b158015610cb1575f5ffd5b505af115801561091c573d5f5f3e3d5ffd5b5f610ccd816111f3565b6040517fc23a5cea00000000000000000000000000000000000000000000000000000000815273ffffffffffffffffffffffffffffffffffffffff7f0000000000000000000000000000000000000000000000000000000000000000169063c23a5cea90610d3f9085906004016130ff565b5f604051808303815f87803b1580156106e2575f5ffd5b6040517f70a082310000000000000000000000000000000000000000000000000000000081525f9073ffffffffffffffffffffffffffffffffffffffff7f000000000000000000000000000000000000000000000000000000000000000016906370a0823190610dca9030906004016130ff565b602060405180830381865afa158015610de5573d5f5f3e3d5ffd5b505050506040513d601f19601f82011682018060405250810190610e0991906131ff565b905090565b6040517fb760faf900000000000000000000000000000000000000000000000000000000815273ffffffffffffffffffffffffffffffffffffffff7f0000000000000000000000000000000000000000000000000000000000000000169063b760faf9903490610e829030906004016130ff565b5f604051808303818588803b158015610e99575f5ffd5b505af1158015610eab573d5f5f3e3d5ffd5b5050505050565b5f82815260208190526040902060010154610ecc816111f3565b61091c83836112f9565b5f7f000000000000000000000000000000000000000000000000000000000000000060ff168360ff1603610f6157610f5a82610f527f00000000000000000000000000000000000000000000000000000000000000007f000000000000000000000000000000000000000000000000000000000000000061321d565b60ff1661164b565b9050610581565b5f610fac7f00000000000000000000000000000000000000000000000000000000000000007f000000000000000000000000000000000000000000000000000000000000000061321d565b90505f610fbd61012085018561323a565b61100a60ff7f0000000000000000000000000000000000000000000000000000000000000000167f0000000000000000000000000000000000000000000000000000000000000000613159565b818110611019576110196131ac565b919091013560f81c915050600181161515600282161515600483161580159061104a5761104760108661321d565b94505b821561105e5761105b60108661321d565b94505b81156110725761106f60148661321d565b94505b61107f878660ff1661164b565b95505050505050610581565b335f9081527fad3228b676f7d3cd4284a5443f17f1962b36e491b30a40b2405849e597ba5fb5602052604090205460ff161580156110f75750335f9081527fe84508f2c7fa9c351146748b3025cb78b45df37d868e48c6a75102fecdeee645602052604090205460ff16155b1561115257337f241ecf16d79d0f8dbfb92cbc07fe17840425976cf0667f022fe9877caa831b086040517fe2517d3f00000000000000000000000000000000000000000000000000000000815260040161064e9291906130ca565b73ffffffffffffffffffffffffffffffffffffffff81165f9081526001602081905260409182902080547fffffffffffffffffffffffffffffffffffffffffffffffffffffffffffffff00169091179055517f47d1c22a25bb3a5d4e481b9b1e6944c2eade3181a0a20b495ed61d35b5323f249061083d9083906130ff565b60605f6111dc6113b2565b6111e7858585611780565b91509150935093915050565b6111fd8133611941565b50565b5f8281526020818152604080832073ffffffffffffffffffffffffffffffffffffffff8516845290915281205460ff166112f2575f8381526020818152604080832073ffffffffffffffffffffffffffffffffffffffff86168452909152902080547fffffffffffffffffffffffffffffffffffffffffffffffffffffffffffffff001660011790556112903390565b73ffffffffffffffffffffffffffffffffffffffff168273ffffffffffffffffffffffffffffffffffffffff16847f2f8788117e7eff1d82e926ec794901d17c78024a50270940304540a733656f0d60405160405180910390a4506001610581565b505f610581565b5f8281526020818152604080832073ffffffffffffffffffffffffffffffffffffffff8516845290915281205460ff16156112f2575f8381526020818152604080832073ffffffffffffffffffffffffffffffffffffffff8616808552925280832080547fffffffffffffffffffffffffffffffffffffffffffffffffffffffffffffff0016905551339286917ff6391f5c32d9c69d2a47ea670b442974b53935d1edc7fd64eb21e047a839171b9190a4506001610581565b3373ffffffffffffffffffffffffffffffffffffffff7f00000000000000000000000000000000000000000000000000000000000000001614611421576040517f08c379a000000000000000000000000000000000000000000000000000000000815260040161064e906132e9565b565b5f61142e84846119af565b90505f6114438260c001518360e00151611aa2565b90505f8261018001516fffffffffffffffffffffffffffffffff166114848585608001516fffffffffffffffffffffffffffffffff16858760600151610980565b61148e9190613159565b90505f83610120015182116114b357818461012001516114ae91906132f9565b6114c3565b6101208401516114c390836132f9565b90505f611506856020015186610120015185116114e45786604001516114e7565b86515b87610120015186116114fa578751611500565b87604001515b85611ac4565b90508061153f576040517f1db0f4fb00000000000000000000000000000000000000000000000000000000815260040161064e9061333f565b5f670de0b6b3a7640000866060015187610100015161155e919061313a565b6115689190613199565b6101a087015190915073ffffffffffffffffffffffffffffffffffffffff161580159061159457508381115b156115bb57602086015186516101a08801516115bb9291906115b688866132f9565b611b12565b855f015173ffffffffffffffffffffffffffffffffffffffff168660a001517f7a270f29ae17e8e2304ff1245deb50c3b6206bca82928d904f3e284d35c5ffd27f00000000000000000000000000000000000000000000000000000000000000008960200151888b606001516040516116379493929190613358565b60405180910390a350505050505050505050565b5f8061165a6020850185612c6c565b6020850135608086013560a087013560c088013560e08901356101008a013561168660608c018c61323a565b6040516116949291906133aa565b60405180910390208b80604001906116ac919061323a565b6040516116ba9291906133aa565b6040519081900390206116d16101208e018e61323a565b5f906116fd8f7f0000000000000000000000000000000000000000000000000000000000000000613159565b9261170a939291906133b6565b6040516117189291906133aa565b6040519081900381206117369a9998979695949392916020016133e3565b6040516020818303038152906040528051906020012090508046604051602001611761929190613478565b6040516020818303038152906040528051906020012091505092915050565b60605f808036816117be6117986101208b018b61323a565b7f0000000000000000000000000000000000000000000000000000000000000000611b58565b9350935093509350821580156117e35750325f9081526002602052604090205460ff16155b1561181c57326040517f55d3ab4600000000000000000000000000000000000000000000000000000000815260040161064e91906130ff565b7f000000000000000000000000000000000000000000000000000000000000000060ff168460ff161415801561187857507f000000000000000000000000000000000000000000000000000000000000000060ff168460ff1614155b156118af576040517f654a4f2900000000000000000000000000000000000000000000000000000000815260040160405180910390fd5b60605f7f000000000000000000000000000000000000000000000000000000000000000060ff168660ff16036118f1576118eb8b85858d611c02565b90925090505b7f000000000000000000000000000000000000000000000000000000000000000060ff168660ff16036119315761192b8b85858d8d611d9b565b90925090505b909a909950975050505050505050565b5f8281526020818152604080832073ffffffffffffffffffffffffffffffffffffffff8516845290915290205460ff166119ab5780826040517fe2517d3f00000000000000000000000000000000000000000000000000000000815260040161064e9291906130ca565b5050565b611a8f604051806101c001604052805f73ffffffffffffffffffffffffffffffffffffffff1681526020015f73ffffffffffffffffffffffffffffffffffffffff1681526020015f73ffffffffffffffffffffffffffffffffffffffff1681526020015f81526020015f6fffffffffffffffffffffffffffffffff1681526020015f81526020015f81526020015f81526020015f81526020015f81526020015f81526020015f81526020015f6fffffffffffffffffffffffffffffffff1681526020015f73ffffffffffffffffffffffffffffffffffffffff1681525090565b611a9b82840184613681565b9392505050565b5f818303611ab1575081610581565b610f5a83611abf4885613159565b611eeb565b5f60405182606052836040528460601b602c526f23b872dd000000000000000000000000600c5260205f6064601c5f8a5af13d1560015f5114171691505f6060528060405250949350505050565b5f611b1f85858585611ac4565b905080610eab576040517f1db0f4fb00000000000000000000000000000000000000000000000000000000815260040161064e906136d3565b5f803681611b67856001613159565b861015611ba0576040517fcc32193e00000000000000000000000000000000000000000000000000000000815260040160405180910390fd5b5f878787818110611bb357611bb36131ac565b919091013560f881901c925060018084161515925060f99190911c9036905f908c908c90611be2908d90613159565b611bed9282906133b6565b939d949c509a50919850919650505050505050565b60605f5f5f365f611c138989611f00565b93509350935093505f611c7b611c497f00000000000000000000000000000000000000000000000000000000000000008d610ed6565b7f19457468657265756d205369676e6564204d6573736167653a0a3332000000005f908152601c91909152603c902090565b90505f611cbd8285858080601f0160208091040260200160405190810160405280939291908181526020018383808284375f9201919091525061200792505050565b73ffffffffffffffffffffffffffffffffffffffff81165f9081526001602052604081205491925060ff90911690611cf78215898961202f565b9050611d0660208f018f612c6c565b73ffffffffffffffffffffffffffffffffffffffff168b7f7a270f29ae17e8e2304ff1245deb50c3b6206bca82928d904f3e284d35c5ffd27f00000000000000000000000000000000000000000000000000000000000000005f5f5f604051611d7294939291906136f7565b60405180910390a360408051602081019091525f81529e909d509b505050505050505050505050565b60605f5f611da98787612065565b90505f611dd9611c497f00000000000000000000000000000000000000000000000000000000000000008b610ed6565b90505f611dea828460c00151612007565b73ffffffffffffffffffffffffffffffffffffffff81165f90815260016020908152604080832054918701519087015193945060ff90911692611e2f9184159161202f565b90505f611e3e8d8b888c6127c2565b905082611e535796509450611ee19350505050565b5f611e648a5f5f8a60a00151610980565b9050808761010001511115611ea5576040517f79183c8c00000000000000000000000000000000000000000000000000000000815260040160405180910390fd5b61010087015115611ed757611ed787608001518f5f016020810190611eca9190612c6c565b89516101008b0151612908565b5096509450505050505b9550959350505050565b5f818310611ef95781611a9b565b5090919050565b5f80368160ff7f000000000000000000000000000000000000000000000000000000000000000016851015611f61576040517ff96ce32900000000000000000000000000000000000000000000000000000000815260040160405180910390fd5b5f611f6f600682888a6133b6565b611f789161372c565b60d01c90505f611f8c600c6006898b6133b6565b611f959161372c565b60d01c9050365f611fa989600c818d6133b6565b909250905060408114801590611fc0575060418114155b15611ff7576040517ff95eeeac00000000000000000000000000000000000000000000000000000000815260040160405180910390fd5b9299919850965090945092505050565b5f5f5f5f6120158686612960565b92509250925061202582826129a9565b5090949350505050565b5f60d08265ffffffffffff16901b60a08465ffffffffffff16901b85612055575f612058565b60015b60ff161717949350505050565b60408051610160810182525f8082526020820181905291810182905260608082018390526080820183905260a0820183905260c082015260e081018290526101008101829052610120810182905261014081019190915260ff7f000000000000000000000000000000000000000000000000000000000000000016821015612119576040517ff96ce32900000000000000000000000000000000000000000000000000000000815260040160405180910390fd5b5f808484828161212b5761212b6131ac565b919091013560f81c915050600180821615159060028316151590600484161515906121569086613797565b9450876fffffffffffffffffffffffffffffffff861688612178886006613797565b6fffffffffffffffffffffffffffffffff1692612197939291906133b6565b6121a09161372c565b60d01c60208701526121b3600686613797565b9450876fffffffffffffffffffffffffffffffff8616886121d5886006613797565b6fffffffffffffffffffffffffffffffff16926121f4939291906133b6565b6121fd9161372c565b60d01c6040870152612210600686613797565b9450876fffffffffffffffffffffffffffffffff861688612232886014613797565b6fffffffffffffffffffffffffffffffff1692612251939291906133b6565b61225a916137c3565b60601c608087015261226d601486613797565b9450876fffffffffffffffffffffffffffffffff86168861228f886010613797565b6fffffffffffffffffffffffffffffffff16926122ae939291906133b6565b6122b791613821565b60801c60608701526122ca601086613797565b9450876fffffffffffffffffffffffffffffffff8616886122ec886020613797565b6fffffffffffffffffffffffffffffffff169261230b939291906133b6565b6123149161387f565b60a0870152612324602086613797565b9450876fffffffffffffffffffffffffffffffff861688612346886010613797565b6fffffffffffffffffffffffffffffffff1692612365939291906133b6565b61236e91613821565b60801c60e0870152612381601086613797565b9450876fffffffffffffffffffffffffffffffff8616886123a3886014613797565b6fffffffffffffffffffffffffffffffff16926123c2939291906133b6565b6123cb916137c3565b60601c86526123db601486613797565b5f6101008801529450801561249f576123f5856010613797565b6fffffffffffffffffffffffffffffffff16871015612440576040517ff96ce32900000000000000000000000000000000000000000000000000000000815260040160405180910390fd5b876fffffffffffffffffffffffffffffffff861688612460886010613797565b6fffffffffffffffffffffffffffffffff169261247f939291906133b6565b61248891613821565b60801c61010087015261249c601086613797565b94505b5f6101208701528215612561576124b7856010613797565b6fffffffffffffffffffffffffffffffff16871015612502576040517ff96ce32900000000000000000000000000000000000000000000000000000000815260040160405180910390fd5b876fffffffffffffffffffffffffffffffff861688612522886010613797565b6fffffffffffffffffffffffffffffffff1692612541939291906133b6565b61254a91613821565b60801c61012087015261255e601086613797565b94505b5f610140870152811561262357612579856014613797565b6fffffffffffffffffffffffffffffffff168710156125c4576040517ff96ce32900000000000000000000000000000000000000000000000000000000815260040160405180910390fd5b876fffffffffffffffffffffffffffffffff8616886125e4886014613797565b6fffffffffffffffffffffffffffffffff1692612603939291906133b6565b61260c916137c3565b60601c610140870152612620601486613797565b94505b612641876fffffffffffffffffffffffffffffffff8716818b6133b6565b8080601f0160208091040260200160405190810160405280939291908181526020018383808284375f9201919091525050505060c0870152608086015173ffffffffffffffffffffffffffffffffffffffff166126ca576040517f33c1dac900000000000000000000000000000000000000000000000000000000815260040160405180910390fd5b8560a001515f03612707576040517f5b33c69600000000000000000000000000000000000000000000000000000000815260040160405180910390fd5b81801561272d575061014086015173ffffffffffffffffffffffffffffffffffffffff16155b15612764576040517f497189f900000000000000000000000000000000000000000000000000000000815260040160405180910390fd5b8560c001515160401415801561278057508560c0015151604114155b156127b7576040517ff95eeeac00000000000000000000000000000000000000000000000000000000815260040160405180910390fd5b505050505092915050565b608082015160a08301516060848101518551610120870151610140880151604080516101c0810190915294969594806127fe60208e018e612c6c565b73ffffffffffffffffffffffffffffffffffffffff1681526020018773ffffffffffffffffffffffffffffffffffffffff1681526020018473ffffffffffffffffffffffffffffffffffffffff168152602001868152602001856fffffffffffffffffffffffffffffffff1681526020018b81526020018c60e0013581526020018c610100013581526020018981526020018a610100015181526020015f81526020015f8152602001836fffffffffffffffffffffffffffffffff1681526020018273ffffffffffffffffffffffffffffffffffffffff168152506040516020016128e991906139e8565b6040516020818303038152906040529650505050505050949350505050565b60405181606052826040528360601b602c526f23b872dd000000000000000000000000600c5260205f6064601c5f895af13d1560015f5114171661295357637939f4245f526004601cfd5b5f60605260405250505050565b5f5f5f8351604103612997576020840151604085015160608601515f1a61298988828585612aaa565b9550955095505050506129a2565b505081515f91506002905b9250925092565b5f8260038111156129bc576129bc6139f7565b036129c5575050565b60018260038111156129d9576129d96139f7565b03612a10576040517ff645eedf00000000000000000000000000000000000000000000000000000000815260040160405180910390fd5b6002826003811115612a2457612a246139f7565b03612a5d576040517ffce698f700000000000000000000000000000000000000000000000000000000815261064e908290600401612cf9565b6003826003811115612a7157612a716139f7565b036119ab57806040517fd78bce0c00000000000000000000000000000000000000000000000000000000815260040161064e9190612cf9565b5f80807f7fffffffffffffffffffffffffffffff5d576e7357a4501ddfe92f46681b20a0841115612ae357505f91506003905082612b85565b5f6001888888886040515f8152602001604052604051612b069493929190613a24565b6020604051602081039080840390855afa158015612b26573d5f5f3e3d5ffd5b50506040517fffffffffffffffffffffffffffffffffffffffffffffffffffffffffffffffe0015191505073ffffffffffffffffffffffffffffffffffffffff8116612b7c57505f925060019150829050612b85565b92505f91508190505b9450945094915050565b7fffffffff0000000000000000000000000000000000000000000000000000000081165b81146111fd575f5ffd5b803561058181612b8f565b5f60208284031215612bdb57612bdb5f5ffd5b5f612be68484612bbd565b949350505050565b8015155b82525050565b602081016105818284612bee565b63ffffffff8116612bb3565b803561058181612c06565b5f60208284031215612c3057612c305f5ffd5b5f612be68484612c12565b5f73ffffffffffffffffffffffffffffffffffffffff8216610581565b612bb381612c3b565b803561058181612c58565b5f60208284031215612c7f57612c7f5f5ffd5b5f612be68484612c61565b80612bb3565b803561058181612c8a565b5f5f60408385031215612caf57612caf5f5ffd5b5f612cba8585612c61565b9250506020612ccb85828601612c90565b9150509250929050565b5f60208284031215612ce857612ce85f5ffd5b5f612be68484612c90565b80612bf2565b602081016105818284612cf3565b5f5f60408385031215612d1b57612d1b5f5ffd5b5f612d268585612c90565b9250506020612ccb85828601612c61565b5f5f5f5f60808587031215612d4d57612d4d5f5ffd5b5f612d588787612c90565b9450506020612d6987828801612c90565b9350506040612d7a87828801612c90565b9250506060612d8b87828801612c90565b91505092959194509250565b5f5f83601f840112612daa57612daa5f5ffd5b50813567ffffffffffffffff811115612dc457612dc45f5ffd5b602083019150836020820283011115612dde57612dde5f5ffd5b9250929050565b801515612bb3565b803561058181612de5565b5f5f5f60408486031215612e0d57612e0d5f5ffd5b833567ffffffffffffffff811115612e2657612e265f5ffd5b612e3286828701612d97565b93509350506020612e4586828701612ded565b9150509250925092565b600381106111fd575f5ffd5b803561058181612e4f565b5f5f83601f840112612e7957612e795f5ffd5b50813567ffffffffffffffff811115612e9357612e935f5ffd5b602083019150836001820283011115612dde57612dde5f5ffd5b5f5f5f5f60608587031215612ec357612ec35f5ffd5b5f612ece8787612e5b565b945050602085013567ffffffffffffffff811115612eed57612eed5f5ffd5b612ef987828801612e66565b93509350506040612d8b87828801612c90565b5f61058173ffffffffffffffffffffffffffffffffffffffff8316612f2f565b90565b73ffffffffffffffffffffffffffffffffffffffff1690565b5f61058182612f0c565b5f61058182612f48565b612bf281612f52565b602081016105818284612f5c565b60ff8116612bb3565b803561058181612f73565b5f6101608284031215612f9b57612f9b5f5ffd5b50919050565b5f5f60408385031215612fb557612fb55f5ffd5b5f612fc08585612f7c565b925050602083013567ffffffffffffffff811115612fdf57612fdf5f5ffd5b612ccb85828601612f87565b5f5f5f60608486031215613000576130005f5ffd5b833567ffffffffffffffff811115613019576130195f5ffd5b61302586828701612f87565b935050602061303686828701612c90565b9250506040612e4586828701612c90565b8281835e505f910152565b5f61305b825190565b808452602084019350613072818560208601613047565b601f017fffffffffffffffffffffffffffffffffffffffffffffffffffffffffffffffe0169290920192915050565b604080825281016130b28185613052565b9050611a9b6020830184612cf3565b612bf281612c3b565b604081016130d882856130c1565b611a9b6020830184612cf3565b63ffffffff8116612bf2565b6020810161058182846130e5565b6020810161058182846130c1565b7f4e487b71000000000000000000000000000000000000000000000000000000005f52601160045260245ffd5b8181028082158382048514176131525761315261310d565b5092915050565b808201808211156105815761058161310d565b7f4e487b71000000000000000000000000000000000000000000000000000000005f52601260045260245ffd5b5f826131a7576131a761316c565b500490565b7f4e487b71000000000000000000000000000000000000000000000000000000005f52603260045260245ffd5b604081016131e782856130c1565b611a9b6020830184612bee565b805161058181612c8a565b5f60208284031215613212576132125f5ffd5b5f612be684846131f4565b60ff9182169190811690828201908111156105815761058161310d565b5f8083357fffffffffffffffffffffffffffffffffffffffffffffffffffffffffffffffe136859003018112613271576132715f5ffd5b80840192508235915067ffffffffffffffff821115613291576132915f5ffd5b6020830192506001820236038313156132ab576132ab5f5ffd5b509250929050565b601581525f602082017f53656e646572206e6f7420456e747279506f696e740000000000000000000000815291505b5060200190565b60208082528101610581816132b3565b818103818111156105815761058161310d565b601481525f602082017f5452414e534645525f46524f4d5f4641494c4544000000000000000000000000815291506132e2565b602080825281016105818161330c565b60ff8116612bf2565b60808101613366828761334f565b61337360208301866130c1565b6133806040830185612cf3565b6109b36060830184612cf3565b82818337505f910152565b5f6133a483858461338d565b50500190565b5f612be6828486613398565b5f5f858511156133c7576133c75f5ffd5b838611156133d6576133d65f5ffd5b5050820193919092039150565b61014081016133f2828d6130c1565b6133ff602083018c612cf3565b61340c604083018b612cf3565b613419606083018a612cf3565b6134266080830189612cf3565b61343360a0830188612cf3565b61344060c0830187612cf3565b61344d60e0830186612cf3565b61345b610100830185612cf3565b613469610120830184612cf3565b9b9a5050505050505050505050565b604081016130d88285612cf3565b7f4e487b71000000000000000000000000000000000000000000000000000000005f52604160045260245ffd5b7fffffffffffffffffffffffffffffffffffffffffffffffffffffffffffffffe0601f830116810181811067ffffffffffffffff821117156134f7576134f7613486565b6040525050565b5f61350860405190565b905061351482826134b3565b919050565b6fffffffffffffffffffffffffffffffff8116612bb3565b803561058181613519565b5f6101c08284031215613550576135505f5ffd5b61355b6101c06134fe565b90505f6135688484612c61565b825250602061357984848301612c61565b602083015250604061358d84828501612c61565b60408301525060606135a184828501612c90565b60608301525060806135b584828501613531565b60808301525060a06135c984828501612c90565b60a08301525060c06135dd84828501612c90565b60c08301525060e06135f184828501612c90565b60e08301525061010061360684828501612c90565b6101008301525061012061361c84828501612c90565b6101208301525061014061363284828501612c90565b6101408301525061016061364884828501612c90565b6101608301525061018061365e84828501613531565b610180830152506101a061367484828501612c61565b6101a08301525092915050565b5f6101c08284031215613695576136955f5ffd5b5f612be6848461353c565b601c81525f602082017f5452414e534645525f544f5f524543495049454e545f4641494c454400000000815291506132e2565b60208082528101610581816136a0565b5f610581612f2c8381565b612bf2816136e3565b60808101613705828761334f565b61371260208301866130c1565b61371f60408301856136ee565b6109b360608301846136ee565b80357fffffffffffff0000000000000000000000000000000000000000000000000000168282600682101561378f5761378a7fffffffffffff0000000000000000000000000000000000000000000000000000836006036008021b90565b831692505b505092915050565b6fffffffffffffffffffffffffffffffff9182169190811690828201908111156105815761058161310d565b80357fffffffffffffffffffffffffffffffffffffffff000000000000000000000000168282601482101561378f5761378a7fffffffffffffffffffffffffffffffffffffffff000000000000000000000000836014036008021b90565b80357fffffffffffffffffffffffffffffffff00000000000000000000000000000000168282601082101561378f5761378a7fffffffffffffffffffffffffffffffff00000000000000000000000000000000836010036008021b90565b80358282602082101561378f5761378a7fffffffffffffffffffffffffffffffffffffffffffffffffffffffffffffffff836020036008021b90565b6fffffffffffffffffffffffffffffffff8116612bf2565b80516101c08301906138e584826130c1565b5060208201516138f860208501826130c1565b50604082015161390b60408501826130c1565b50606082015161391e6060850182612cf3565b50608082015161393160808501826138bb565b5060a082015161394460a0850182612cf3565b5060c082015161395760c0850182612cf3565b5060e082015161396a60e0850182612cf3565b5061010082015161397f610100850182612cf3565b50610120820151613994610120850182612cf3565b506101408201516139a9610140850182612cf3565b506101608201516139be610160850182612cf3565b506101808201516139d36101808501826138bb565b506101a082015161091c6101a08501826130c1565b6101c0810161058182846138d3565b7f4e487b71000000000000000000000000000000000000000000000000000000005f52602160045260245ffd5b60808101613a328287612cf3565b613373602083018661334f56fea26469706673582212204663afe07e7ac59f82aeba891e559ebb2bb23880dde3507fda29bf2d5901f69164736f6c634300081c0033","linkReferences":{}},"methodIdentifiers":{"DEFAULT_ADMIN_ROLE()":"a217fddf","MANAGER_ROLE()":"ec87621c","addSigner(address)":"eb12d61e","addStake(uint32)":"0396cb60","deposit()":"d0e30db0","entryPoint()":"b0d691fe","getCostInToken(uint256,uint256,uint256,uint256)":"5525dcfb","getDeposit()":"c399ec88","getHash(uint8,(address,uint256,bytes,bytes,uint256,uint256,uint256,uint256,uint256,bytes,bytes))":"dd16f847","getRoleAdmin(bytes32)":"248a9ca3","grantRole(bytes32,address)":"2f2ff15d","hasRole(bytes32,address)":"91d14854","isBundlerAllowed(address)":"4031c20e","postOp(uint8,bytes,uint256)":"a9a23409","removeSigner(address)":"0e316ab7","renounceRole(bytes32,address)":"36568abe","revokeRole(bytes32,address)":"d547741f","signers(address)":"736c0d5b","supportsInterface(bytes4)":"01ffc9a7","unlockStake()":"bb9fe6bf","updateBundlerAllowlist(address[],bool)":"7dd345cb","validatePaymasterUserOp((address,uint256,bytes,bytes,uint256,uint256,uint256,uint256,uint256,bytes,bytes),bytes32,uint256)":"f465c77e","withdrawStake(address)":"c23a5cea","withdrawTo(address,uint256)":"205c2878"},"id":144}