{"abi":[{"type":"constructor","inputs":[{"name":"_entryPoint","type":"address","internalType":"address"},{"name":"_owner","type":"address","internalType":"address"},{"name":"_manager","type":"address","internalType":"address"},{"name":"_signers","type":"address[]","internalType":"address[]"}],"stateMutability":"nonpayable"},{"type":"function","name":"DEFAULT_ADMIN_ROLE","inputs":[],"outputs":[{"name":"","type":"bytes32","internalType":"bytes32"}],"stateMutability":"view"},{"type":"function","name":"MANAGER_ROLE","inputs":[],"outputs":[{"name":"","type":"bytes32","internalType":"bytes32"}],"stateMutability":"view"},{"type":"function","name":"_expectedPenaltyGasCost","inputs":[{"name":"_actualGasCost","type":"uint256","internalType":"uint256"},{"name":"_actualUserOpFeePerGas","type":"uint256","internalType":"uint256"},{"name":"postOpGas","type":"uint128","internalType":"uint128"},{"name":"preOpGasApproximation","type":"uint256","internalType":"uint256"},{"name":"executionGasLimit","type":"uint256","internalType":"uint256"}],"outputs":[{"name":"","type":"uint256","internalType":"uint256"}],"stateMutability":"pure"},{"type":"function","name":"addSigner","inputs":[{"name":"_signer","type":"address","internalType":"address"}],"outputs":[],"stateMutability":"nonpayable"},{"type":"function","name":"addStake","inputs":[{"name":"unstakeDelaySec","type":"uint32","internalType":"uint32"}],"outputs":[],"stateMutability":"payable"},{"type":"function","name":"deposit","inputs":[],"outputs":[],"stateMutability":"payable"},{"type":"function","name":"entryPoint","inputs":[],"outputs":[{"name":"","type":"address","internalType":"contract IEntryPoint"}],"stateMutability":"view"},{"type":"function","name":"getCostInToken","inputs":[{"name":"_actualGasCost","type":"uint256","internalType":"uint256"},{"name":"_postOpGas","type":"uint256","internalType":"uint256"},{"name":"_actualUserOpFeePerGas","type":"uint256","internalType":"uint256"},{"name":"_exchangeRate","type":"uint256","internalType":"uint256"}],"outputs":[{"name":"","type":"uint256","internalType":"uint256"}],"stateMutability":"pure"},{"type":"function","name":"getDeposit","inputs":[],"outputs":[{"name":"","type":"uint256","internalType":"uint256"}],"stateMutability":"view"},{"type":"function","name":"getHash","inputs":[{"name":"_mode","type":"uint8","internalType":"uint8"},{"name":"_userOp","type":"tuple","internalType":"struct PackedUserOperation","components":[{"name":"sender","type":"address","internalType":"address"},{"name":"nonce","type":"uint256","internalType":"uint256"},{"name":"initCode","type":"bytes","internalType":"bytes"},{"name":"callData","type":"bytes","internalType":"bytes"},{"name":"accountGasLimits","type":"bytes32","internalType":"bytes32"},{"name":"preVerificationGas","type":"uint256","internalType":"uint256"},{"name":"gasFees","type":"bytes32","internalType":"bytes32"},{"name":"paymasterAndData","type":"bytes","internalType":"bytes"},{"name":"signature","type":"bytes","internalType":"bytes"}]}],"outputs":[{"name":"","type":"bytes32","internalType":"bytes32"}],"stateMutability":"view"},{"type":"function","name":"getRoleAdmin","inputs":[{"name":"role","type":"bytes32","internalType":"bytes32"}],"outputs":[{"name":"","type":"bytes32","internalType":"bytes32"}],"stateMutability":"view"},{"type":"function","name":"grantRole","inputs":[{"name":"role","type":"bytes32","internalType":"bytes32"},{"name":"account","type":"address","internalType":"address"}],"outputs":[],"stateMutability":"nonpayable"},{"type":"function","name":"hasRole","inputs":[{"name":"role","type":"bytes32","internalType":"bytes32"},{"name":"account","type":"address","internalType":"address"}],"outputs":[{"name":"","type":"bool","internalType":"bool"}],"stateMutability":"view"},{"type":"function","name":"isBundlerAllowed","inputs":[{"name":"bundler","type":"address","internalType":"address"}],"outputs":[{"name":"allowed","type":"bool","internalType":"bool"}],"stateMutability":"view"},{"type":"function","name":"postOp","inputs":[{"name":"mode","type":"uint8","internalType":"enum PostOpMode"},{"name":"context","type":"bytes","internalType":"bytes"},{"name":"actualGasCost","type":"uint256","internalType":"uint256"},{"name":"actualUserOpFeePerGas","type":"uint256","internalType":"uint256"}],"outputs":[],"stateMutability":"nonpayable"},{"type":"function","name":"removeSigner","inputs":[{"name":"_signer","type":"address","internalType":"address"}],"outputs":[],"stateMutability":"nonpayable"},{"type":"function","name":"renounceRole","inputs":[{"name":"role","type":"bytes32","internalType":"bytes32"},{"name":"callerConfirmation","type":"address","internalType":"address"}],"outputs":[],"stateMutability":"nonpayable"},{"type":"function","name":"revokeRole","inputs":[{"name":"role","type":"bytes32","internalType":"bytes32"},{"name":"account","type":"address","internalType":"address"}],"outputs":[],"stateMutability":"nonpayable"},{"type":"function","name":"signers","inputs":[{"name":"account","type":"address","internalType":"address"}],"outputs":[{"name":"isValidSigner","type":"bool","internalType":"bool"}],"stateMutability":"view"},{"type":"function","name":"supportsInterface","inputs":[{"name":"interfaceId","type":"bytes4","internalType":"bytes4"}],"outputs":[{"name":"","type":"bool","internalType":"bool"}],"stateMutability":"view"},{"type":"function","name":"unlockStake","inputs":[],"outputs":[],"stateMutability":"nonpayable"},{"type":"function","name":"updateBundlerAllowlist","inputs":[{"name":"bundlers","type":"address[]","internalType":"address[]"},{"name":"allowed","type":"bool","internalType":"bool"}],"outputs":[],"stateMutability":"nonpayable"},{"type":"function","name":"validatePaymasterUserOp","inputs":[{"name":"userOp","type":"tuple","internalType":"struct PackedUserOperation","components":[{"name":"sender","type":"address","internalType":"address"},{"name":"nonce","type":"uint256","internalType":"uint256"},{"name":"initCode","type":"bytes","internalType":"bytes"},{"name":"callData","type":"bytes","internalType":"bytes"},{"name":"accountGasLimits","type":"bytes32","internalType":"bytes32"},{"name":"preVerificationGas","type":"uint256","internalType":"uint256"},{"name":"gasFees","type":"bytes32","internalType":"bytes32"},{"name":"paymasterAndData","type":"bytes","internalType":"bytes"},{"name":"signature","type":"bytes","internalType":"bytes"}]},{"name":"userOpHash","type":"bytes32","internalType":"bytes32"},{"name":"requiredPreFund","type":"uint256","internalType":"uint256"}],"outputs":[{"name":"context","type":"bytes","internalType":"bytes"},{"name":"validationData","type":"uint256","internalType":"uint256"}],"stateMutability":"nonpayable"},{"type":"function","name":"withdrawStake","inputs":[{"name":"withdrawAddress","type":"address","internalType":"address payable"}],"outputs":[],"stateMutability":"nonpayable"},{"type":"function","name":"withdrawTo","inputs":[{"name":"withdrawAddress","type":"address","internalType":"address payable"},{"name":"amount","type":"uint256","internalType":"uint256"}],"outputs":[],"stateMutability":"nonpayable"},{"type":"event","name":"BundlerAllowlistUpdated","inputs":[{"name":"bundler","type":"address","indexed":false,"internalType":"address"},{"name":"allowed","type":"bool","indexed":false,"internalType":"bool"}],"anonymous":false},{"type":"event","name":"RoleAdminChanged","inputs":[{"name":"role","type":"bytes32","indexed":true,"internalType":"bytes32"},{"name":"previousAdminRole","type":"bytes32","indexed":true,"internalType":"bytes32"},{"name":"newAdminRole","type":"bytes32","indexed":true,"internalType":"bytes32"}],"anonymous":false},{"type":"event","name":"RoleGranted","inputs":[{"name":"role","type":"bytes32","indexed":true,"internalType":"bytes32"},{"name":"account","type":"address","indexed":true,"internalType":"address"},{"name":"sender","type":"address","indexed":true,"internalType":"address"}],"anonymous":false},{"type":"event","name":"RoleRevoked","inputs":[{"name":"role","type":"bytes32","indexed":true,"internalType":"bytes32"},{"name":"account","type":"address","indexed":true,"internalType":"address"},{"name":"sender","type":"address","indexed":true,"internalType":"address"}],"anonymous":false},{"type":"event","name":"SignerAdded","inputs":[{"name":"signer","type":"address","indexed":false,"internalType":"address"}],"anonymous":false},{"type":"event","name":"SignerRemoved","inputs":[{"name":"signer","type":"address","indexed":false,"internalType":"address"}],"anonymous":false},{"type":"event","name":"UserOperationSponsored","inputs":[{"name":"userOpHash","type":"bytes32","indexed":true,"internalType":"bytes32"},{"name":"user","type":"address","indexed":true,"internalType":"address"},{"name":"paymasterMode","type":"uint8","indexed":false,"internalType":"uint8"},{"name":"token","type":"address","indexed":false,"internalType":"address"},{"name":"tokenAmountPaid","type":"uint256","indexed":false,"internalType":"uint256"},{"name":"exchangeRate","type":"uint256","indexed":false,"internalType":"uint256"}],"anonymous":false},{"type":"error","name":"AccessControlBadConfirmation","inputs":[]},{"type":"error","name":"AccessControlUnauthorizedAccount","inputs":[{"name":"account","type":"address","internalType":"address"},{"name":"neededRole","type":"bytes32","internalType":"bytes32"}]},{"type":"error","name":"AccessControlUnauthorizedAccount","inputs":[{"name":"account","type":"address","internalType":"address"},{"name":"neededRole","type":"bytes32","internalType":"bytes32"}]},{"type":"error","name":"BundlerNotAllowed","inputs":[{"name":"bundler","type":"address","internalType":"address"}]},{"type":"error","name":"ECDSAInvalidSignature","inputs":[]},{"type":"error","name":"ECDSAInvalidSignatureLength","inputs":[{"name":"length","type":"uint256","internalType":"uint256"}]},{"type":"error","name":"ECDSAInvalidSignatureS","inputs":[{"name":"s","type":"bytes32","internalType":"bytes32"}]},{"type":"error","name":"ExchangeRateInvalid","inputs":[]},{"type":"error","name":"PaymasterAndDataLengthInvalid","inputs":[]},{"type":"error","name":"PaymasterConfigLengthInvalid","inputs":[]},{"type":"error","name":"PaymasterModeInvalid","inputs":[]},{"type":"error","name":"PaymasterSignatureLengthInvalid","inputs":[]},{"type":"error","name":"PostOpTransferFromFailed","inputs":[{"name":"msg","type":"string","internalType":"string"}]},{"type":"error","name":"PreFundTooHigh","inputs":[]},{"type":"error","name":"RecipientInvalid","inputs":[]},{"type":"error","name":"TokenAddressInvalid","inputs":[]}],"bytecode":{"object":"0x6101806040525f60a052600160c081905260e052607561010052600c61012052603461014052601461016052348015610036575f5ffd5b50604051613eb3380380613eb3833981016040819052610055916102ec565b6001600160a01b03841660805283838383808484846100745f8361010d565b5061009f7f241ecf16d79d0f8dbfb92cbc07fe17840425976cf0667f022fe9877caa831b088261010d565b505f925050505b81518110156100fe576001805f8484815181106100c5576100c5610365565b6020908102919091018101516001600160a01b031682528101919091526040015f20805460ff19169115159190911790556001016100a6565b50505050505050505050610379565b5f828152602081815260408083206001600160a01b038516845290915281205460ff166101ad575f838152602081815260408083206001600160a01b03861684529091529020805460ff191660011790556101653390565b6001600160a01b0316826001600160a01b0316847f2f8788117e7eff1d82e926ec794901d17c78024a50270940304540a733656f0d60405160405180910390a45060016101b0565b505f5b92915050565b5f6001600160a01b0382166101b0565b6101cf816101b6565b81146101d9575f5ffd5b50565b80516101b0816101c6565b634e487b7160e01b5f52604160045260245ffd5b601f19601f83011681018181106001600160401b0382111715610220576102206101e7565b6040525050565b5f61023160405190565b905061023d82826101fb565b919050565b5f6001600160401b0382111561025a5761025a6101e7565b5060209081020190565b5f61027661027184610242565b610227565b83815290506020808201908402830185811115610294576102945f5ffd5b835b818110156102b857806102a988826101dc565b84525060209283019201610296565b5050509392505050565b5f82601f8301126102d4576102d45f5ffd5b81516102e4848260208601610264565b949350505050565b5f5f5f5f60808587031215610302576103025f5ffd5b5f61030d87876101dc565b945050602061031e878288016101dc565b935050604061032f878288016101dc565b92505060608501516001600160401b0381111561034d5761034d5f5ffd5b610359878288016102c2565b91505092959194509250565b634e487b7160e01b5f52603260045260245ffd5b60805160a05160c05160e05161010051610120516101405161016051613a5d6104565f395f50505f8181610b17015281816114ec015261170901525f8181610a3f0152611edd01525f8181610a99015261209501525f8181610a6001528181610aba0152610af501525f818161157001528181611645015261196401525f8181610a0b015281816115a10152818161160601528181611aed0152611bfe01525f818161040b015281816106be015281816108b901528181610e5601528181610f1201528181610f9d01528181611053015261147a0152613a5d5ff3fe60806040526004361061018e575f3560e01c80637c627b21116100dc578063c23a5cea11610087578063d547741f11610062578063d547741f14610489578063eb12d61e146104a8578063ec87621c146104c7578063feaf513e146104fa575f5ffd5b8063c23a5cea1461044e578063c399ec881461046d578063d0e30db014610481575f5ffd5b8063a217fddf116100b7578063a217fddf146103e7578063b0d691fe146103fa578063bb9fe6bf1461043a575f5ffd5b80637c627b211461035a5780637dd345cb1461037957806391d1485414610398575f5ffd5b806336568abe1161013c5780635525dcfb116101175780635525dcfb146102ee57806363b241aa1461030d578063736c0d5b1461032c575f5ffd5b806336568abe146102745780634031c20e1461029357806352b7512c146102c1575f5ffd5b8063205c28781161016c578063205c2878146101fb578063248a9ca31461021a5780632f2ff15d14610255575f5ffd5b806301ffc9a7146101925780630396cb60146101c75780630e316ab7146101dc575b5f5ffd5b34801561019d575f5ffd5b506101b16101ac366004612be7565b610519565b6040516101be9190612c17565b60405180910390f35b6101da6101d5366004612c3c565b6105b1565b005b3480156101e7575f5ffd5b506101da6101f6366004612c8b565b610726565b348015610206575f5ffd5b506101da610215366004612cba565b610872565b348015610225575f5ffd5b50610248610234366004612cf4565b5f9081526020819052604090206001015490565b6040516101be9190612d18565b348015610260575f5ffd5b506101da61026f366004612d26565b610922565b34801561027f575f5ffd5b506101da61028e366004612d26565b61094c565b34801561029e575f5ffd5b506101b16102ad366004612c8b565b60026020525f908152604090205460ff1681565b3480156102cc575f5ffd5b506102e06102db366004612d70565b6109aa565b6040516101be929190612e30565b3480156102f9575f5ffd5b50610248610308366004612e50565b6109cc565b348015610318575f5ffd5b50610248610327366004612ec4565b610a08565b348015610337575f5ffd5b506101b1610346366004612c8b565b60016020525f908152604090205460ff1681565b348015610365575f5ffd5b506101da610374366004612f73565b610bbc565b348015610384575f5ffd5b506101da61039336600461304b565b610bd8565b3480156103a3575f5ffd5b506101b16103b2366004612d26565b5f9182526020828152604080842073ffffffffffffffffffffffffffffffffffffffff93909316845291905290205460ff1690565b3480156103f2575f5ffd5b506102485f81565b348015610405575f5ffd5b5061042d7f000000000000000000000000000000000000000000000000000000000000000081565b6040516101be91906130f1565b348015610445575f5ffd5b506101da610d8d565b348015610459575f5ffd5b506101da610468366004612c8b565b610ecb565b348015610478575f5ffd5b50610248610f5e565b6101da611016565b348015610494575f5ffd5b506101da6104a3366004612d26565b6110b3565b3480156104b3575f5ffd5b506101da6104c2366004612c8b565b6110d7565b3480156104d2575f5ffd5b506102487f241ecf16d79d0f8dbfb92cbc07fe17840425976cf0667f022fe9877caa831b0881565b348015610505575f5ffd5b50610248610514366004613122565b61121d565b5f7fffffffff0000000000000000000000000000000000000000000000000000000082167f7965db0b0000000000000000000000000000000000000000000000000000000014806105ab57507f01ffc9a7000000000000000000000000000000000000000000000000000000007fffffffff000000000000000000000000000000000000000000000000000000008316145b92915050565b335f9081527fad3228b676f7d3cd4284a5443f17f1962b36e491b30a40b2405849e597ba5fb5602052604090205460ff1615801561061d5750335f9081527fe84508f2c7fa9c351146748b3025cb78b45df37d868e48c6a75102fecdeee645602052604090205460ff16155b1561068157337f241ecf16d79d0f8dbfb92cbc07fe17840425976cf0667f022fe9877caa831b086040517fe2517d3f000000000000000000000000000000000000000000000000000000008152600401610678929190613191565b60405180910390fd5b6040517f0396cb6000000000000000000000000000000000000000000000000000000000815273ffffffffffffffffffffffffffffffffffffffff7f00000000000000000000000000000000000000000000000000000000000000001690630396cb609034906106f59085906004016131b8565b5f604051808303818588803b15801561070c575f5ffd5b505af115801561071e573d5f5f3e3d5ffd5b505050505050565b335f9081527fad3228b676f7d3cd4284a5443f17f1962b36e491b30a40b2405849e597ba5fb5602052604090205460ff161580156107925750335f9081527fe84508f2c7fa9c351146748b3025cb78b45df37d868e48c6a75102fecdeee645602052604090205460ff16155b156107ed57337f241ecf16d79d0f8dbfb92cbc07fe17840425976cf0667f022fe9877caa831b086040517fe2517d3f000000000000000000000000000000000000000000000000000000008152600401610678929190613191565b73ffffffffffffffffffffffffffffffffffffffff81165f908152600160205260409081902080547fffffffffffffffffffffffffffffffffffffffffffffffffffffffffffffff00169055517f3525e22824a8a7df2c9a6029941c824cf95b6447f1e13d5128fd3826d35afe8b906108679083906131c6565b60405180910390a150565b5f61087c816112a3565b6040517f205c287800000000000000000000000000000000000000000000000000000000815273ffffffffffffffffffffffffffffffffffffffff7f0000000000000000000000000000000000000000000000000000000000000000169063205c2878906108f09086908690600401613191565b5f604051808303815f87803b158015610907575f5ffd5b505af1158015610919573d5f5f3e3d5ffd5b50505050505050565b5f8281526020819052604090206001015461093c816112a3565b61094683836112b0565b50505050565b73ffffffffffffffffffffffffffffffffffffffff8116331461099b576040517f6697b23200000000000000000000000000000000000000000000000000000000815260040160405180910390fd5b6109a582826113a9565b505050565b60605f6109b5611462565b6109c08585856114d3565b91509150935093915050565b5f670de0b6b3a7640000826109e18587613201565b6109eb9088613220565b6109f59190613201565b6109ff9190613260565b95945050505050565b5f7f000000000000000000000000000000000000000000000000000000000000000060ff168360ff1603610a9357610a8c82610a847f00000000000000000000000000000000000000000000000000000000000000007f0000000000000000000000000000000000000000000000000000000000000000613273565b60ff16611694565b90506105ab565b5f610ade7f00000000000000000000000000000000000000000000000000000000000000007f0000000000000000000000000000000000000000000000000000000000000000613273565b90505f610aee60e0850185613290565b610b3b60ff7f0000000000000000000000000000000000000000000000000000000000000000167f0000000000000000000000000000000000000000000000000000000000000000613220565b818110610b4a57610b4a613309565b919091013560f81c9150506001811615156002821615156004831615801590610b7b57610b78601086613273565b94505b8215610b8f57610b8c601086613273565b94505b8115610ba357610ba0601486613273565b94505b610bb0878660ff16611694565b98975050505050505050565b610bc4611462565b610bd185858585856117ae565b5050505050565b335f9081527fad3228b676f7d3cd4284a5443f17f1962b36e491b30a40b2405849e597ba5fb5602052604090205460ff16158015610c445750335f9081527fe84508f2c7fa9c351146748b3025cb78b45df37d868e48c6a75102fecdeee645602052604090205460ff16155b15610c9f57337f241ecf16d79d0f8dbfb92cbc07fe17840425976cf0667f022fe9877caa831b086040517fe2517d3f000000000000000000000000000000000000000000000000000000008152600401610678929190613191565b5f5b82811015610946578160025f868685818110610cbf57610cbf613309565b9050602002016020810190610cd49190612c8b565b73ffffffffffffffffffffffffffffffffffffffff16815260208101919091526040015f2080547fffffffffffffffffffffffffffffffffffffffffffffffffffffffffffffff00169115159190911790557f8ff8c5211f68ef53b4bdd15ab2ea6d87be8a3dbf58865bd8325c984057e4fcb4848483818110610d5957610d59613309565b9050602002016020810190610d6e9190612c8b565b83604051610d7d929190613336565b60405180910390a1600101610ca1565b335f9081527fad3228b676f7d3cd4284a5443f17f1962b36e491b30a40b2405849e597ba5fb5602052604090205460ff16158015610df95750335f9081527fe84508f2c7fa9c351146748b3025cb78b45df37d868e48c6a75102fecdeee645602052604090205460ff16155b15610e5457337f241ecf16d79d0f8dbfb92cbc07fe17840425976cf0667f022fe9877caa831b086040517fe2517d3f000000000000000000000000000000000000000000000000000000008152600401610678929190613191565b7f000000000000000000000000000000000000000000000000000000000000000073ffffffffffffffffffffffffffffffffffffffff1663bb9fe6bf6040518163ffffffff1660e01b81526004015f604051808303815f87803b158015610eb9575f5ffd5b505af1158015610946573d5f5f3e3d5ffd5b5f610ed5816112a3565b6040517fc23a5cea00000000000000000000000000000000000000000000000000000000815273ffffffffffffffffffffffffffffffffffffffff7f0000000000000000000000000000000000000000000000000000000000000000169063c23a5cea90610f479085906004016131c6565b5f604051808303815f87803b15801561070c575f5ffd5b6040517f70a082310000000000000000000000000000000000000000000000000000000081525f9073ffffffffffffffffffffffffffffffffffffffff7f000000000000000000000000000000000000000000000000000000000000000016906370a0823190610fd29030906004016131c6565b602060405180830381865afa158015610fed573d5f5f3e3d5ffd5b505050506040513d601f19601f82011682018060405250810190611011919061335c565b905090565b6040517fb760faf900000000000000000000000000000000000000000000000000000000815273ffffffffffffffffffffffffffffffffffffffff7f0000000000000000000000000000000000000000000000000000000000000000169063b760faf990349061108a9030906004016131c6565b5f604051808303818588803b1580156110a1575f5ffd5b505af1158015610bd1573d5f5f3e3d5ffd5b5f828152602081905260409020600101546110cd816112a3565b61094683836113a9565b335f9081527fad3228b676f7d3cd4284a5443f17f1962b36e491b30a40b2405849e597ba5fb5602052604090205460ff161580156111435750335f9081527fe84508f2c7fa9c351146748b3025cb78b45df37d868e48c6a75102fecdeee645602052604090205460ff16155b1561119e57337f241ecf16d79d0f8dbfb92cbc07fe17840425976cf0667f022fe9877caa831b086040517fe2517d3f000000000000000000000000000000000000000000000000000000008152600401610678929190613191565b73ffffffffffffffffffffffffffffffffffffffff81165f9081526001602081905260409182902080547fffffffffffffffffffffffffffffffffffffffffffffffffffffffffffffff00169091179055517f47d1c22a25bb3a5d4e481b9b1e6944c2eade3181a0a20b495ed61d35b5323f24906108679083906131c6565b5f80806fffffffffffffffffffffffffffffffff861661123d888a613260565b6112479190613220565b90508481111561125e5761125b858261337a565b91505b5f8285111561128c576064600a611275858861337a565b61127f9190613201565b6112899190613260565b90505b6112968882613201565b9998505050505050505050565b6112ad81336119b3565b50565b5f8281526020818152604080832073ffffffffffffffffffffffffffffffffffffffff8516845290915281205460ff166113a2575f8381526020818152604080832073ffffffffffffffffffffffffffffffffffffffff86168452909152902080547fffffffffffffffffffffffffffffffffffffffffffffffffffffffffffffff001660011790556113403390565b73ffffffffffffffffffffffffffffffffffffffff168273ffffffffffffffffffffffffffffffffffffffff16847f2f8788117e7eff1d82e926ec794901d17c78024a50270940304540a733656f0d60405160405180910390a45060016105ab565b505f6105ab565b5f8281526020818152604080832073ffffffffffffffffffffffffffffffffffffffff8516845290915281205460ff16156113a2575f8381526020818152604080832073ffffffffffffffffffffffffffffffffffffffff8616808552925280832080547fffffffffffffffffffffffffffffffffffffffffffffffffffffffffffffff0016905551339286917ff6391f5c32d9c69d2a47ea670b442974b53935d1edc7fd64eb21e047a839171b9190a45060016105ab565b3373ffffffffffffffffffffffffffffffffffffffff7f000000000000000000000000000000000000000000000000000000000000000016146114d1576040517f08c379a00000000000000000000000000000000000000000000000000000000081526004016106789061338d565b565b60605f808036816115106114ea60e08b018b613290565b7f0000000000000000000000000000000000000000000000000000000000000000611a21565b9350935093509350821580156115355750325f9081526002602052604090205460ff16155b1561156e57326040517f55d3ab4600000000000000000000000000000000000000000000000000000000815260040161067891906131c6565b7f000000000000000000000000000000000000000000000000000000000000000060ff168460ff16141580156115ca57507f000000000000000000000000000000000000000000000000000000000000000060ff168460ff1614155b15611601576040517f654a4f2900000000000000000000000000000000000000000000000000000000815260040160405180910390fd5b60605f7f000000000000000000000000000000000000000000000000000000000000000060ff168660ff16036116435761163d8b85858d611acb565b90925090505b7f000000000000000000000000000000000000000000000000000000000000000060ff168660ff16036116845761167e868c86868e8e611c59565b90925090505b909a909950975050505050505050565b5f8083356020850135608086013560a087013560c08801356116b960408a018a613290565b6040516116c79291906133e5565b6040519081900390206116dd60608b018b613290565b6040516116eb9291906133e5565b60405190819003902061170160e08c018c613290565b5f9061172d8d7f0000000000000000000000000000000000000000000000000000000000000000613220565b9261173a939291906133f1565b6040516117489291906133e5565b604051908190038120611764989796959493929160200161341e565b604051602081830303815290604052805190602001209050804660405160200161178f929190613488565b6040516020818303038152906040528051906020012091505092915050565b5f6117b98585611d8a565b90505f6117d78484846080015185610160015186610140015161121d565b90505f6117e48286613220565b90505f8361018001516fffffffffffffffffffffffffffffffff166118258386608001516fffffffffffffffffffffffffffffffff168888606001516109cc565b61182f9190613220565b90505f8461012001518211611854578185610120015161184f919061337a565b611864565b610120850151611864908361337a565b90506118a685602001518661012001518411611884578660400151611887565b86515b876101200151851161189a5787516118a0565b87604001515b84611e7d565b5f670de0b6b3a764000086606001518761010001516118c59190613201565b6118cf9190613260565b6101a087015190915073ffffffffffffffffffffffffffffffffffffffff16158015906118fb57508281115b1561192257602086015186516101a088015161192292919061191d878661337a565b611e7d565b855f015173ffffffffffffffffffffffffffffffffffffffff168660a001517f7a270f29ae17e8e2304ff1245deb50c3b6206bca82928d904f3e284d35c5ffd27f00000000000000000000000000000000000000000000000000000000000000008960200151878b6060015160405161199e949392919061349f565b60405180910390a35050505050505050505050565b5f8281526020818152604080832073ffffffffffffffffffffffffffffffffffffffff8516845290915290205460ff16611a1d5780826040517fe2517d3f000000000000000000000000000000000000000000000000000000008152600401610678929190613191565b5050565b5f803681611a30856001613220565b861015611a69576040517fcc32193e00000000000000000000000000000000000000000000000000000000815260040160405180910390fd5b5f878787818110611a7c57611a7c613309565b919091013560f881901c925060018084161515925060f99190911c9036905f908c908c90611aab908d90613220565b611ab69282906133f1565b939d949c509a50919850919650505050505050565b60605f5f5f365f611adc8989611ed5565b93509350935093505f611b44611b127f00000000000000000000000000000000000000000000000000000000000000008d610a08565b7f19457468657265756d205369676e6564204d6573736167653a0a3332000000005f908152601c91909152603c902090565b90505f611b868285858080601f0160208091040260200160405190810160405280939291908181526020018383808284375f92019190915250611fdc92505050565b73ffffffffffffffffffffffffffffffffffffffff81165f9081526001602052604081205491925060ff90911690611bc082158989612004565b90508d3573ffffffffffffffffffffffffffffffffffffffff168b7f7a270f29ae17e8e2304ff1245deb50c3b6206bca82928d904f3e284d35c5ffd27f00000000000000000000000000000000000000000000000000000000000000005f5f5f604051611c3094939291906134e8565b60405180910390a360408051602081019091525f81529e909d509b505050505050505050505050565b60605f5f611c67878761203a565b90505f611c77611b128b8b610a08565b90505f611c88828460c00151611fdc565b73ffffffffffffffffffffffffffffffffffffffff81165f90815260016020908152604080832054918701519087015193945060ff90911692611ccd91841591612004565b90505f611cdc8d8b888c612797565b905082611cf15796509450611d7f9350505050565b5f611d028a5f5f8a60a001516109cc565b9050808761010001511115611d43576040517f79183c8c00000000000000000000000000000000000000000000000000000000815260040160405180910390fd5b61010087015115611d7557611d7587608001518f5f016020810190611d689190612c8b565b89516101008b0151611e7d565b5096509450505050505b965096945050505050565b611e6a604051806101c001604052805f73ffffffffffffffffffffffffffffffffffffffff1681526020015f73ffffffffffffffffffffffffffffffffffffffff1681526020015f73ffffffffffffffffffffffffffffffffffffffff1681526020015f81526020015f6fffffffffffffffffffffffffffffffff1681526020015f81526020015f81526020015f81526020015f81526020015f81526020015f81526020015f81526020015f6fffffffffffffffffffffffffffffffff1681526020015f73ffffffffffffffffffffffffffffffffffffffff1681525090565b611e76828401846136f5565b9392505050565b60405181606052826040528360601b602c526f23b872dd000000000000000000000000600c5260205f6064601c5f895af13d1560015f51141716611ec857637939f4245f526004601cfd5b5f60605260405250505050565b5f80368160ff7f000000000000000000000000000000000000000000000000000000000000000016851015611f36576040517ff96ce32900000000000000000000000000000000000000000000000000000000815260040160405180910390fd5b5f611f44600682888a6133f1565b611f4d91613714565b60d01c90505f611f61600c6006898b6133f1565b611f6a91613714565b60d01c9050365f611f7e89600c818d6133f1565b909250905060408114801590611f95575060418114155b15611fcc576040517ff95eeeac00000000000000000000000000000000000000000000000000000000815260040160405180910390fd5b9299919850965090945092505050565b5f5f5f5f611fea8686612924565b925092509250611ffa828261296d565b5090949350505050565b5f60d08265ffffffffffff16901b60a08465ffffffffffff16901b8561202a575f61202d565b60015b60ff161717949350505050565b60408051610160810182525f8082526020820181905291810182905260608082018390526080820183905260a0820183905260c082015260e081018290526101008101829052610120810182905261014081019190915260ff7f0000000000000000000000000000000000000000000000000000000000000000168210156120ee576040517ff96ce32900000000000000000000000000000000000000000000000000000000815260040160405180910390fd5b5f808484828161210057612100613309565b919091013560f81c9150506001808216151590600283161515906004841615159061212b908661377f565b9450876fffffffffffffffffffffffffffffffff86168861214d88600661377f565b6fffffffffffffffffffffffffffffffff169261216c939291906133f1565b61217591613714565b60d01c602087015261218860068661377f565b9450876fffffffffffffffffffffffffffffffff8616886121aa88600661377f565b6fffffffffffffffffffffffffffffffff16926121c9939291906133f1565b6121d291613714565b60d01c60408701526121e560068661377f565b9450876fffffffffffffffffffffffffffffffff86168861220788601461377f565b6fffffffffffffffffffffffffffffffff1692612226939291906133f1565b61222f916137ab565b60601c608087015261224260148661377f565b9450876fffffffffffffffffffffffffffffffff86168861226488601061377f565b6fffffffffffffffffffffffffffffffff1692612283939291906133f1565b61228c91613809565b60801c606087015261229f60108661377f565b9450876fffffffffffffffffffffffffffffffff8616886122c188602061377f565b6fffffffffffffffffffffffffffffffff16926122e0939291906133f1565b6122e991613867565b60a08701526122f960208661377f565b9450876fffffffffffffffffffffffffffffffff86168861231b88601061377f565b6fffffffffffffffffffffffffffffffff169261233a939291906133f1565b61234391613809565b60801c60e087015261235660108661377f565b9450876fffffffffffffffffffffffffffffffff86168861237888601461377f565b6fffffffffffffffffffffffffffffffff1692612397939291906133f1565b6123a0916137ab565b60601c86526123b060148661377f565b5f61010088015294508015612474576123ca85601061377f565b6fffffffffffffffffffffffffffffffff16871015612415576040517ff96ce32900000000000000000000000000000000000000000000000000000000815260040160405180910390fd5b876fffffffffffffffffffffffffffffffff86168861243588601061377f565b6fffffffffffffffffffffffffffffffff1692612454939291906133f1565b61245d91613809565b60801c61010087015261247160108661377f565b94505b5f61012087015282156125365761248c85601061377f565b6fffffffffffffffffffffffffffffffff168710156124d7576040517ff96ce32900000000000000000000000000000000000000000000000000000000815260040160405180910390fd5b876fffffffffffffffffffffffffffffffff8616886124f788601061377f565b6fffffffffffffffffffffffffffffffff1692612516939291906133f1565b61251f91613809565b60801c61012087015261253360108661377f565b94505b5f61014087015281156125f85761254e85601461377f565b6fffffffffffffffffffffffffffffffff16871015612599576040517ff96ce32900000000000000000000000000000000000000000000000000000000815260040160405180910390fd5b876fffffffffffffffffffffffffffffffff8616886125b988601461377f565b6fffffffffffffffffffffffffffffffff16926125d8939291906133f1565b6125e1916137ab565b60601c6101408701526125f560148661377f565b94505b612616876fffffffffffffffffffffffffffffffff8716818b6133f1565b8080601f0160208091040260200160405190810160405280939291908181526020018383808284375f9201919091525050505060c0870152608086015173ffffffffffffffffffffffffffffffffffffffff1661269f576040517f33c1dac900000000000000000000000000000000000000000000000000000000815260040160405180910390fd5b8560a001515f036126dc576040517f5b33c69600000000000000000000000000000000000000000000000000000000815260040160405180910390fd5b818015612702575061014086015173ffffffffffffffffffffffffffffffffffffffff16155b15612739576040517f497189f900000000000000000000000000000000000000000000000000000000815260040160405180910390fd5b8560c001515160401415801561275557508560c0015151604114155b1561278c576040517ff95eeeac00000000000000000000000000000000000000000000000000000000815260040160405180910390fd5b505050505092915050565b60605f6127a386612a6e565b6127ac87612a9d565b6127b69190613220565b90505f8460e001516fffffffffffffffffffffffffffffffff166127d988612aba565b6127e79060a08a0135613220565b6127f19190613220565b604080516101c081019091529091508061280e60208a018a612c8b565b73ffffffffffffffffffffffffffffffffffffffff168152602001866080015173ffffffffffffffffffffffffffffffffffffffff168152602001865f015173ffffffffffffffffffffffffffffffffffffffff1681526020018660a00151815260200186606001516fffffffffffffffffffffffffffffffff1681526020018781526020015f81526020015f815260200185815260200186610100015181526020018381526020018281526020018661012001516fffffffffffffffffffffffffffffffff16815260200186610140015173ffffffffffffffffffffffffffffffffffffffff1681525060405160200161290991906139d0565b60405160208183030381529060405292505050949350505050565b5f5f5f835160410361295b576020840151604085015160608601515f1a61294d88828585612ac9565b955095509550505050612966565b505081515f91506002905b9250925092565b5f826003811115612980576129806139df565b03612989575050565b600182600381111561299d5761299d6139df565b036129d4576040517ff645eedf00000000000000000000000000000000000000000000000000000000815260040160405180910390fd5b60028260038111156129e8576129e86139df565b03612a21576040517ffce698f7000000000000000000000000000000000000000000000000000000008152610678908290600401612d18565b6003826003811115612a3557612a356139df565b03611a1d57806040517fd78bce0c0000000000000000000000000000000000000000000000000000000081526004016106789190612d18565b5f612a7c60e0830183613290565b612a8b916034916024916133f1565b612a9491613809565b60801c92915050565b5f6fffffffffffffffffffffffffffffffff6080830135166105ab565b5f6105ab826080013560801c90565b5f80807f7fffffffffffffffffffffffffffffff5d576e7357a4501ddfe92f46681b20a0841115612b0257505f91506003905082612ba4565b5f6001888888886040515f8152602001604052604051612b259493929190613a0c565b6020604051602081039080840390855afa158015612b45573d5f5f3e3d5ffd5b50506040517fffffffffffffffffffffffffffffffffffffffffffffffffffffffffffffffe0015191505073ffffffffffffffffffffffffffffffffffffffff8116612b9b57505f925060019150829050612ba4565b92505f91508190505b9450945094915050565b7fffffffff0000000000000000000000000000000000000000000000000000000081165b81146112ad575f5ffd5b80356105ab81612bae565b5f60208284031215612bfa57612bfa5f5ffd5b5f612c058484612bdc565b949350505050565b8015155b82525050565b602081016105ab8284612c0d565b63ffffffff8116612bd2565b80356105ab81612c25565b5f60208284031215612c4f57612c4f5f5ffd5b5f612c058484612c31565b5f73ffffffffffffffffffffffffffffffffffffffff82166105ab565b612bd281612c5a565b80356105ab81612c77565b5f60208284031215612c9e57612c9e5f5ffd5b5f612c058484612c80565b80612bd2565b80356105ab81612ca9565b5f5f60408385031215612cce57612cce5f5ffd5b5f612cd98585612c80565b9250506020612cea85828601612caf565b9150509250929050565b5f60208284031215612d0757612d075f5ffd5b5f612c058484612caf565b80612c11565b602081016105ab8284612d12565b5f5f60408385031215612d3a57612d3a5f5ffd5b5f612d458585612caf565b9250506020612cea85828601612c80565b5f6101208284031215612d6a57612d6a5f5ffd5b50919050565b5f5f5f60608486031215612d8557612d855f5ffd5b833567ffffffffffffffff811115612d9e57612d9e5f5ffd5b612daa86828701612d56565b9350506020612dbb86828701612caf565b9250506040612dcc86828701612caf565b9150509250925092565b8281835e505f910152565b5f612dea825190565b808452602084019350612e01818560208601612dd6565b601f017fffffffffffffffffffffffffffffffffffffffffffffffffffffffffffffffe0169290920192915050565b60408082528101612e418185612de1565b9050611e766020830184612d12565b5f5f5f5f60808587031215612e6657612e665f5ffd5b5f612e718787612caf565b9450506020612e8287828801612caf565b9350506040612e9387828801612caf565b9250506060612ea487828801612caf565b91505092959194509250565b60ff8116612bd2565b80356105ab81612eb0565b5f5f60408385031215612ed857612ed85f5ffd5b5f612ee38585612eb9565b925050602083013567ffffffffffffffff811115612f0257612f025f5ffd5b612cea85828601612d56565b600381106112ad575f5ffd5b80356105ab81612f0e565b5f5f83601f840112612f3857612f385f5ffd5b50813567ffffffffffffffff811115612f5257612f525f5ffd5b602083019150836001820283011115612f6c57612f6c5f5ffd5b9250929050565b5f5f5f5f5f60808688031215612f8a57612f8a5f5ffd5b5f612f958888612f1a565b955050602086013567ffffffffffffffff811115612fb457612fb45f5ffd5b612fc088828901612f25565b94509450506040612fd388828901612caf565b9250506060612fe488828901612caf565b9150509295509295909350565b5f5f83601f840112613004576130045f5ffd5b50813567ffffffffffffffff81111561301e5761301e5f5ffd5b602083019150836020820283011115612f6c57612f6c5f5ffd5b801515612bd2565b80356105ab81613038565b5f5f5f60408486031215613060576130605f5ffd5b833567ffffffffffffffff811115613079576130795f5ffd5b61308586828701612ff1565b93509350506020612dcc86828701613040565b5f6105ab73ffffffffffffffffffffffffffffffffffffffff83166130bb565b90565b73ffffffffffffffffffffffffffffffffffffffff1690565b5f6105ab82613098565b5f6105ab826130d4565b612c11816130de565b602081016105ab82846130e8565b6fffffffffffffffffffffffffffffffff8116612bd2565b80356105ab816130ff565b5f5f5f5f5f60a08688031215613139576131395f5ffd5b5f6131448888612caf565b955050602061315588828901612caf565b945050604061316688828901613117565b935050606061317788828901612caf565b9250506080612fe488828901612caf565b612c1181612c5a565b6040810161319f8285613188565b611e766020830184612d12565b63ffffffff8116612c11565b602081016105ab82846131ac565b602081016105ab8284613188565b7f4e487b71000000000000000000000000000000000000000000000000000000005f52601160045260245ffd5b818102808215838204851417613219576132196131d4565b5092915050565b808201808211156105ab576105ab6131d4565b7f4e487b71000000000000000000000000000000000000000000000000000000005f52601260045260245ffd5b5f8261326e5761326e613233565b500490565b60ff9182169190811690828201908111156105ab576105ab6131d4565b5f8083357fffffffffffffffffffffffffffffffffffffffffffffffffffffffffffffffe1368590030181126132c7576132c75f5ffd5b80840192508235915067ffffffffffffffff8211156132e7576132e75f5ffd5b602083019250600182023603831315613301576133015f5ffd5b509250929050565b7f4e487b71000000000000000000000000000000000000000000000000000000005f52603260045260245ffd5b604081016133448285613188565b611e766020830184612c0d565b80516105ab81612ca9565b5f6020828403121561336f5761336f5f5ffd5b5f612c058484613351565b818103818111156105ab576105ab6131d4565b602080825281016105ab81601581527f53656e646572206e6f7420456e747279506f696e740000000000000000000000602082015260400190565b82818337505f910152565b5f6133df8385846133c8565b50500190565b5f612c058284866133d3565b5f5f85851115613402576134025f5ffd5b83861115613411576134115f5ffd5b5050820193919092039150565b610100810161342d828b613188565b61343a602083018a612d12565b6134476040830189612d12565b6134546060830188612d12565b6134616080830187612d12565b61346e60a0830186612d12565b61347b60c0830185612d12565b61129660e0830184612d12565b6040810161319f8285612d12565b60ff8116612c11565b608081016134ad8287613496565b6134ba6020830186613188565b6134c76040830185612d12565b6109ff6060830184612d12565b5f6105ab6130b88381565b612c11816134d4565b608081016134f68287613496565b6135036020830186613188565b61351060408301856134df565b6109ff60608301846134df565b7f4e487b71000000000000000000000000000000000000000000000000000000005f52604160045260245ffd5b7fffffffffffffffffffffffffffffffffffffffffffffffffffffffffffffffe0601f830116810181811067ffffffffffffffff8211171561358e5761358e61351d565b6040525050565b5f61359f60405190565b90506135ab828261354a565b919050565b5f6101c082840312156135c4576135c45f5ffd5b6135cf6101c0613595565b90505f6135dc8484612c80565b82525060206135ed84848301612c80565b602083015250604061360184828501612c80565b604083015250606061361584828501612caf565b606083015250608061362984828501613117565b60808301525060a061363d84828501612caf565b60a08301525060c061365184828501612caf565b60c08301525060e061366584828501612caf565b60e08301525061010061367a84828501612caf565b6101008301525061012061369084828501612caf565b610120830152506101406136a684828501612caf565b610140830152506101606136bc84828501612caf565b610160830152506101806136d284828501613117565b610180830152506101a06136e884828501612c80565b6101a08301525092915050565b5f6101c08284031215613709576137095f5ffd5b5f612c0584846135b0565b80357fffffffffffff00000000000000000000000000000000000000000000000000001682826006821015613777576137727fffffffffffff0000000000000000000000000000000000000000000000000000836006036008021b90565b831692505b505092915050565b6fffffffffffffffffffffffffffffffff9182169190811690828201908111156105ab576105ab6131d4565b80357fffffffffffffffffffffffffffffffffffffffff0000000000000000000000001682826014821015613777576137727fffffffffffffffffffffffffffffffffffffffff000000000000000000000000836014036008021b90565b80357fffffffffffffffffffffffffffffffff000000000000000000000000000000001682826010821015613777576137727fffffffffffffffffffffffffffffffff00000000000000000000000000000000836010036008021b90565b803582826020821015613777576137727fffffffffffffffffffffffffffffffffffffffffffffffffffffffffffffffff836020036008021b90565b6fffffffffffffffffffffffffffffffff8116612c11565b80516101c08301906138cd8482613188565b5060208201516138e06020850182613188565b5060408201516138f36040850182613188565b5060608201516139066060850182612d12565b50608082015161391960808501826138a3565b5060a082015161392c60a0850182612d12565b5060c082015161393f60c0850182612d12565b5060e082015161395260e0850182612d12565b50610100820151613967610100850182612d12565b5061012082015161397c610120850182612d12565b50610140820151613991610140850182612d12565b506101608201516139a6610160850182612d12565b506101808201516139bb6101808501826138a3565b506101a08201516109466101a0850182613188565b6101c081016105ab82846138bb565b7f4e487b71000000000000000000000000000000000000000000000000000000005f52602160045260245ffd5b60808101613a1a8287612d12565b6134ba602083018661349656fea2646970667358221220e9bb864827d7197851e3a4f9aea76d4e9c2f5f93437146403c407aeb1a9aaf2564736f6c634300081c0033","linkReferences":{}},"methodIdentifiers":{"DEFAULT_ADMIN_ROLE()":"a217fddf","MANAGER_ROLE()":"ec87621c","_expectedPenaltyGasCost(uint256,uint256,uint128,uint256,uint256)":"feaf513e","addSigner(address)":"eb12d61e","addStake(uint32)":"0396cb60","deposit()":"d0e30db0","entryPoint()":"b0d691fe","getCostInToken(uint256,uint256,uint256,uint256)":"5525dcfb","getDeposit()":"c399ec88","getHash(uint8,(address,uint256,bytes,bytes,bytes32,uint256,bytes32,bytes,bytes))":"63b241aa","getRoleAdmin(bytes32)":"248a9ca3","grantRole(bytes32,address)":"2f2ff15d","hasRole(bytes32,address)":"91d14854","isBundlerAllowed(address)":"4031c20e","postOp(uint8,bytes,uint256,uint256)":"7c627b21","removeSigner(address)":"0e316ab7","renounceRole(bytes32,address)":"36568abe","revokeRole(bytes32,address)":"d547741f","signers(address)":"736c0d5b","supportsInterface(bytes4)":"01ffc9a7","unlockStake()":"bb9fe6bf","updateBundlerAllowlist(address[],bool)":"7dd345cb","validatePaymasterUserOp((address,uint256,bytes,bytes,bytes32,uint256,bytes32,bytes,bytes),bytes32,uint256)":"52b7512c","withdrawStake(address)":"c23a5cea","withdrawTo(address,uint256)":"205c2878"},"id":145}