{"abi":[{"type":"constructor","inputs":[{"name":"_entryPoint","type":"address","internalType":"address"},{"name":"_owner","type":"address","internalType":"address"},{"name":"_manager","type":"address","internalType":"address"},{"name":"_signers","type":"address[]","internalType":"address[]"}],"stateMutability":"nonpayable"},{"type":"function","name":"DEFAULT_ADMIN_ROLE","inputs":[],"outputs":[{"name":"","type":"bytes32","internalType":"bytes32"}],"stateMutability":"view"},{"type":"function","name":"MANAGER_ROLE","inputs":[],"outputs":[{"name":"","type":"bytes32","internalType":"bytes32"}],"stateMutability":"view"},{"type":"function","name":"_expectedPenaltyGasCost","inputs":[{"name":"","type":"uint256","internalType":"uint256"},{"name":"","type":"uint256","internalType":"uint256"},{"name":"","type":"uint128","internalType":"uint128"},{"name":"","type":"uint256","internalType":"uint256"},{"name":"","type":"uint256","internalType":"uint256"}],"outputs":[{"name":"","type":"uint256","internalType":"uint256"}],"stateMutability":"pure"},{"type":"function","name":"addSigner","inputs":[{"name":"_signer","type":"address","internalType":"address"}],"outputs":[],"stateMutability":"nonpayable"},{"type":"function","name":"addStake","inputs":[{"name":"unstakeDelaySec","type":"uint32","internalType":"uint32"}],"outputs":[],"stateMutability":"payable"},{"type":"function","name":"deposit","inputs":[],"outputs":[],"stateMutability":"payable"},{"type":"function","name":"entryPoint","inputs":[],"outputs":[{"name":"","type":"address","internalType":"contract IEntryPoint"}],"stateMutability":"view"},{"type":"function","name":"getCostInToken","inputs":[{"name":"_actualGasCost","type":"uint256","internalType":"uint256"},{"name":"_postOpGas","type":"uint256","internalType":"uint256"},{"name":"_actualUserOpFeePerGas","type":"uint256","internalType":"uint256"},{"name":"_exchangeRate","type":"uint256","internalType":"uint256"}],"outputs":[{"name":"","type":"uint256","internalType":"uint256"}],"stateMutability":"pure"},{"type":"function","name":"getDeposit","inputs":[],"outputs":[{"name":"","type":"uint256","internalType":"uint256"}],"stateMutability":"view"},{"type":"function","name":"getHash","inputs":[{"name":"_mode","type":"uint8","internalType":"uint8"},{"name":"_userOp","type":"tuple","internalType":"struct PackedUserOperation","components":[{"name":"sender","type":"address","internalType":"address"},{"name":"nonce","type":"uint256","internalType":"uint256"},{"name":"initCode","type":"bytes","internalType":"bytes"},{"name":"callData","type":"bytes","internalType":"bytes"},{"name":"accountGasLimits","type":"bytes32","internalType":"bytes32"},{"name":"preVerificationGas","type":"uint256","internalType":"uint256"},{"name":"gasFees","type":"bytes32","internalType":"bytes32"},{"name":"paymasterAndData","type":"bytes","internalType":"bytes"},{"name":"signature","type":"bytes","internalType":"bytes"}]}],"outputs":[{"name":"","type":"bytes32","internalType":"bytes32"}],"stateMutability":"view"},{"type":"function","name":"getRoleAdmin","inputs":[{"name":"role","type":"bytes32","internalType":"bytes32"}],"outputs":[{"name":"","type":"bytes32","internalType":"bytes32"}],"stateMutability":"view"},{"type":"function","name":"grantRole","inputs":[{"name":"role","type":"bytes32","internalType":"bytes32"},{"name":"account","type":"address","internalType":"address"}],"outputs":[],"stateMutability":"nonpayable"},{"type":"function","name":"hasRole","inputs":[{"name":"role","type":"bytes32","internalType":"bytes32"},{"name":"account","type":"address","internalType":"address"}],"outputs":[{"name":"","type":"bool","internalType":"bool"}],"stateMutability":"view"},{"type":"function","name":"isBundlerAllowed","inputs":[{"name":"bundler","type":"address","internalType":"address"}],"outputs":[{"name":"allowed","type":"bool","internalType":"bool"}],"stateMutability":"view"},{"type":"function","name":"postOp","inputs":[{"name":"mode","type":"uint8","internalType":"enum PostOpMode"},{"name":"context","type":"bytes","internalType":"bytes"},{"name":"actualGasCost","type":"uint256","internalType":"uint256"},{"name":"actualUserOpFeePerGas","type":"uint256","internalType":"uint256"}],"outputs":[],"stateMutability":"nonpayable"},{"type":"function","name":"removeSigner","inputs":[{"name":"_signer","type":"address","internalType":"address"}],"outputs":[],"stateMutability":"nonpayable"},{"type":"function","name":"renounceRole","inputs":[{"name":"role","type":"bytes32","internalType":"bytes32"},{"name":"callerConfirmation","type":"address","internalType":"address"}],"outputs":[],"stateMutability":"nonpayable"},{"type":"function","name":"revokeRole","inputs":[{"name":"role","type":"bytes32","internalType":"bytes32"},{"name":"account","type":"address","internalType":"address"}],"outputs":[],"stateMutability":"nonpayable"},{"type":"function","name":"signers","inputs":[{"name":"account","type":"address","internalType":"address"}],"outputs":[{"name":"isValidSigner","type":"bool","internalType":"bool"}],"stateMutability":"view"},{"type":"function","name":"supportsInterface","inputs":[{"name":"interfaceId","type":"bytes4","internalType":"bytes4"}],"outputs":[{"name":"","type":"bool","internalType":"bool"}],"stateMutability":"view"},{"type":"function","name":"unlockStake","inputs":[],"outputs":[],"stateMutability":"nonpayable"},{"type":"function","name":"updateBundlerAllowlist","inputs":[{"name":"bundlers","type":"address[]","internalType":"address[]"},{"name":"allowed","type":"bool","internalType":"bool"}],"outputs":[],"stateMutability":"nonpayable"},{"type":"function","name":"validatePaymasterUserOp","inputs":[{"name":"userOp","type":"tuple","internalType":"struct PackedUserOperation","components":[{"name":"sender","type":"address","internalType":"address"},{"name":"nonce","type":"uint256","internalType":"uint256"},{"name":"initCode","type":"bytes","internalType":"bytes"},{"name":"callData","type":"bytes","internalType":"bytes"},{"name":"accountGasLimits","type":"bytes32","internalType":"bytes32"},{"name":"preVerificationGas","type":"uint256","internalType":"uint256"},{"name":"gasFees","type":"bytes32","internalType":"bytes32"},{"name":"paymasterAndData","type":"bytes","internalType":"bytes"},{"name":"signature","type":"bytes","internalType":"bytes"}]},{"name":"userOpHash","type":"bytes32","internalType":"bytes32"},{"name":"requiredPreFund","type":"uint256","internalType":"uint256"}],"outputs":[{"name":"context","type":"bytes","internalType":"bytes"},{"name":"validationData","type":"uint256","internalType":"uint256"}],"stateMutability":"nonpayable"},{"type":"function","name":"withdrawStake","inputs":[{"name":"withdrawAddress","type":"address","internalType":"address payable"}],"outputs":[],"stateMutability":"nonpayable"},{"type":"function","name":"withdrawTo","inputs":[{"name":"withdrawAddress","type":"address","internalType":"address payable"},{"name":"amount","type":"uint256","internalType":"uint256"}],"outputs":[],"stateMutability":"nonpayable"},{"type":"event","name":"BundlerAllowlistUpdated","inputs":[{"name":"bundler","type":"address","indexed":false,"internalType":"address"},{"name":"allowed","type":"bool","indexed":false,"internalType":"bool"}],"anonymous":false},{"type":"event","name":"RoleAdminChanged","inputs":[{"name":"role","type":"bytes32","indexed":true,"internalType":"bytes32"},{"name":"previousAdminRole","type":"bytes32","indexed":true,"internalType":"bytes32"},{"name":"newAdminRole","type":"bytes32","indexed":true,"internalType":"bytes32"}],"anonymous":false},{"type":"event","name":"RoleGranted","inputs":[{"name":"role","type":"bytes32","indexed":true,"internalType":"bytes32"},{"name":"account","type":"address","indexed":true,"internalType":"address"},{"name":"sender","type":"address","indexed":true,"internalType":"address"}],"anonymous":false},{"type":"event","name":"RoleRevoked","inputs":[{"name":"role","type":"bytes32","indexed":true,"internalType":"bytes32"},{"name":"account","type":"address","indexed":true,"internalType":"address"},{"name":"sender","type":"address","indexed":true,"internalType":"address"}],"anonymous":false},{"type":"event","name":"SignerAdded","inputs":[{"name":"signer","type":"address","indexed":false,"internalType":"address"}],"anonymous":false},{"type":"event","name":"SignerRemoved","inputs":[{"name":"signer","type":"address","indexed":false,"internalType":"address"}],"anonymous":false},{"type":"event","name":"UserOperationSponsored","inputs":[{"name":"userOpHash","type":"bytes32","indexed":true,"internalType":"bytes32"},{"name":"user","type":"address","indexed":true,"internalType":"address"},{"name":"paymasterMode","type":"uint8","indexed":false,"internalType":"uint8"},{"name":"token","type":"address","indexed":false,"internalType":"address"},{"name":"tokenAmountPaid","type":"uint256","indexed":false,"internalType":"uint256"},{"name":"exchangeRate","type":"uint256","indexed":false,"internalType":"uint256"}],"anonymous":false},{"type":"error","name":"AccessControlBadConfirmation","inputs":[]},{"type":"error","name":"AccessControlUnauthorizedAccount","inputs":[{"name":"account","type":"address","internalType":"address"},{"name":"neededRole","type":"bytes32","internalType":"bytes32"}]},{"type":"error","name":"AccessControlUnauthorizedAccount","inputs":[{"name":"account","type":"address","internalType":"address"},{"name":"neededRole","type":"bytes32","internalType":"bytes32"}]},{"type":"error","name":"BundlerNotAllowed","inputs":[{"name":"bundler","type":"address","internalType":"address"}]},{"type":"error","name":"ECDSAInvalidSignature","inputs":[]},{"type":"error","name":"ECDSAInvalidSignatureLength","inputs":[{"name":"length","type":"uint256","internalType":"uint256"}]},{"type":"error","name":"ECDSAInvalidSignatureS","inputs":[{"name":"s","type":"bytes32","internalType":"bytes32"}]},{"type":"error","name":"ExchangeRateInvalid","inputs":[]},{"type":"error","name":"PaymasterAndDataLengthInvalid","inputs":[]},{"type":"error","name":"PaymasterConfigLengthInvalid","inputs":[]},{"type":"error","name":"PaymasterModeInvalid","inputs":[]},{"type":"error","name":"PaymasterSignatureLengthInvalid","inputs":[]},{"type":"error","name":"PostOpTransferFromFailed","inputs":[{"name":"msg","type":"string","internalType":"string"}]},{"type":"error","name":"PreFundTooHigh","inputs":[]},{"type":"error","name":"RecipientInvalid","inputs":[]},{"type":"error","name":"TokenAddressInvalid","inputs":[]}],"bytecode":{"object":"0x6101806040525f60a052600160c081905260e052607561010052600c61012052603461014052601461016052348015610036575f5ffd5b5060405161414b38038061414b833981016040819052610055916102f4565b6001600160a01b0384166080528383838383838383808484846100785f83610115565b506100a37f241ecf16d79d0f8dbfb92cbc07fe17840425976cf0667f022fe9877caa831b0882610115565b505f925050505b8151811015610102576001805f8484815181106100c9576100c961036d565b6020908102919091018101516001600160a01b031682528101919091526040015f20805460ff19169115159190911790556001016100aa565b5050505050505050505050505050610381565b5f828152602081815260408083206001600160a01b038516845290915281205460ff166101b5575f838152602081815260408083206001600160a01b03861684529091529020805460ff1916600117905561016d3390565b6001600160a01b0316826001600160a01b0316847f2f8788117e7eff1d82e926ec794901d17c78024a50270940304540a733656f0d60405160405180910390a45060016101b8565b505f5b92915050565b5f6001600160a01b0382166101b8565b6101d7816101be565b81146101e1575f5ffd5b50565b80516101b8816101ce565b634e487b7160e01b5f52604160045260245ffd5b601f19601f83011681018181106001600160401b0382111715610228576102286101ef565b6040525050565b5f61023960405190565b90506102458282610203565b919050565b5f6001600160401b03821115610262576102626101ef565b5060209081020190565b5f61027e6102798461024a565b61022f565b8381529050602080820190840283018581111561029c5761029c5f5ffd5b835b818110156102c057806102b188826101e4565b8452506020928301920161029e565b5050509392505050565b5f82601f8301126102dc576102dc5f5ffd5b81516102ec84826020860161026c565b949350505050565b5f5f5f5f6080858703121561030a5761030a5f5ffd5b5f61031587876101e4565b9450506020610326878288016101e4565b9350506040610337878288016101e4565b92505060608501516001600160401b03811115610355576103555f5ffd5b610361878288016102ca565b91505092959194509250565b634e487b7160e01b5f52603260045260245ffd5b60805160a05160c05160e05161010051610120516101405161016051613ced61045e5f395f50505f8181611304015281816116570152611e8101525f818161157f015261207901525f81816115d9015261223101525f81816115a0015281816115fa015261163501525f81816113880152818161145d015261189501525f81816113b90152818161141e0152818161154b01528181611a1e0152611b2f01525f818161040b015281816106c3015281816108be01528181610cf401528181610db001528181610e3b01528181610ef101526112920152613ced5ff3fe60806040526004361061018e575f3560e01c80637c627b21116100dc578063c23a5cea11610087578063d547741f11610062578063d547741f14610489578063eb12d61e146104a8578063ec87621c146104c7578063feaf513e146104fa575f5ffd5b8063c23a5cea1461044e578063c399ec881461046d578063d0e30db014610481575f5ffd5b8063a217fddf116100b7578063a217fddf146103e7578063b0d691fe146103fa578063bb9fe6bf1461043a575f5ffd5b80637c627b211461035a5780637dd345cb1461037957806391d1485414610398575f5ffd5b806336568abe1161013c5780635525dcfb116101175780635525dcfb146102ee57806363b241aa1461030d578063736c0d5b1461032c575f5ffd5b806336568abe146102745780634031c20e1461029357806352b7512c146102c1575f5ffd5b8063205c28781161016c578063205c2878146101fb578063248a9ca31461021a5780632f2ff15d14610255575f5ffd5b806301ffc9a7146101925780630396cb60146101c75780630e316ab7146101dc575b5f5ffd5b34801561019d575f5ffd5b506101b16101ac366004612d83565b61051e565b6040516101be9190612db3565b60405180910390f35b6101da6101d5366004612dd8565b6105b6565b005b3480156101e7575f5ffd5b506101da6101f6366004612e27565b61072b565b348015610206575f5ffd5b506101da610215366004612e56565b610877565b348015610225575f5ffd5b50610248610234366004612e90565b5f9081526020819052604090206001015490565b6040516101be9190612eb4565b348015610260575f5ffd5b506101da61026f366004612ec2565b610927565b34801561027f575f5ffd5b506101da61028e366004612ec2565b610951565b34801561029e575f5ffd5b506101b16102ad366004612e27565b60026020525f908152604090205460ff1681565b3480156102cc575f5ffd5b506102e06102db366004612f0c565b6109af565b6040516101be929190612fcc565b3480156102f9575f5ffd5b50610248610308366004612fec565b6109d1565b348015610318575f5ffd5b50610248610327366004613060565b610a0d565b348015610337575f5ffd5b506101b1610346366004612e27565b60016020525f908152604090205460ff1681565b348015610365575f5ffd5b506101da61037436600461310f565b610a5a565b348015610384575f5ffd5b506101da6103933660046131e7565b610a76565b3480156103a3575f5ffd5b506101b16103b2366004612ec2565b5f9182526020828152604080842073ffffffffffffffffffffffffffffffffffffffff93909316845291905290205460ff1690565b3480156103f2575f5ffd5b506102485f81565b348015610405575f5ffd5b5061042d7f000000000000000000000000000000000000000000000000000000000000000081565b6040516101be919061328d565b348015610445575f5ffd5b506101da610c2b565b348015610459575f5ffd5b506101da610468366004612e27565b610d69565b348015610478575f5ffd5b50610248610dfc565b6101da610eb4565b348015610494575f5ffd5b506101da6104a3366004612ec2565b610f51565b3480156104b3575f5ffd5b506101da6104c2366004612e27565b610f75565b3480156104d2575f5ffd5b506102487f241ecf16d79d0f8dbfb92cbc07fe17840425976cf0667f022fe9877caa831b0881565b348015610505575f5ffd5b506102486105143660046132be565b5f95945050505050565b5f7fffffffff0000000000000000000000000000000000000000000000000000000082167f7965db0b0000000000000000000000000000000000000000000000000000000014806105b057507f01ffc9a7000000000000000000000000000000000000000000000000000000007fffffffff000000000000000000000000000000000000000000000000000000008316145b92915050565b335f9081527fad3228b676f7d3cd4284a5443f17f1962b36e491b30a40b2405849e597ba5fb5602052604090205460ff161580156106225750335f9081527fe84508f2c7fa9c351146748b3025cb78b45df37d868e48c6a75102fecdeee645602052604090205460ff16155b1561068657337f241ecf16d79d0f8dbfb92cbc07fe17840425976cf0667f022fe9877caa831b086040517fe2517d3f00000000000000000000000000000000000000000000000000000000815260040161067d92919061332d565b60405180910390fd5b6040517f0396cb6000000000000000000000000000000000000000000000000000000000815273ffffffffffffffffffffffffffffffffffffffff7f00000000000000000000000000000000000000000000000000000000000000001690630396cb609034906106fa908590600401613354565b5f604051808303818588803b158015610711575f5ffd5b505af1158015610723573d5f5f3e3d5ffd5b505050505050565b335f9081527fad3228b676f7d3cd4284a5443f17f1962b36e491b30a40b2405849e597ba5fb5602052604090205460ff161580156107975750335f9081527fe84508f2c7fa9c351146748b3025cb78b45df37d868e48c6a75102fecdeee645602052604090205460ff16155b156107f257337f241ecf16d79d0f8dbfb92cbc07fe17840425976cf0667f022fe9877caa831b086040517fe2517d3f00000000000000000000000000000000000000000000000000000000815260040161067d92919061332d565b73ffffffffffffffffffffffffffffffffffffffff81165f908152600160205260409081902080547fffffffffffffffffffffffffffffffffffffffffffffffffffffffffffffff00169055517f3525e22824a8a7df2c9a6029941c824cf95b6447f1e13d5128fd3826d35afe8b9061086c908390613362565b60405180910390a150565b5f610881816110bb565b6040517f205c287800000000000000000000000000000000000000000000000000000000815273ffffffffffffffffffffffffffffffffffffffff7f0000000000000000000000000000000000000000000000000000000000000000169063205c2878906108f5908690869060040161332d565b5f604051808303815f87803b15801561090c575f5ffd5b505af115801561091e573d5f5f3e3d5ffd5b50505050505050565b5f82815260208190526040902060010154610941816110bb565b61094b83836110c8565b50505050565b73ffffffffffffffffffffffffffffffffffffffff811633146109a0576040517f6697b23200000000000000000000000000000000000000000000000000000000815260040160405180910390fd5b6109aa82826111c1565b505050565b60605f6109ba61127a565b6109c58585856112eb565b91509150935093915050565b5f670de0b6b3a7640000826109e6858761339d565b6109f090886133bc565b6109fa919061339d565b610a0491906133fc565b95945050505050565b5f5f610a18836114ac565b90505f610a258585611548565b90508082604051602001610a3a92919061340f565b604051602081830303815290604052805190602001209250505092915050565b610a6261127a565b610a6f85858585856116fc565b5050505050565b335f9081527fad3228b676f7d3cd4284a5443f17f1962b36e491b30a40b2405849e597ba5fb5602052604090205460ff16158015610ae25750335f9081527fe84508f2c7fa9c351146748b3025cb78b45df37d868e48c6a75102fecdeee645602052604090205460ff16155b15610b3d57337f241ecf16d79d0f8dbfb92cbc07fe17840425976cf0667f022fe9877caa831b086040517fe2517d3f00000000000000000000000000000000000000000000000000000000815260040161067d92919061332d565b5f5b8281101561094b578160025f868685818110610b5d57610b5d61341d565b9050602002016020810190610b729190612e27565b73ffffffffffffffffffffffffffffffffffffffff16815260208101919091526040015f2080547fffffffffffffffffffffffffffffffffffffffffffffffffffffffffffffff00169115159190911790557f8ff8c5211f68ef53b4bdd15ab2ea6d87be8a3dbf58865bd8325c984057e4fcb4848483818110610bf757610bf761341d565b9050602002016020810190610c0c9190612e27565b83604051610c1b92919061344a565b60405180910390a1600101610b3f565b335f9081527fad3228b676f7d3cd4284a5443f17f1962b36e491b30a40b2405849e597ba5fb5602052604090205460ff16158015610c975750335f9081527fe84508f2c7fa9c351146748b3025cb78b45df37d868e48c6a75102fecdeee645602052604090205460ff16155b15610cf257337f241ecf16d79d0f8dbfb92cbc07fe17840425976cf0667f022fe9877caa831b086040517fe2517d3f00000000000000000000000000000000000000000000000000000000815260040161067d92919061332d565b7f000000000000000000000000000000000000000000000000000000000000000073ffffffffffffffffffffffffffffffffffffffff1663bb9fe6bf6040518163ffffffff1660e01b81526004015f604051808303815f87803b158015610d57575f5ffd5b505af115801561094b573d5f5f3e3d5ffd5b5f610d73816110bb565b6040517fc23a5cea00000000000000000000000000000000000000000000000000000000815273ffffffffffffffffffffffffffffffffffffffff7f0000000000000000000000000000000000000000000000000000000000000000169063c23a5cea90610de5908590600401613362565b5f604051808303815f87803b158015610711575f5ffd5b6040517f70a082310000000000000000000000000000000000000000000000000000000081525f9073ffffffffffffffffffffffffffffffffffffffff7f000000000000000000000000000000000000000000000000000000000000000016906370a0823190610e70903090600401613362565b602060405180830381865afa158015610e8b573d5f5f3e3d5ffd5b505050506040513d601f19601f82011682018060405250810190610eaf9190613470565b905090565b6040517fb760faf900000000000000000000000000000000000000000000000000000000815273ffffffffffffffffffffffffffffffffffffffff7f0000000000000000000000000000000000000000000000000000000000000000169063b760faf9903490610f28903090600401613362565b5f604051808303818588803b158015610f3f575f5ffd5b505af1158015610a6f573d5f5f3e3d5ffd5b5f82815260208190526040902060010154610f6b816110bb565b61094b83836111c1565b335f9081527fad3228b676f7d3cd4284a5443f17f1962b36e491b30a40b2405849e597ba5fb5602052604090205460ff16158015610fe15750335f9081527fe84508f2c7fa9c351146748b3025cb78b45df37d868e48c6a75102fecdeee645602052604090205460ff16155b1561103c57337f241ecf16d79d0f8dbfb92cbc07fe17840425976cf0667f022fe9877caa831b086040517fe2517d3f00000000000000000000000000000000000000000000000000000000815260040161067d92919061332d565b73ffffffffffffffffffffffffffffffffffffffff81165f9081526001602081905260409182902080547fffffffffffffffffffffffffffffffffffffffffffffffffffffffffffffff00169091179055517f47d1c22a25bb3a5d4e481b9b1e6944c2eade3181a0a20b495ed61d35b5323f249061086c908390613362565b6110c581336118e4565b50565b5f8281526020818152604080832073ffffffffffffffffffffffffffffffffffffffff8516845290915281205460ff166111ba575f8381526020818152604080832073ffffffffffffffffffffffffffffffffffffffff86168452909152902080547fffffffffffffffffffffffffffffffffffffffffffffffffffffffffffffff001660011790556111583390565b73ffffffffffffffffffffffffffffffffffffffff168273ffffffffffffffffffffffffffffffffffffffff16847f2f8788117e7eff1d82e926ec794901d17c78024a50270940304540a733656f0d60405160405180910390a45060016105b0565b505f6105b0565b5f8281526020818152604080832073ffffffffffffffffffffffffffffffffffffffff8516845290915281205460ff16156111ba575f8381526020818152604080832073ffffffffffffffffffffffffffffffffffffffff8616808552925280832080547fffffffffffffffffffffffffffffffffffffffffffffffffffffffffffffff0016905551339286917ff6391f5c32d9c69d2a47ea670b442974b53935d1edc7fd64eb21e047a839171b9190a45060016105b0565b3373ffffffffffffffffffffffffffffffffffffffff7f000000000000000000000000000000000000000000000000000000000000000016146112e9576040517f08c379a000000000000000000000000000000000000000000000000000000000815260040161067d906134c4565b565b60605f8080368161132861130260e08b018b6134d4565b7f0000000000000000000000000000000000000000000000000000000000000000611952565b93509350935093508215801561134d5750325f9081526002602052604090205460ff16155b1561138657326040517f55d3ab4600000000000000000000000000000000000000000000000000000000815260040161067d9190613362565b7f000000000000000000000000000000000000000000000000000000000000000060ff168460ff16141580156113e257507f000000000000000000000000000000000000000000000000000000000000000060ff168460ff1614155b15611419576040517f654a4f2900000000000000000000000000000000000000000000000000000000815260040160405180910390fd5b60605f7f000000000000000000000000000000000000000000000000000000000000000060ff168660ff160361145b576114558b85858d6119fc565b90925090505b7f000000000000000000000000000000000000000000000000000000000000000060ff168660ff160361149c57611496868c86868e8e611b8a565b90925090505b909a909950975050505050505050565b5f36816114bc60408501856134d4565b915091506114ca8282611cbb565b6114d757505f9392505050565b5f6114ed6114e86020870187612e27565b611d17565b90506014821161152857806040516020016115089190613573565b604051602081830303815290604052805190602001209350505050919050565b806115368360148187613587565b604051602001611508939291906135d1565b5f7f000000000000000000000000000000000000000000000000000000000000000060ff168360ff16036115d3576115cc826115c47f00000000000000000000000000000000000000000000000000000000000000007f00000000000000000000000000000000000000000000000000000000000000006135ed565b60ff16611e0c565b90506105b0565b5f61161e7f00000000000000000000000000000000000000000000000000000000000000007f00000000000000000000000000000000000000000000000000000000000000006135ed565b90505f61162e60e08501856134d4565b61167b60ff7f0000000000000000000000000000000000000000000000000000000000000000167f00000000000000000000000000000000000000000000000000000000000000006133bc565b81811061168a5761168a61341d565b919091013560f81c91505060018116151560028216151560048316158015906116bb576116b86010866135ed565b94505b82156116cf576116cc6010866135ed565b94505b81156116e3576116e06014866135ed565b94505b6116f0878660ff16611e0c565b955050505050506105b0565b5f6117078585611f26565b90505f5f61171582866133bc565b90505f8361018001516fffffffffffffffffffffffffffffffff166117568386608001516fffffffffffffffffffffffffffffffff168888606001516109d1565b61176091906133bc565b90505f84610120015182116117855781856101200151611780919061360a565b611795565b610120850151611795908361360a565b90506117d7856020015186610120015184116117b55786604001516117b8565b86515b87610120015185116117cb5787516117d1565b87604001515b84612019565b5f670de0b6b3a764000086606001518761010001516117f6919061339d565b61180091906133fc565b6101a087015190915073ffffffffffffffffffffffffffffffffffffffff161580159061182c57508281115b1561185357602086015186516101a088015161185392919061184e878661360a565b612019565b855f015173ffffffffffffffffffffffffffffffffffffffff168660a001517f7a270f29ae17e8e2304ff1245deb50c3b6206bca82928d904f3e284d35c5ffd27f00000000000000000000000000000000000000000000000000000000000000008960200151878b606001516040516118cf9493929190613626565b60405180910390a35050505050505050505050565b5f8281526020818152604080832073ffffffffffffffffffffffffffffffffffffffff8516845290915290205460ff1661194e5780826040517fe2517d3f00000000000000000000000000000000000000000000000000000000815260040161067d92919061332d565b5050565b5f8036816119618560016133bc565b86101561199a576040517fcc32193e00000000000000000000000000000000000000000000000000000000815260040160405180910390fd5b5f8787878181106119ad576119ad61341d565b919091013560f881901c925060018084161515925060f99190911c9036905f908c908c906119dc908d906133bc565b6119e7928290613587565b939d949c509a50919850919650505050505050565b60605f5f5f365f611a0d8989612071565b93509350935093505f611a75611a437f00000000000000000000000000000000000000000000000000000000000000008d610a0d565b7f19457468657265756d205369676e6564204d6573736167653a0a3332000000005f908152601c91909152603c902090565b90505f611ab78285858080601f0160208091040260200160405190810160405280939291908181526020018383808284375f9201919091525061217892505050565b73ffffffffffffffffffffffffffffffffffffffff81165f9081526001602052604081205491925060ff90911690611af1821589896121a0565b90508d3573ffffffffffffffffffffffffffffffffffffffff168b7f7a270f29ae17e8e2304ff1245deb50c3b6206bca82928d904f3e284d35c5ffd27f00000000000000000000000000000000000000000000000000000000000000005f5f5f604051611b61949392919061366f565b60405180910390a360408051602081019091525f81529e909d509b505050505050505050505050565b60605f5f611b9887876121d6565b90505f611ba8611a438b8b610a0d565b90505f611bb9828460c00151612178565b73ffffffffffffffffffffffffffffffffffffffff81165f90815260016020908152604080832054918701519087015193945060ff90911692611bfe918415916121a0565b90505f611c0d8d8b888c612933565b905082611c225796509450611cb09350505050565b5f611c338a5f5f8a60a001516109d1565b9050808761010001511115611c74576040517f79183c8c00000000000000000000000000000000000000000000000000000000815260040160405180910390fd5b61010087015115611ca657611ca687608001518f5f016020810190611c999190612e27565b89516101008b0151612019565b5096509450505050505b965096945050505050565b5f6002821015611ccc57505f6105b0565b50507f770200000000000000000000000000000000000000000000000000000000000090357fffffffffffffffffffffffffffffffffffffffff000000000000000000000000161490565b5f5f60175f5f853c505f517fffffff000000000000000000000000000000000000000000000000000000000081167fef0100000000000000000000000000000000000000000000000000000000000014611ded575f8373ffffffffffffffffffffffffffffffffffffffff163b11611dbb576040517f08c379a000000000000000000000000000000000000000000000000000000000815260040161067d906136d7565b6040517f08c379a000000000000000000000000000000000000000000000000000000000815260040161067d9061371a565b60481c73ffffffffffffffffffffffffffffffffffffffff1692915050565b5f8083356020850135608086013560a087013560c0880135611e3160408a018a6134d4565b604051611e3f92919061372a565b604051908190039020611e5560608b018b6134d4565b604051611e6392919061372a565b604051908190039020611e7960e08c018c6134d4565b5f90611ea58d7f00000000000000000000000000000000000000000000000000000000000000006133bc565b92611eb293929190613587565b604051611ec092919061372a565b604051908190038120611edc9897969594939291602001613736565b6040516020818303038152906040528051906020012090508046604051602001611f0792919061340f565b6040516020818303038152906040528051906020012091505092915050565b612006604051806101c001604052805f73ffffffffffffffffffffffffffffffffffffffff1681526020015f73ffffffffffffffffffffffffffffffffffffffff1681526020015f73ffffffffffffffffffffffffffffffffffffffff1681526020015f81526020015f6fffffffffffffffffffffffffffffffff1681526020015f81526020015f81526020015f81526020015f81526020015f81526020015f81526020015f81526020015f6fffffffffffffffffffffffffffffffff1681526020015f73ffffffffffffffffffffffffffffffffffffffff1681525090565b61201282840184613985565b9392505050565b60405181606052826040528360601b602c526f23b872dd000000000000000000000000600c5260205f6064601c5f895af13d1560015f5114171661206457637939f4245f526004601cfd5b5f60605260405250505050565b5f80368160ff7f0000000000000000000000000000000000000000000000000000000000000000168510156120d2576040517ff96ce32900000000000000000000000000000000000000000000000000000000815260040160405180910390fd5b5f6120e0600682888a613587565b6120e9916139a4565b60d01c90505f6120fd600c6006898b613587565b612106916139a4565b60d01c9050365f61211a89600c818d613587565b909250905060408114801590612131575060418114155b15612168576040517ff95eeeac00000000000000000000000000000000000000000000000000000000815260040160405180910390fd5b9299919850965090945092505050565b5f5f5f5f6121868686612ac0565b9250925092506121968282612b09565b5090949350505050565b5f60d08265ffffffffffff16901b60a08465ffffffffffff16901b856121c6575f6121c9565b60015b60ff161717949350505050565b60408051610160810182525f8082526020820181905291810182905260608082018390526080820183905260a0820183905260c082015260e081018290526101008101829052610120810182905261014081019190915260ff7f00000000000000000000000000000000000000000000000000000000000000001682101561228a576040517ff96ce32900000000000000000000000000000000000000000000000000000000815260040160405180910390fd5b5f808484828161229c5761229c61341d565b919091013560f81c915050600180821615159060028316151590600484161515906122c79086613a0f565b9450876fffffffffffffffffffffffffffffffff8616886122e9886006613a0f565b6fffffffffffffffffffffffffffffffff169261230893929190613587565b612311916139a4565b60d01c6020870152612324600686613a0f565b9450876fffffffffffffffffffffffffffffffff861688612346886006613a0f565b6fffffffffffffffffffffffffffffffff169261236593929190613587565b61236e916139a4565b60d01c6040870152612381600686613a0f565b9450876fffffffffffffffffffffffffffffffff8616886123a3886014613a0f565b6fffffffffffffffffffffffffffffffff16926123c293929190613587565b6123cb91613a3b565b60601c60808701526123de601486613a0f565b9450876fffffffffffffffffffffffffffffffff861688612400886010613a0f565b6fffffffffffffffffffffffffffffffff169261241f93929190613587565b61242891613a99565b60801c606087015261243b601086613a0f565b9450876fffffffffffffffffffffffffffffffff86168861245d886020613a0f565b6fffffffffffffffffffffffffffffffff169261247c93929190613587565b61248591613af7565b60a0870152612495602086613a0f565b9450876fffffffffffffffffffffffffffffffff8616886124b7886010613a0f565b6fffffffffffffffffffffffffffffffff16926124d693929190613587565b6124df91613a99565b60801c60e08701526124f2601086613a0f565b9450876fffffffffffffffffffffffffffffffff861688612514886014613a0f565b6fffffffffffffffffffffffffffffffff169261253393929190613587565b61253c91613a3b565b60601c865261254c601486613a0f565b5f6101008801529450801561261057612566856010613a0f565b6fffffffffffffffffffffffffffffffff168710156125b1576040517ff96ce32900000000000000000000000000000000000000000000000000000000815260040160405180910390fd5b876fffffffffffffffffffffffffffffffff8616886125d1886010613a0f565b6fffffffffffffffffffffffffffffffff16926125f093929190613587565b6125f991613a99565b60801c61010087015261260d601086613a0f565b94505b5f61012087015282156126d257612628856010613a0f565b6fffffffffffffffffffffffffffffffff16871015612673576040517ff96ce32900000000000000000000000000000000000000000000000000000000815260040160405180910390fd5b876fffffffffffffffffffffffffffffffff861688612693886010613a0f565b6fffffffffffffffffffffffffffffffff16926126b293929190613587565b6126bb91613a99565b60801c6101208701526126cf601086613a0f565b94505b5f6101408701528115612794576126ea856014613a0f565b6fffffffffffffffffffffffffffffffff16871015612735576040517ff96ce32900000000000000000000000000000000000000000000000000000000815260040160405180910390fd5b876fffffffffffffffffffffffffffffffff861688612755886014613a0f565b6fffffffffffffffffffffffffffffffff169261277493929190613587565b61277d91613a3b565b60601c610140870152612791601486613a0f565b94505b6127b2876fffffffffffffffffffffffffffffffff8716818b613587565b8080601f0160208091040260200160405190810160405280939291908181526020018383808284375f9201919091525050505060c0870152608086015173ffffffffffffffffffffffffffffffffffffffff1661283b576040517f33c1dac900000000000000000000000000000000000000000000000000000000815260040160405180910390fd5b8560a001515f03612878576040517f5b33c69600000000000000000000000000000000000000000000000000000000815260040160405180910390fd5b81801561289e575061014086015173ffffffffffffffffffffffffffffffffffffffff16155b156128d5576040517f497189f900000000000000000000000000000000000000000000000000000000815260040160405180910390fd5b8560c00151516040141580156128f157508560c0015151604114155b15612928576040517ff95eeeac00000000000000000000000000000000000000000000000000000000815260040160405180910390fd5b505050505092915050565b60605f61293f86612c0a565b61294887612c39565b61295291906133bc565b90505f8460e001516fffffffffffffffffffffffffffffffff1661297588612c56565b6129839060a08a01356133bc565b61298d91906133bc565b604080516101c08101909152909150806129aa60208a018a612e27565b73ffffffffffffffffffffffffffffffffffffffff168152602001866080015173ffffffffffffffffffffffffffffffffffffffff168152602001865f015173ffffffffffffffffffffffffffffffffffffffff1681526020018660a00151815260200186606001516fffffffffffffffffffffffffffffffff1681526020018781526020015f81526020015f815260200185815260200186610100015181526020018381526020018281526020018661012001516fffffffffffffffffffffffffffffffff16815260200186610140015173ffffffffffffffffffffffffffffffffffffffff16815250604051602001612aa59190613c60565b60405160208183030381529060405292505050949350505050565b5f5f5f8351604103612af7576020840151604085015160608601515f1a612ae988828585612c65565b955095509550505050612b02565b505081515f91506002905b9250925092565b5f826003811115612b1c57612b1c613c6f565b03612b25575050565b6001826003811115612b3957612b39613c6f565b03612b70576040517ff645eedf00000000000000000000000000000000000000000000000000000000815260040160405180910390fd5b6002826003811115612b8457612b84613c6f565b03612bbd576040517ffce698f700000000000000000000000000000000000000000000000000000000815261067d908290600401612eb4565b6003826003811115612bd157612bd1613c6f565b0361194e57806040517fd78bce0c00000000000000000000000000000000000000000000000000000000815260040161067d9190612eb4565b5f612c1860e08301836134d4565b612c2791603491602491613587565b612c3091613a99565b60801c92915050565b5f6fffffffffffffffffffffffffffffffff6080830135166105b0565b5f6105b0826080013560801c90565b5f80807f7fffffffffffffffffffffffffffffff5d576e7357a4501ddfe92f46681b20a0841115612c9e57505f91506003905082612d40565b5f6001888888886040515f8152602001604052604051612cc19493929190613c9c565b6020604051602081039080840390855afa158015612ce1573d5f5f3e3d5ffd5b50506040517fffffffffffffffffffffffffffffffffffffffffffffffffffffffffffffffe0015191505073ffffffffffffffffffffffffffffffffffffffff8116612d3757505f925060019150829050612d40565b92505f91508190505b9450945094915050565b7fffffffff0000000000000000000000000000000000000000000000000000000081165b81146110c5575f5ffd5b80356105b081612d4a565b5f60208284031215612d9657612d965f5ffd5b5f612da18484612d78565b949350505050565b8015155b82525050565b602081016105b08284612da9565b63ffffffff8116612d6e565b80356105b081612dc1565b5f60208284031215612deb57612deb5f5ffd5b5f612da18484612dcd565b5f73ffffffffffffffffffffffffffffffffffffffff82166105b0565b612d6e81612df6565b80356105b081612e13565b5f60208284031215612e3a57612e3a5f5ffd5b5f612da18484612e1c565b80612d6e565b80356105b081612e45565b5f5f60408385031215612e6a57612e6a5f5ffd5b5f612e758585612e1c565b9250506020612e8685828601612e4b565b9150509250929050565b5f60208284031215612ea357612ea35f5ffd5b5f612da18484612e4b565b80612dad565b602081016105b08284612eae565b5f5f60408385031215612ed657612ed65f5ffd5b5f612ee18585612e4b565b9250506020612e8685828601612e1c565b5f6101208284031215612f0657612f065f5ffd5b50919050565b5f5f5f60608486031215612f2157612f215f5ffd5b833567ffffffffffffffff811115612f3a57612f3a5f5ffd5b612f4686828701612ef2565b9350506020612f5786828701612e4b565b9250506040612f6886828701612e4b565b9150509250925092565b8281835e505f910152565b5f612f86825190565b808452602084019350612f9d818560208601612f72565b601f017fffffffffffffffffffffffffffffffffffffffffffffffffffffffffffffffe0169290920192915050565b60408082528101612fdd8185612f7d565b90506120126020830184612eae565b5f5f5f5f60808587031215613002576130025f5ffd5b5f61300d8787612e4b565b945050602061301e87828801612e4b565b935050604061302f87828801612e4b565b925050606061304087828801612e4b565b91505092959194509250565b60ff8116612d6e565b80356105b08161304c565b5f5f60408385031215613074576130745f5ffd5b5f61307f8585613055565b925050602083013567ffffffffffffffff81111561309e5761309e5f5ffd5b612e8685828601612ef2565b600381106110c5575f5ffd5b80356105b0816130aa565b5f5f83601f8401126130d4576130d45f5ffd5b50813567ffffffffffffffff8111156130ee576130ee5f5ffd5b602083019150836001820283011115613108576131085f5ffd5b9250929050565b5f5f5f5f5f60808688031215613126576131265f5ffd5b5f61313188886130b6565b955050602086013567ffffffffffffffff811115613150576131505f5ffd5b61315c888289016130c1565b9450945050604061316f88828901612e4b565b925050606061318088828901612e4b565b9150509295509295909350565b5f5f83601f8401126131a0576131a05f5ffd5b50813567ffffffffffffffff8111156131ba576131ba5f5ffd5b602083019150836020820283011115613108576131085f5ffd5b801515612d6e565b80356105b0816131d4565b5f5f5f604084860312156131fc576131fc5f5ffd5b833567ffffffffffffffff811115613215576132155f5ffd5b6132218682870161318d565b93509350506020612f68868287016131dc565b5f6105b073ffffffffffffffffffffffffffffffffffffffff8316613257565b90565b73ffffffffffffffffffffffffffffffffffffffff1690565b5f6105b082613234565b5f6105b082613270565b612dad8161327a565b602081016105b08284613284565b6fffffffffffffffffffffffffffffffff8116612d6e565b80356105b08161329b565b5f5f5f5f5f60a086880312156132d5576132d55f5ffd5b5f6132e08888612e4b565b95505060206132f188828901612e4b565b9450506040613302888289016132b3565b935050606061331388828901612e4b565b925050608061318088828901612e4b565b612dad81612df6565b6040810161333b8285613324565b6120126020830184612eae565b63ffffffff8116612dad565b602081016105b08284613348565b602081016105b08284613324565b7f4e487b71000000000000000000000000000000000000000000000000000000005f52601160045260245ffd5b8181028082158382048514176133b5576133b5613370565b5092915050565b808201808211156105b0576105b0613370565b7f4e487b71000000000000000000000000000000000000000000000000000000005f52601260045260245ffd5b5f8261340a5761340a6133cf565b500490565b6040810161333b8285612eae565b7f4e487b71000000000000000000000000000000000000000000000000000000005f52603260045260245ffd5b604081016134588285613324565b6120126020830184612da9565b80516105b081612e45565b5f60208284031215613483576134835f5ffd5b5f612da18484613465565b601581525f602082017f53656e646572206e6f7420456e747279506f696e740000000000000000000000815291505b5060200190565b602080825281016105b08161348e565b5f8083357fffffffffffffffffffffffffffffffffffffffffffffffffffffffffffffffe13685900301811261350b5761350b5f5ffd5b80840192508235915067ffffffffffffffff82111561352b5761352b5f5ffd5b602083019250600182023603831315613545576135455f5ffd5b509250929050565b5f6105b08260601b90565b5f6105b08261354d565b612dad61356e82612df6565b613558565b5f61357e8284613562565b50601401919050565b5f5f85851115613598576135985f5ffd5b838611156135a7576135a75f5ffd5b5050820193919092039150565b82818337505f910152565b5f6135cb8385846135b4565b50500190565b5f6135dc8286613562565b601482019150610a048284866135bf565b60ff9182169190811690828201908111156105b0576105b0613370565b818103818111156105b0576105b0613370565b60ff8116612dad565b60808101613634828761361d565b6136416020830186613324565b61364e6040830185612eae565b610a046060830184612eae565b5f6105b06132548381565b612dad8161365b565b6080810161367d828761361d565b61368a6020830186613324565b6136976040830185613666565b610a046060830184613666565b601281525f602082017f73656e64657220686173206e6f20636f64650000000000000000000000000000815291506134bd565b602080825281016105b0816136a4565b601881525f602082017f6e6f7420616e204549502d373730322064656c65676174650000000000000000815291506134bd565b602080825281016105b0816136e7565b5f612da18284866135bf565b6101008101613745828b613324565b613752602083018a612eae565b61375f6040830189612eae565b61376c6060830188612eae565b6137796080830187612eae565b61378660a0830186612eae565b61379360c0830185612eae565b6137a060e0830184612eae565b9998505050505050505050565b7f4e487b71000000000000000000000000000000000000000000000000000000005f52604160045260245ffd5b7fffffffffffffffffffffffffffffffffffffffffffffffffffffffffffffffe0601f830116810181811067ffffffffffffffff8211171561381e5761381e6137ad565b6040525050565b5f61382f60405190565b905061383b82826137da565b919050565b5f6101c08284031215613854576138545f5ffd5b61385f6101c0613825565b90505f61386c8484612e1c565b825250602061387d84848301612e1c565b602083015250604061389184828501612e1c565b60408301525060606138a584828501612e4b565b60608301525060806138b9848285016132b3565b60808301525060a06138cd84828501612e4b565b60a08301525060c06138e184828501612e4b565b60c08301525060e06138f584828501612e4b565b60e08301525061010061390a84828501612e4b565b6101008301525061012061392084828501612e4b565b6101208301525061014061393684828501612e4b565b6101408301525061016061394c84828501612e4b565b61016083015250610180613962848285016132b3565b610180830152506101a061397884828501612e1c565b6101a08301525092915050565b5f6101c08284031215613999576139995f5ffd5b5f612da18484613840565b80357fffffffffffff00000000000000000000000000000000000000000000000000001682826006821015613a0757613a027fffffffffffff0000000000000000000000000000000000000000000000000000836006036008021b90565b831692505b505092915050565b6fffffffffffffffffffffffffffffffff9182169190811690828201908111156105b0576105b0613370565b80357fffffffffffffffffffffffffffffffffffffffff0000000000000000000000001682826014821015613a0757613a027fffffffffffffffffffffffffffffffffffffffff000000000000000000000000836014036008021b90565b80357fffffffffffffffffffffffffffffffff000000000000000000000000000000001682826010821015613a0757613a027fffffffffffffffffffffffffffffffff00000000000000000000000000000000836010036008021b90565b803582826020821015613a0757613a027fffffffffffffffffffffffffffffffffffffffffffffffffffffffffffffffff836020036008021b90565b6fffffffffffffffffffffffffffffffff8116612dad565b80516101c0830190613b5d8482613324565b506020820151613b706020850182613324565b506040820151613b836040850182613324565b506060820151613b966060850182612eae565b506080820151613ba96080850182613b33565b5060a0820151613bbc60a0850182612eae565b5060c0820151613bcf60c0850182612eae565b5060e0820151613be260e0850182612eae565b50610100820151613bf7610100850182612eae565b50610120820151613c0c610120850182612eae565b50610140820151613c21610140850182612eae565b50610160820151613c36610160850182612eae565b50610180820151613c4b610180850182613b33565b506101a082015161094b6101a0850182613324565b6101c081016105b08284613b4b565b7f4e487b71000000000000000000000000000000000000000000000000000000005f52602160045260245ffd5b60808101613caa8287612eae565b613641602083018661361d56fea26469706673582212206b1fa2b1f25bc36e67dd13719dd40b9c8f2d78c750dad2f8f4a9451d4a426a6964736f6c634300081c0033","linkReferences":{}},"methodIdentifiers":{"DEFAULT_ADMIN_ROLE()":"a217fddf","MANAGER_ROLE()":"ec87621c","_expectedPenaltyGasCost(uint256,uint256,uint128,uint256,uint256)":"feaf513e","addSigner(address)":"eb12d61e","addStake(uint32)":"0396cb60","deposit()":"d0e30db0","entryPoint()":"b0d691fe","getCostInToken(uint256,uint256,uint256,uint256)":"5525dcfb","getDeposit()":"c399ec88","getHash(uint8,(address,uint256,bytes,bytes,bytes32,uint256,bytes32,bytes,bytes))":"63b241aa","getRoleAdmin(bytes32)":"248a9ca3","grantRole(bytes32,address)":"2f2ff15d","hasRole(bytes32,address)":"91d14854","isBundlerAllowed(address)":"4031c20e","postOp(uint8,bytes,uint256,uint256)":"7c627b21","removeSigner(address)":"0e316ab7","renounceRole(bytes32,address)":"36568abe","revokeRole(bytes32,address)":"d547741f","signers(address)":"736c0d5b","supportsInterface(bytes4)":"01ffc9a7","unlockStake()":"bb9fe6bf","updateBundlerAllowlist(address[],bool)":"7dd345cb","validatePaymasterUserOp((address,uint256,bytes,bytes,bytes32,uint256,bytes32,bytes,bytes),bytes32,uint256)":"52b7512c","withdrawStake(address)":"c23a5cea","withdrawTo(address,uint256)":"205c2878"},"id":146}