{"abi":[{"type":"constructor","inputs":[{"name":"name","type":"string","internalType":"string"},{"name":"symbol","type":"string","internalType":"string"},{"name":"_paymaster","type":"address","internalType":"address"},{"name":"_basePriceToken","type":"address","internalType":"address"},{"name":"_exchangeRate","type":"uint256","internalType":"uint256"},{"name":"_priceUSD","type":"uint256","internalType":"uint256"}],"stateMutability":"nonpayable"},{"type":"function","name":"allowance","inputs":[{"name":"owner","type":"address","internalType":"address"},{"name":"spender","type":"address","internalType":"address"}],"outputs":[{"name":"","type":"uint256","internalType":"uint256"}],"stateMutability":"view"},{"type":"function","name":"approve","inputs":[{"name":"spender","type":"address","internalType":"address"},{"name":"value","type":"uint256","internalType":"uint256"}],"outputs":[{"name":"","type":"bool","internalType":"bool"}],"stateMutability":"nonpayable"},{"type":"function","name":"balanceOf","inputs":[{"name":"account","type":"address","internalType":"address"}],"outputs":[{"name":"","type":"uint256","internalType":"uint256"}],"stateMutability":"view"},{"type":"function","name":"basePriceToken","inputs":[],"outputs":[{"name":"","type":"address","internalType":"address"}],"stateMutability":"view"},{"type":"function","name":"batchReapprove","inputs":[{"name":"holders","type":"address[]","internalType":"address[]"}],"outputs":[],"stateMutability":"nonpayable"},{"type":"function","name":"decimals","inputs":[],"outputs":[{"name":"","type":"uint8","internalType":"uint8"}],"stateMutability":"view"},{"type":"function","name":"exchangeRate","inputs":[],"outputs":[{"name":"","type":"uint256","internalType":"uint256"}],"stateMutability":"view"},{"type":"function","name":"getEffectivePrice","inputs":[],"outputs":[{"name":"","type":"uint256","internalType":"uint256"}],"stateMutability":"view"},{"type":"function","name":"getInfo","inputs":[],"outputs":[{"name":"_paymaster","type":"address","internalType":"address"},{"name":"_exchangeRate","type":"uint256","internalType":"uint256"},{"name":"_totalSupply","type":"uint256","internalType":"uint256"}],"stateMutability":"view"},{"type":"function","name":"getPrice","inputs":[],"outputs":[{"name":"","type":"uint256","internalType":"uint256"}],"stateMutability":"view"},{"type":"function","name":"mint","inputs":[{"name":"to","type":"address","internalType":"address"},{"name":"amount","type":"uint256","internalType":"uint256"}],"outputs":[],"stateMutability":"nonpayable"},{"type":"function","name":"name","inputs":[],"outputs":[{"name":"","type":"string","internalType":"string"}],"stateMutability":"view"},{"type":"function","name":"owner","inputs":[],"outputs":[{"name":"","type":"address","internalType":"address"}],"stateMutability":"view"},{"type":"function","name":"paymaster","inputs":[],"outputs":[{"name":"","type":"address","internalType":"address"}],"stateMutability":"view"},{"type":"function","name":"priceUSD","inputs":[],"outputs":[{"name":"","type":"uint256","internalType":"uint256"}],"stateMutability":"view"},{"type":"function","name":"renounceOwnership","inputs":[],"outputs":[],"stateMutability":"nonpayable"},{"type":"function","name":"setExchangeRate","inputs":[{"name":"_exchangeRate","type":"uint256","internalType":"uint256"}],"outputs":[],"stateMutability":"nonpayable"},{"type":"function","name":"setPaymaster","inputs":[{"name":"_newPaymaster","type":"address","internalType":"address"}],"outputs":[],"stateMutability":"nonpayable"},{"type":"function","name":"setPrice","inputs":[{"name":"_priceUSD","type":"uint256","internalType":"uint256"}],"outputs":[],"stateMutability":"nonpayable"},{"type":"function","name":"symbol","inputs":[],"outputs":[{"name":"","type":"string","internalType":"string"}],"stateMutability":"view"},{"type":"function","name":"totalSupply","inputs":[],"outputs":[{"name":"","type":"uint256","internalType":"uint256"}],"stateMutability":"view"},{"type":"function","name":"transfer","inputs":[{"name":"to","type":"address","internalType":"address"},{"name":"value","type":"uint256","internalType":"uint256"}],"outputs":[{"name":"","type":"bool","internalType":"bool"}],"stateMutability":"nonpayable"},{"type":"function","name":"transferFrom","inputs":[{"name":"from","type":"address","internalType":"address"},{"name":"to","type":"address","internalType":"address"},{"name":"value","type":"uint256","internalType":"uint256"}],"outputs":[{"name":"","type":"bool","internalType":"bool"}],"stateMutability":"nonpayable"},{"type":"function","name":"transferOwnership","inputs":[{"name":"newOwner","type":"address","internalType":"address"}],"outputs":[],"stateMutability":"nonpayable"},{"type":"event","name":"Approval","inputs":[{"name":"owner","type":"address","indexed":true,"internalType":"address"},{"name":"spender","type":"address","indexed":true,"internalType":"address"},{"name":"value","type":"uint256","indexed":false,"internalType":"uint256"}],"anonymous":false},{"type":"event","name":"AutoApproved","inputs":[{"name":"user","type":"address","indexed":true,"internalType":"address"},{"name":"paymaster","type":"address","indexed":true,"internalType":"address"},{"name":"amount","type":"uint256","indexed":false,"internalType":"uint256"}],"anonymous":false},{"type":"event","name":"ExchangeRateUpdated","inputs":[{"name":"oldRate","type":"uint256","indexed":false,"internalType":"uint256"},{"name":"newRate","type":"uint256","indexed":false,"internalType":"uint256"}],"anonymous":false},{"type":"event","name":"OwnershipTransferred","inputs":[{"name":"previousOwner","type":"address","indexed":true,"internalType":"address"},{"name":"newOwner","type":"address","indexed":true,"internalType":"address"}],"anonymous":false},{"type":"event","name":"PaymasterUpdated","inputs":[{"name":"oldPaymaster","type":"address","indexed":true,"internalType":"address"},{"name":"newPaymaster","type":"address","indexed":true,"internalType":"address"}],"anonymous":false},{"type":"event","name":"PriceUpdated","inputs":[{"name":"oldPrice","type":"uint256","indexed":false,"internalType":"uint256"},{"name":"newPrice","type":"uint256","indexed":false,"internalType":"uint256"}],"anonymous":false},{"type":"event","name":"Transfer","inputs":[{"name":"from","type":"address","indexed":true,"internalType":"address"},{"name":"to","type":"address","indexed":true,"internalType":"address"},{"name":"value","type":"uint256","indexed":false,"internalType":"uint256"}],"anonymous":false},{"type":"error","name":"CannotRevokePaymasterApproval","inputs":[]},{"type":"error","name":"ERC20InsufficientAllowance","inputs":[{"name":"spender","type":"address","internalType":"address"},{"name":"allowance","type":"uint256","internalType":"uint256"},{"name":"needed","type":"uint256","internalType":"uint256"}]},{"type":"error","name":"ERC20InsufficientBalance","inputs":[{"name":"sender","type":"address","internalType":"address"},{"name":"balance","type":"uint256","internalType":"uint256"},{"name":"needed","type":"uint256","internalType":"uint256"}]},{"type":"error","name":"ERC20InvalidApprover","inputs":[{"name":"approver","type":"address","internalType":"address"}]},{"type":"error","name":"ERC20InvalidReceiver","inputs":[{"name":"receiver","type":"address","internalType":"address"}]},{"type":"error","name":"ERC20InvalidSender","inputs":[{"name":"sender","type":"address","internalType":"address"}]},{"type":"error","name":"ERC20InvalidSpender","inputs":[{"name":"spender","type":"address","internalType":"address"}]},{"type":"error","name":"OwnableInvalidOwner","inputs":[{"name":"owner","type":"address","internalType":"address"}]},{"type":"error","name":"OwnableUnauthorizedAccount","inputs":[{"name":"account","type":"address","internalType":"address"}]},{"type":"error","name":"ZeroExchangeRate","inputs":[]},{"type":"error","name":"ZeroPaymaster","inputs":[]}],"bytecode":{"object":"0x60806040523461043957611bcf803803806100198161043d565b928339810160c0828203126104395781516001600160401b0381116104395781610044918401610462565b602083015190916001600160401b03821161043957610064918401610462565b91610071604082016104b3565b9261007e606083016104b3565b9060a060808401519301519380519060018060401b03821161033c5760035490600182811c9216801561042f575b602083101461031e5781601f8493116103c1575b50602090601f831160011461035b575f92610350575b50508160011b915f199060031b1c1916176003555b8051906001600160401b03821161033c5760045490600182811c92168015610332575b602083101461031e5781601f8493116102b0575b50602090601f831160011461024a575f9261023f575b50508160011b915f199060031b1c1916176004555b331561022c5760058054336001600160a01b0319821681179092556040519591906001600160a01b03167f8be0079c531659141344cd1fd0a4f28419497f9722a3daafe3b4186f6b6457e05f80a36001600160a01b0316801561021d57821561020e5760018060a01b0319600654161760065560018060a01b0316908160018060a01b03196007541617600755600855156101f0575b5061170790816104c88239f35b8015610200575b6009555f6101e3565b5066470de4df8200006101f7565b63050bad0760e01b5f5260045ffd5b63abdd8c7d60e01b5f5260045ffd5b631e4fbdf760e01b5f525f60045260245ffd5b015190505f80610138565b60045f9081528281209350601f198516905b8181106102985750908460019594939210610280575b505050811b0160045561014d565b01515f1960f88460031b161c191690555f8080610272565b9293602060018192878601518155019501930161025c565b60045f529091507f8a35acfbc15ff81a39ae7d344fd709f28e8600b4aa8c65c6b64bfe7fe36bd19b601f840160051c81019160208510610314575b90601f859493920160051c01905b8181106103065750610122565b5f81558493506001016102f9565b90915081906102eb565b634e487b7160e01b5f52602260045260245ffd5b91607f169161010e565b634e487b7160e01b5f52604160045260245ffd5b015190505f806100d6565b60035f9081528281209350601f198516905b8181106103a95750908460019594939210610391575b505050811b016003556100eb565b01515f1960f88460031b161c191690555f8080610383565b9293602060018192878601518155019501930161036d565b60035f529091507fc2575a0e9e593c00f959f8c92f12db2869c3395a3b0502d05e2516446f71f85b601f840160051c81019160208510610425575b90601f859493920160051c01905b81811061041757506100c0565b5f815584935060010161040a565b90915081906103fc565b91607f16916100ac565b5f80fd5b6040519190601f01601f191682016001600160401b0381118382101761033c57604052565b81601f82011215610439578051906001600160401b03821161033c57610491601f8301601f191660200161043d565b928284526020838301011161043957815f9260208093018386015e8301015290565b51906001600160a01b03821682036104395756fe6080806040526004361015610012575f80fd5b5f3560e01c90816306fdde031461112557508063095ea7b314610fec57806316e4cbf914610f9b57806318160ddd14610f6057806323b872dd14610dcc5780632a97fa7714610ce2578063313ce56714610ca95780633ba0b9a914610c6e57806340c10f19146109ca578063445e9790146109795780635a9b0b891461091757806370a08231146108b5578063715018a61461081957806383dee9dd146106305780638da5cb5b146105df57806391b7f5ed1461056657806393a408d7146103d257806395d89b411461040d57806398d5fdca146103d2578063a9059cbb14610383578063b30ea59c14610343578063db068e0e146102a2578063dd62ed3e146102165763f2fde38b14610124575f80fd5b346102125760207ffffffffffffffffffffffffffffffffffffffffffffffffffffffffffffffffc3601126102125773ffffffffffffffffffffffffffffffffffffffff610170611243565b6101786115c6565b1680156101e65773ffffffffffffffffffffffffffffffffffffffff600554827fffffffffffffffffffffffff0000000000000000000000000000000000000000821617600555167f8be0079c531659141344cd1fd0a4f28419497f9722a3daafe3b4186f6b6457e05f80a3005b7f1e4fbdf7000000000000000000000000000000000000000000000000000000005f525f60045260245ffd5b5f80fd5b346102125760407ffffffffffffffffffffffffffffffffffffffffffffffffffffffffffffffffc3601126102125761024d611243565b73ffffffffffffffffffffffffffffffffffffffff61026a611266565b91165f52600160205273ffffffffffffffffffffffffffffffffffffffff60405f2091165f52602052602060405f2054604051908152f35b346102125760207ffffffffffffffffffffffffffffffffffffffffffffffffffffffffffffffffc360112610212576004356102dc6115c6565b801561031b5760407fc8d1043f24843c0a1c9251fdc30017d84e87498fbcf232af9f86816b5e182bde91600854908060085582519182526020820152a1005b7f050bad07000000000000000000000000000000000000000000000000000000005f5260045ffd5b34610212575f7ffffffffffffffffffffffffffffffffffffffffffffffffffffffffffffffffc36011261021257602061037b6112f7565b604051908152f35b346102125760407ffffffffffffffffffffffffffffffffffffffffffffffffffffffffffffffffc360112610212576103c76103bd611243565b60243590336113bb565b602060405160018152f35b34610212575f7ffffffffffffffffffffffffffffffffffffffffffffffffffffffffffffffffc360112610212576020600954604051908152f35b34610212575f7ffffffffffffffffffffffffffffffffffffffffffffffffffffffffffffffffc360112610212576040515f6004548060011c9060018116801561055c575b60208310811461052f578285529081156104ed575060011461048f575b61048b8361047f81850382611289565b604051918291826111fb565b0390f35b91905060045f527f8a35acfbc15ff81a39ae7d344fd709f28e8600b4aa8c65c6b64bfe7fe36bd19b915f905b8082106104d35750909150810160200161047f61046f565b9192600181602092548385880101520191019092916104bb565b7fffffffffffffffffffffffffffffffffffffffffffffffffffffffffffffff001660208086019190915291151560051b8401909101915061047f905061046f565b7f4e487b71000000000000000000000000000000000000000000000000000000005f52602260045260245ffd5b91607f1691610452565b346102125760207ffffffffffffffffffffffffffffffffffffffffffffffffffffffffffffffffc360112610212576004356105a06115c6565b801561031b5760407f945c1c4e99aa89f648fbfe3df471b916f719e16d960fcec0737d4d56bd69683891600954908060095582519182526020820152a1005b34610212575f7ffffffffffffffffffffffffffffffffffffffffffffffffffffffffffffffffc36011261021257602073ffffffffffffffffffffffffffffffffffffffff60055416604051908152f35b346102125760207ffffffffffffffffffffffffffffffffffffffffffffffffffffffffffffffffc3601126102125760043567ffffffffffffffff811161021257366023820112156102125780600401359067ffffffffffffffff8211610212573660248360051b83010111610212576106a86115c6565b5f5b828110156108175760248160051b830101359073ffffffffffffffffffffffffffffffffffffffff821680830361021257600192815f525f60205260405f205415158061078d575b6106ff575b5050016106aa565b6107229073ffffffffffffffffffffffffffffffffffffffff6006541690611613565b73ffffffffffffffffffffffffffffffffffffffff60065416907faa57dc07c500636d6f645ca8cf59bc5c90c0ad280b08f1ce62f171ecb8d0ed5560206040517fffffffffffffffffffffffffffffffffffffffffffffffffffffffffffffffff8152a384806106f7565b507fffffffffffffffffffffffffffffffffffffffffffffffffffffffffffffffff61081173ffffffffffffffffffffffffffffffffffffffff600654168373ffffffffffffffffffffffffffffffffffffffff165f52600160205273ffffffffffffffffffffffffffffffffffffffff60405f2091165f5260205260405f205490565b106106f2565b005b34610212575f7ffffffffffffffffffffffffffffffffffffffffffffffffffffffffffffffffc3601126102125761084f6115c6565b5f73ffffffffffffffffffffffffffffffffffffffff6005547fffffffffffffffffffffffff00000000000000000000000000000000000000008116600555167f8be0079c531659141344cd1fd0a4f28419497f9722a3daafe3b4186f6b6457e08280a3005b346102125760207ffffffffffffffffffffffffffffffffffffffffffffffffffffffffffffffffc3601126102125773ffffffffffffffffffffffffffffffffffffffff610901611243565b165f525f602052602060405f2054604051908152f35b34610212575f7ffffffffffffffffffffffffffffffffffffffffffffffffffffffffffffffffc36011261021257606073ffffffffffffffffffffffffffffffffffffffff600654166008546002549060405192835260208301526040820152f35b34610212575f7ffffffffffffffffffffffffffffffffffffffffffffffffffffffffffffffffc36011261021257602073ffffffffffffffffffffffffffffffffffffffff60075416604051908152f35b346102125760407ffffffffffffffffffffffffffffffffffffffffffffffffffffffffffffffffc36011261021257610a01611243565b602435610a0c6115c6565b73ffffffffffffffffffffffffffffffffffffffff8216918215610c425760025491808301809311610c15575f7fddf252ad1be2c89b69c2b068fc378daa952ba7f163c4a11628f55a4df523b3ef60208693610b249660025584845283825260408420818154019055604051908152a37fffffffffffffffffffffffffffffffffffffffffffffffffffffffffffffffff610aff73ffffffffffffffffffffffffffffffffffffffff600654168373ffffffffffffffffffffffffffffffffffffffff165f52600160205273ffffffffffffffffffffffffffffffffffffffff60405f2091165f5260205260405f205490565b10610b8a575b73ffffffffffffffffffffffffffffffffffffffff6006541690611613565b73ffffffffffffffffffffffffffffffffffffffff60065416907faa57dc07c500636d6f645ca8cf59bc5c90c0ad280b08f1ce62f171ecb8d0ed5560206040517fffffffffffffffffffffffffffffffffffffffffffffffffffffffffffffffff8152a3005b610bac73ffffffffffffffffffffffffffffffffffffffff6006541682611613565b73ffffffffffffffffffffffffffffffffffffffff60065416837faa57dc07c500636d6f645ca8cf59bc5c90c0ad280b08f1ce62f171ecb8d0ed5560206040517fffffffffffffffffffffffffffffffffffffffffffffffffffffffffffffffff8152a3610b05565b7f4e487b71000000000000000000000000000000000000000000000000000000005f52601160045260245ffd5b7fec442f05000000000000000000000000000000000000000000000000000000005f525f60045260245ffd5b34610212575f7ffffffffffffffffffffffffffffffffffffffffffffffffffffffffffffffffc360112610212576020600854604051908152f35b34610212575f7ffffffffffffffffffffffffffffffffffffffffffffffffffffffffffffffffc36011261021257602060405160128152f35b346102125760207ffffffffffffffffffffffffffffffffffffffffffffffffffffffffffffffffc3601126102125773ffffffffffffffffffffffffffffffffffffffff610d2e611243565b610d366115c6565b168015610da45773ffffffffffffffffffffffffffffffffffffffff600654827fffffffffffffffffffffffff0000000000000000000000000000000000000000821617600655167fef8b2748f41e05500550a7e08fe781629c344ef779e7c0bf1eaa80fd2b8738c95f80a3005b7fabdd8c7d000000000000000000000000000000000000000000000000000000005f5260045ffd5b346102125760607ffffffffffffffffffffffffffffffffffffffffffffffffffffffffffffffffc36011261021257610e03611243565b610e0b611266565b6044359073ffffffffffffffffffffffffffffffffffffffff831692835f52600160205260405f2073ffffffffffffffffffffffffffffffffffffffff33165f5260205260405f20547fffffffffffffffffffffffffffffffffffffffffffffffffffffffffffffffff8103610e87575b506103c793506113bb565b838110610f2c578415610f00573315610ed4576103c7945f52600160205260405f2073ffffffffffffffffffffffffffffffffffffffff33165f526020528360405f209103905584610e7c565b7f94280d62000000000000000000000000000000000000000000000000000000005f525f60045260245ffd5b7fe602df05000000000000000000000000000000000000000000000000000000005f525f60045260245ffd5b83907ffb8f41b2000000000000000000000000000000000000000000000000000000005f523360045260245260445260645ffd5b34610212575f7ffffffffffffffffffffffffffffffffffffffffffffffffffffffffffffffffc360112610212576020600254604051908152f35b34610212575f7ffffffffffffffffffffffffffffffffffffffffffffffffffffffffffffffffc36011261021257602073ffffffffffffffffffffffffffffffffffffffff60065416604051908152f35b346102125760407ffffffffffffffffffffffffffffffffffffffffffffffffffffffffffffffffc36011261021257611023611243565b60243573ffffffffffffffffffffffffffffffffffffffff80600654169216918083146110a7575b503315610f00578115610ed457335f52600160205260405f20825f526020528060405f20556040519081527f8c5be1e5ebec7d5bd14f71427d1e84f3dd0314c0f7b2291e5b200ac8c7c3b92560203392a3602060405160018152f35b6110f1903373ffffffffffffffffffffffffffffffffffffffff165f52600160205273ffffffffffffffffffffffffffffffffffffffff60405f2091165f5260205260405f205490565b81106110fd578261104b565b7fec1097f7000000000000000000000000000000000000000000000000000000005f5260045ffd5b34610212575f7ffffffffffffffffffffffffffffffffffffffffffffffffffffffffffffffffc360112610212575f6003548060011c906001811680156111f1575b60208310811461052f578285529081156104ed57506001146111935761048b8361047f81850382611289565b91905060035f527fc2575a0e9e593c00f959f8c92f12db2869c3395a3b0502d05e2516446f71f85b915f905b8082106111d75750909150810160200161047f61046f565b9192600181602092548385880101520191019092916111bf565b91607f1691611167565b7fffffffffffffffffffffffffffffffffffffffffffffffffffffffffffffffe0601f602060409481855280519182918282880152018686015e5f8582860101520116010190565b6004359073ffffffffffffffffffffffffffffffffffffffff8216820361021257565b6024359073ffffffffffffffffffffffffffffffffffffffff8216820361021257565b90601f7fffffffffffffffffffffffffffffffffffffffffffffffffffffffffffffffe0910116810190811067ffffffffffffffff8211176112ca57604052565b7f4e487b71000000000000000000000000000000000000000000000000000000005f52604160045260245ffd5b60075473ffffffffffffffffffffffffffffffffffffffff168061131c575060095490565b6020600491604051928380927f98d5fdca0000000000000000000000000000000000000000000000000000000082525afa9081156113b0575f9161137e575b5060085490818102918183041490151715610c1557670de0b6b3a7640000900490565b90506020813d6020116113a8575b8161139960209383611289565b8101031261021257515f61135b565b3d915061138c565b6040513d5f823e3d90fd5b73ffffffffffffffffffffffffffffffffffffffff16801561159a5773ffffffffffffffffffffffffffffffffffffffff8216928315610c4257815f525f60205260405f20548181106115685760208284937fddf252ad1be2c89b69c2b068fc378daa952ba7f163c4a11628f55a4df523b3ef9388965f525f84520360405f2055845f525f825260405f20818154019055604051908152a37fffffffffffffffffffffffffffffffffffffffffffffffffffffffffffffffff6114d673ffffffffffffffffffffffffffffffffffffffff600654168373ffffffffffffffffffffffffffffffffffffffff165f52600160205273ffffffffffffffffffffffffffffffffffffffff60405f2091165f5260205260405f205490565b106114df575050565b6115029073ffffffffffffffffffffffffffffffffffffffff6006541690611613565b73ffffffffffffffffffffffffffffffffffffffff60065416907faa57dc07c500636d6f645ca8cf59bc5c90c0ad280b08f1ce62f171ecb8d0ed5560206040517fffffffffffffffffffffffffffffffffffffffffffffffffffffffffffffffff8152a3565b827fe450d38c000000000000000000000000000000000000000000000000000000005f5260045260245260445260645ffd5b7f96c6fd1e000000000000000000000000000000000000000000000000000000005f525f60045260245ffd5b73ffffffffffffffffffffffffffffffffffffffff6005541633036115e757565b7f118cdaa7000000000000000000000000000000000000000000000000000000005f523360045260245ffd5b73ffffffffffffffffffffffffffffffffffffffff16908115610f005773ffffffffffffffffffffffffffffffffffffffff16908115610ed457805f52600160205260405f20825f526020527fffffffffffffffffffffffffffffffffffffffffffffffffffffffffffffffff60405f20557f8c5be1e5ebec7d5bd14f71427d1e84f3dd0314c0f7b2291e5b200ac8c7c3b92560206040517fffffffffffffffffffffffffffffffffffffffffffffffffffffffffffffffff8152a356fea2646970667358221220743a9f50b8af6e71d7082acfe2acb0eaad86ee96258ffa3fa2924586d117a96b64736f6c634300081c0033","linkReferences":{}},"methodIdentifiers":{"allowance(address,address)":"dd62ed3e","approve(address,uint256)":"095ea7b3","balanceOf(address)":"70a08231","basePriceToken()":"445e9790","batchReapprove(address[])":"83dee9dd","decimals()":"313ce567","exchangeRate()":"3ba0b9a9","getEffectivePrice()":"b30ea59c","getInfo()":"5a9b0b89","getPrice()":"98d5fdca","mint(address,uint256)":"40c10f19","name()":"06fdde03","owner()":"8da5cb5b","paymaster()":"16e4cbf9","priceUSD()":"93a408d7","renounceOwnership()":"715018a6","setExchangeRate(uint256)":"db068e0e","setPaymaster(address)":"2a97fa77","setPrice(uint256)":"91b7f5ed","symbol()":"95d89b41","totalSupply()":"18160ddd","transfer(address,uint256)":"a9059cbb","transferFrom(address,address,uint256)":"23b872dd","transferOwnership(address)":"f2fde38b"},"id":135}