{"abi":[{"type":"constructor","inputs":[{"name":"_gtoken","type":"address","internalType":"address"}],"stateMutability":"nonpayable"},{"type":"function","name":"GTOKEN","inputs":[],"outputs":[{"name":"","type":"address","internalType":"address"}],"stateMutability":"view"},{"type":"function","name":"MIN_STAKE","inputs":[],"outputs":[{"name":"","type":"uint256","internalType":"uint256"}],"stateMutability":"view"},{"type":"function","name":"UNSTAKE_DELAY","inputs":[],"outputs":[{"name":"","type":"uint256","internalType":"uint256"}],"stateMutability":"view"},{"type":"function","name":"authorizeSlasher","inputs":[{"name":"slasher","type":"address","internalType":"address"},{"name":"authorized","type":"bool","internalType":"bool"}],"outputs":[],"stateMutability":"nonpayable"},{"type":"function","name":"authorizedSlashers","inputs":[{"name":"","type":"address","internalType":"address"}],"outputs":[{"name":"","type":"bool","internalType":"bool"}],"stateMutability":"view"},{"type":"function","name":"availableBalance","inputs":[{"name":"user","type":"address","internalType":"address"}],"outputs":[{"name":"","type":"uint256","internalType":"uint256"}],"stateMutability":"view"},{"type":"function","name":"balanceOf","inputs":[{"name":"user","type":"address","internalType":"address"}],"outputs":[{"name":"balance","type":"uint256","internalType":"uint256"}],"stateMutability":"view"},{"type":"function","name":"calculateExitFee","inputs":[{"name":"locker","type":"address","internalType":"address"},{"name":"user","type":"address","internalType":"address"}],"outputs":[{"name":"fee","type":"uint256","internalType":"uint256"}],"stateMutability":"view"},{"type":"function","name":"calculateShares","inputs":[{"name":"amount","type":"uint256","internalType":"uint256"}],"outputs":[{"name":"shares","type":"uint256","internalType":"uint256"}],"stateMutability":"view"},{"type":"function","name":"configureLocker","inputs":[{"name":"locker","type":"address","internalType":"address"},{"name":"authorized","type":"bool","internalType":"bool"},{"name":"baseExitFee","type":"uint256","internalType":"uint256"},{"name":"timeTiers","type":"uint256[]","internalType":"uint256[]"},{"name":"tierFees","type":"uint256[]","internalType":"uint256[]"},{"name":"feeRecipient","type":"address","internalType":"address"}],"outputs":[],"stateMutability":"nonpayable"},{"type":"function","name":"gTokenToShares","inputs":[{"name":"amount","type":"uint256","internalType":"uint256"}],"outputs":[{"name":"","type":"uint256","internalType":"uint256"}],"stateMutability":"view"},{"type":"function","name":"getGlobalStats","inputs":[],"outputs":[{"name":"_totalStaked","type":"uint256","internalType":"uint256"},{"name":"_totalSlashed","type":"uint256","internalType":"uint256"},{"name":"_totalShares","type":"uint256","internalType":"uint256"},{"name":"effectiveValue","type":"uint256","internalType":"uint256"}],"stateMutability":"view"},{"type":"function","name":"getLockInfo","inputs":[{"name":"user","type":"address","internalType":"address"},{"name":"locker","type":"address","internalType":"address"}],"outputs":[{"name":"","type":"tuple","internalType":"struct GTokenStaking.LockInfo","components":[{"name":"amount","type":"uint256","internalType":"uint256"},{"name":"lockedAt","type":"uint256","internalType":"uint256"},{"name":"purpose","type":"string","internalType":"string"},{"name":"beneficiary","type":"address","internalType":"address"}]}],"stateMutability":"view"},{"type":"function","name":"getLockedStake","inputs":[{"name":"user","type":"address","internalType":"address"},{"name":"locker","type":"address","internalType":"address"}],"outputs":[{"name":"","type":"uint256","internalType":"uint256"}],"stateMutability":"view"},{"type":"function","name":"getLockerConfig","inputs":[{"name":"locker","type":"address","internalType":"address"}],"outputs":[{"name":"","type":"tuple","internalType":"struct GTokenStaking.LockerConfig","components":[{"name":"authorized","type":"bool","internalType":"bool"},{"name":"baseExitFee","type":"uint256","internalType":"uint256"},{"name":"timeTiers","type":"uint256[]","internalType":"uint256[]"},{"name":"tierFees","type":"uint256[]","internalType":"uint256[]"},{"name":"feeRecipient","type":"address","internalType":"address"}]}],"stateMutability":"view"},{"type":"function","name":"getStakeInfo","inputs":[{"name":"user","type":"address","internalType":"address"}],"outputs":[{"name":"","type":"tuple","internalType":"struct GTokenStaking.StakeInfo","components":[{"name":"amount","type":"uint256","internalType":"uint256"},{"name":"sGTokenShares","type":"uint256","internalType":"uint256"},{"name":"stakedAt","type":"uint256","internalType":"uint256"},{"name":"unstakeRequestedAt","type":"uint256","internalType":"uint256"}]}],"stateMutability":"view"},{"type":"function","name":"getUnstakeTimeRemaining","inputs":[{"name":"user","type":"address","internalType":"address"}],"outputs":[{"name":"remaining","type":"uint256","internalType":"uint256"}],"stateMutability":"view"},{"type":"function","name":"lockStake","inputs":[{"name":"user","type":"address","internalType":"address"},{"name":"amount","type":"uint256","internalType":"uint256"},{"name":"purpose","type":"string","internalType":"string"}],"outputs":[],"stateMutability":"nonpayable"},{"type":"function","name":"lockedBalanceBy","inputs":[{"name":"user","type":"address","internalType":"address"},{"name":"locker","type":"address","internalType":"address"}],"outputs":[{"name":"","type":"uint256","internalType":"uint256"}],"stateMutability":"view"},{"type":"function","name":"lockerConfigs","inputs":[{"name":"","type":"address","internalType":"address"}],"outputs":[{"name":"authorized","type":"bool","internalType":"bool"},{"name":"baseExitFee","type":"uint256","internalType":"uint256"},{"name":"feeRecipient","type":"address","internalType":"address"}],"stateMutability":"view"},{"type":"function","name":"locks","inputs":[{"name":"","type":"address","internalType":"address"},{"name":"","type":"address","internalType":"address"}],"outputs":[{"name":"amount","type":"uint256","internalType":"uint256"},{"name":"lockedAt","type":"uint256","internalType":"uint256"},{"name":"purpose","type":"string","internalType":"string"},{"name":"beneficiary","type":"address","internalType":"address"}],"stateMutability":"view"},{"type":"function","name":"owner","inputs":[],"outputs":[{"name":"","type":"address","internalType":"address"}],"stateMutability":"view"},{"type":"function","name":"previewExitFee","inputs":[{"name":"user","type":"address","internalType":"address"},{"name":"locker","type":"address","internalType":"address"}],"outputs":[{"name":"fee","type":"uint256","internalType":"uint256"},{"name":"netAmount","type":"uint256","internalType":"uint256"}],"stateMutability":"view"},{"type":"function","name":"renounceOwnership","inputs":[],"outputs":[],"stateMutability":"nonpayable"},{"type":"function","name":"requestUnstake","inputs":[],"outputs":[],"stateMutability":"nonpayable"},{"type":"function","name":"setTreasury","inputs":[{"name":"newTreasury","type":"address","internalType":"address"}],"outputs":[],"stateMutability":"nonpayable"},{"type":"function","name":"sharesToGToken","inputs":[{"name":"shares","type":"uint256","internalType":"uint256"}],"outputs":[{"name":"","type":"uint256","internalType":"uint256"}],"stateMutability":"view"},{"type":"function","name":"slash","inputs":[{"name":"user","type":"address","internalType":"address"},{"name":"amount","type":"uint256","internalType":"uint256"},{"name":"reason","type":"string","internalType":"string"}],"outputs":[{"name":"slashedAmount","type":"uint256","internalType":"uint256"}],"stateMutability":"nonpayable"},{"type":"function","name":"stake","inputs":[{"name":"amount","type":"uint256","internalType":"uint256"}],"outputs":[{"name":"shares","type":"uint256","internalType":"uint256"}],"stateMutability":"nonpayable"},{"type":"function","name":"stakes","inputs":[{"name":"","type":"address","internalType":"address"}],"outputs":[{"name":"amount","type":"uint256","internalType":"uint256"},{"name":"sGTokenShares","type":"uint256","internalType":"uint256"},{"name":"stakedAt","type":"uint256","internalType":"uint256"},{"name":"unstakeRequestedAt","type":"uint256","internalType":"uint256"}],"stateMutability":"view"},{"type":"function","name":"totalLocked","inputs":[{"name":"","type":"address","internalType":"address"}],"outputs":[{"name":"","type":"uint256","internalType":"uint256"}],"stateMutability":"view"},{"type":"function","name":"totalShares","inputs":[],"outputs":[{"name":"","type":"uint256","internalType":"uint256"}],"stateMutability":"view"},{"type":"function","name":"totalSlashed","inputs":[],"outputs":[{"name":"","type":"uint256","internalType":"uint256"}],"stateMutability":"view"},{"type":"function","name":"totalStaked","inputs":[],"outputs":[{"name":"","type":"uint256","internalType":"uint256"}],"stateMutability":"view"},{"type":"function","name":"transferOwnership","inputs":[{"name":"newOwner","type":"address","internalType":"address"}],"outputs":[],"stateMutability":"nonpayable"},{"type":"function","name":"treasury","inputs":[],"outputs":[{"name":"","type":"address","internalType":"address"}],"stateMutability":"view"},{"type":"function","name":"unlockStake","inputs":[{"name":"user","type":"address","internalType":"address"},{"name":"grossAmount","type":"uint256","internalType":"uint256"}],"outputs":[{"name":"netAmount","type":"uint256","internalType":"uint256"}],"stateMutability":"nonpayable"},{"type":"function","name":"unstake","inputs":[],"outputs":[],"stateMutability":"nonpayable"},{"type":"event","name":"LockerConfigured","inputs":[{"name":"locker","type":"address","indexed":true,"internalType":"address"},{"name":"authorized","type":"bool","indexed":false,"internalType":"bool"},{"name":"baseExitFee","type":"uint256","indexed":false,"internalType":"uint256"},{"name":"timeTiers","type":"uint256[]","indexed":false,"internalType":"uint256[]"},{"name":"tierFees","type":"uint256[]","indexed":false,"internalType":"uint256[]"},{"name":"feeRecipient","type":"address","indexed":false,"internalType":"address"}],"anonymous":false},{"type":"event","name":"OwnershipTransferred","inputs":[{"name":"previousOwner","type":"address","indexed":true,"internalType":"address"},{"name":"newOwner","type":"address","indexed":true,"internalType":"address"}],"anonymous":false},{"type":"event","name":"Slashed","inputs":[{"name":"operator","type":"address","indexed":true,"internalType":"address"},{"name":"amount","type":"uint256","indexed":false,"internalType":"uint256"},{"name":"reason","type":"string","indexed":false,"internalType":"string"},{"name":"timestamp","type":"uint256","indexed":false,"internalType":"uint256"}],"anonymous":false},{"type":"event","name":"SlasherAuthorized","inputs":[{"name":"slasher","type":"address","indexed":true,"internalType":"address"},{"name":"authorized","type":"bool","indexed":false,"internalType":"bool"}],"anonymous":false},{"type":"event","name":"StakeLocked","inputs":[{"name":"user","type":"address","indexed":true,"internalType":"address"},{"name":"locker","type":"address","indexed":true,"internalType":"address"},{"name":"amount","type":"uint256","indexed":false,"internalType":"uint256"},{"name":"purpose","type":"string","indexed":false,"internalType":"string"}],"anonymous":false},{"type":"event","name":"StakeSlashed","inputs":[{"name":"user","type":"address","indexed":true,"internalType":"address"},{"name":"slasher","type":"address","indexed":true,"internalType":"address"},{"name":"amount","type":"uint256","indexed":false,"internalType":"uint256"},{"name":"reason","type":"string","indexed":false,"internalType":"string"},{"name":"timestamp","type":"uint256","indexed":false,"internalType":"uint256"}],"anonymous":false},{"type":"event","name":"StakeUnlocked","inputs":[{"name":"user","type":"address","indexed":true,"internalType":"address"},{"name":"locker","type":"address","indexed":true,"internalType":"address"},{"name":"grossAmount","type":"uint256","indexed":false,"internalType":"uint256"},{"name":"exitFee","type":"uint256","indexed":false,"internalType":"uint256"},{"name":"netAmount","type":"uint256","indexed":false,"internalType":"uint256"}],"anonymous":false},{"type":"event","name":"Staked","inputs":[{"name":"user","type":"address","indexed":true,"internalType":"address"},{"name":"amount","type":"uint256","indexed":false,"internalType":"uint256"},{"name":"shares","type":"uint256","indexed":false,"internalType":"uint256"},{"name":"timestamp","type":"uint256","indexed":false,"internalType":"uint256"}],"anonymous":false},{"type":"event","name":"TreasuryUpdated","inputs":[{"name":"oldTreasury","type":"address","indexed":true,"internalType":"address"},{"name":"newTreasury","type":"address","indexed":true,"internalType":"address"}],"anonymous":false},{"type":"event","name":"UnstakeRequested","inputs":[{"name":"user","type":"address","indexed":true,"internalType":"address"},{"name":"requestTime","type":"uint256","indexed":false,"internalType":"uint256"}],"anonymous":false},{"type":"event","name":"Unstaked","inputs":[{"name":"user","type":"address","indexed":true,"internalType":"address"},{"name":"originalAmount","type":"uint256","indexed":false,"internalType":"uint256"},{"name":"actualAmount","type":"uint256","indexed":false,"internalType":"uint256"},{"name":"timestamp","type":"uint256","indexed":false,"internalType":"uint256"}],"anonymous":false},{"type":"error","name":"AlreadyStaked","inputs":[{"name":"user","type":"address","internalType":"address"}]},{"type":"error","name":"BelowMinimumStake","inputs":[{"name":"amount","type":"uint256","internalType":"uint256"},{"name":"minimum","type":"uint256","internalType":"uint256"}]},{"type":"error","name":"ExitFeeTooHigh","inputs":[{"name":"fee","type":"uint256","internalType":"uint256"},{"name":"amount","type":"uint256","internalType":"uint256"}]},{"type":"error","name":"InsufficientAvailableBalance","inputs":[{"name":"available","type":"uint256","internalType":"uint256"},{"name":"required","type":"uint256","internalType":"uint256"}]},{"type":"error","name":"InsufficientLockedAmount","inputs":[{"name":"locked","type":"uint256","internalType":"uint256"},{"name":"required","type":"uint256","internalType":"uint256"}]},{"type":"error","name":"InvalidAddress","inputs":[{"name":"addr","type":"address","internalType":"address"}]},{"type":"error","name":"InvalidFeeRecipient","inputs":[]},{"type":"error","name":"InvalidTierConfig","inputs":[]},{"type":"error","name":"NoStakeFound","inputs":[{"name":"user","type":"address","internalType":"address"}]},{"type":"error","name":"OwnableInvalidOwner","inputs":[{"name":"owner","type":"address","internalType":"address"}]},{"type":"error","name":"OwnableUnauthorizedAccount","inputs":[{"name":"account","type":"address","internalType":"address"}]},{"type":"error","name":"SafeERC20FailedOperation","inputs":[{"name":"token","type":"address","internalType":"address"}]},{"type":"error","name":"SlashAmountExceedsBalance","inputs":[{"name":"amount","type":"uint256","internalType":"uint256"},{"name":"balance","type":"uint256","internalType":"uint256"}]},{"type":"error","name":"StakeIsLocked","inputs":[{"name":"user","type":"address","internalType":"address"},{"name":"lockedAmount","type":"uint256","internalType":"uint256"}]},{"type":"error","name":"UnauthorizedLocker","inputs":[{"name":"caller","type":"address","internalType":"address"}]},{"type":"error","name":"UnauthorizedSlasher","inputs":[{"name":"caller","type":"address","internalType":"address"}]},{"type":"error","name":"UnstakeDelayNotPassed","inputs":[{"name":"remainingTime","type":"uint256","internalType":"uint256"}]},{"type":"error","name":"UnstakeNotRequested","inputs":[{"name":"user","type":"address","internalType":"address"}]}],"bytecode":{"object":"0x60a0346100f857601f612d0438819003918201601f19168301916001600160401b038311848410176100fc578084926020946040528339810103126100f857516001600160a01b038116908181036100f85733156100e5575f8054336001600160a01b0319821681178355604051949290916001600160a01b0316907f8be0079c531659141344cd1fd0a4f28419497f9722a3daafe3b4186f6b6457e09080a380156100d35750608052612bf39081610111823960805181818161099001528181610e0e015281816114a50152611a900152f35b634726455360e11b5f5260045260245ffd5b631e4fbdf760e01b5f525f60045260245ffd5b5f80fd5b634e487b7160e01b5f52604160045260245ffdfe6080806040526004361015610012575f80fd5b5f3560e01c908163061c9040146120435750806311ce17c914611fae57806316934fc414611f1d5780631720af7014611b7e5780631c0b5cd8146118155780632def66201461195457806332d5a2e3146118555780633a98ef391461181a5780633ec161941461181557806361d027b3146117c4578063678b3ee21461169557806367e66d75146116595780636b4169c3146115a457806370a0823114611563578063715018a6146114c95780637f6b337b1461145b578063817b1cd2146114205780638da5cb5b146113d05780638e89dc211461131d578063962276a714610eef578063965af6c714610c11578063a0821be314610bd0578063a201bbdd14610b95578063a694fc3a14610925578063aed2d908146108bd578063b36994011461087c578063c05f6155146107a0578063c3453153146106d6578063cb1c2b5c14610697578063d8fb933714610634578063dd2368c914610449578063e35e5d84146105f9578063e83477ed146104a0578063e8bd8f4e1461044e578063eaf1ae0e14610449578063f0f442601461035c578063f2fde38b146102705763fc63958e146101be575f80fd5b3461026c575f7ffffffffffffffffffffffffffffffffffffffffffffffffffffffffffffffffc36011261026c57335f526001602052600160405f2001541561024057335f52600160205242600360405f2001556040514281527f828764c21e74c28710e19919735825aba966621c95cbd913f8ed65a2d298f48c60203392a2005b7fcc1a1648000000000000000000000000000000000000000000000000000000005f523360045260245ffd5b5f80fd5b3461026c5760207ffffffffffffffffffffffffffffffffffffffffffffffffffffffffffffffffc36011261026c5773ffffffffffffffffffffffffffffffffffffffff6102bc61216c565b6102c4612b71565b1680156103305773ffffffffffffffffffffffffffffffffffffffff5f54827fffffffffffffffffffffffff00000000000000000000000000000000000000008216175f55167f8be0079c531659141344cd1fd0a4f28419497f9722a3daafe3b4186f6b6457e05f80a3005b7f1e4fbdf7000000000000000000000000000000000000000000000000000000005f525f60045260245ffd5b3461026c5760207ffffffffffffffffffffffffffffffffffffffffffffffffffffffffffffffffc36011261026c5773ffffffffffffffffffffffffffffffffffffffff6103a861216c565b6103b0612b71565b16801561041e5773ffffffffffffffffffffffffffffffffffffffff600954827fffffffffffffffffffffffff0000000000000000000000000000000000000000821617600955167f4ab5be82436d353e61ca18726e984e561f5c1cc7c6d38b29d2553c790434705a5f80a3005b7f8e4c8aa6000000000000000000000000000000000000000000000000000000005f5260045260245ffd5b6124d2565b3461026c5760407ffffffffffffffffffffffffffffffffffffffffffffffffffffffffffffffffc36011261026c57602061049861048a61216c565b61049261218f565b90612933565b604051908152f35b3461026c5760207ffffffffffffffffffffffffffffffffffffffffffffffffffffffffffffffffc36011261026c5773ffffffffffffffffffffffffffffffffffffffff6104ec61216c565b5f60806040516104fb81612211565b828152826020820152606060408201526060808201520152165f52600460205260405f2060405161052b81612211565b60ff825416151581526001820154916020820192835273ffffffffffffffffffffffffffffffffffffffff6105ed61056560028401612591565b92604085019384526105bc83600461057f60038501612591565b936060890194855201541694608087019586526040519788976020895251151560208901525160408801525160a0606088015260c087019061255e565b90517fffffffffffffffffffffffffffffffffffffffffffffffffffffffffffffffe086830301608087015261255e565b91511660a08301520390f35b3461026c575f7ffffffffffffffffffffffffffffffffffffffffffffffffffffffffffffffffc36011261026c57602060405162093a808152f35b3461026c5760207ffffffffffffffffffffffffffffffffffffffffffffffffffffffffffffffffc36011261026c5773ffffffffffffffffffffffffffffffffffffffff61068061216c565b165f526003602052602060405f2054604051908152f35b3461026c575f7ffffffffffffffffffffffffffffffffffffffffffffffffffffffffffffffffc36011261026c576020604051662386f26fc100008152f35b3461026c5760207ffffffffffffffffffffffffffffffffffffffffffffffffffffffffffffffffc36011261026c5773ffffffffffffffffffffffffffffffffffffffff61072261216c565b5f6060604051610731816121f5565b8281528260208201528260408201520152165f526001602052608060405f2060405161075c816121f5565b815491828252600181015460208301908152606060036002840154936040860194855201549301928352604051938452516020840152516040830152516060820152f35b3461026c5760407ffffffffffffffffffffffffffffffffffffffffffffffffffffffffffffffffc36011261026c576107d761216c565b73ffffffffffffffffffffffffffffffffffffffff6107f461218f565b91165f52600260205273ffffffffffffffffffffffffffffffffffffffff60405f2091165f5260205260405f20805460018201549161087273ffffffffffffffffffffffffffffffffffffffff600361084f60028501612414565b9301541691604051948594855260208501526080604085015260808401906121b2565b9060608301520390f35b3461026c5760207ffffffffffffffffffffffffffffffffffffffffffffffffffffffffffffffffc36011261026c5760206104986108b861216c565b61287c565b3461026c5760207ffffffffffffffffffffffffffffffffffffffffffffffffffffffffffffffffc36011261026c5773ffffffffffffffffffffffffffffffffffffffff61090961216c565b165f526008602052602060ff60405f2054166040519015158152f35b3461026c5760207ffffffffffffffffffffffffffffffffffffffffffffffffffffffffffffffffc36011261026c57600435662386f26fc100008110610b5f57335f526001602052600160405f200154610b335773ffffffffffffffffffffffffffffffffffffffff7f000000000000000000000000000000000000000000000000000000000000000016906040517f23b872dd000000000000000000000000000000000000000000000000000000005f5233600452306024528160445260205f60648180875af19060015f5114821615610b12575b6040525f60605215610ae65760209060075480155f14610abe5750805b604051610a24816121f5565b81815260038482018481526040830142815260608401915f8352335f526001885260405f209451855551600185015551600284015551910155610a69816005546125d9565b600555610a78826007546125d9565b6007556040805191825260208201839052429082015233907fb4caaf29adda3eefee3ad552a8e85058589bf834c7466cae4ee58787f70589ed90606090a2604051908152f35b610acb610ae091836125fc565b610ada6005546006549061260f565b9061261c565b90610a18565b507f5274afe7000000000000000000000000000000000000000000000000000000005f5260045260245ffd5b906001811516610b2a57833b15153d151616906109fb565b503d5f823e3d90fd5b7f0c45c8ec000000000000000000000000000000000000000000000000000000005f523360045260245ffd5b7f06a35408000000000000000000000000000000000000000000000000000000005f52600452662386f26fc1000060245260445ffd5b3461026c575f7ffffffffffffffffffffffffffffffffffffffffffffffffffffffffffffffffc36011261026c576020600654604051908152f35b3461026c5760207ffffffffffffffffffffffffffffffffffffffffffffffffffffffffffffffffc36011261026c576020610498610c0c61216c565b61280c565b3461026c5760407ffffffffffffffffffffffffffffffffffffffffffffffffffffffffffffffffc36011261026c57610c4861216c565b6024359073ffffffffffffffffffffffffffffffffffffffff811691825f52600260205260405f2073ffffffffffffffffffffffffffffffffffffffff33165f5260205260405f2092835492828410610ebf57610ca59033612933565b9382851015610e8f57610cc283610cbc878261260f565b9561260f565b9055805f52600360205260405f20610cdb83825461260f565b905583610d2d575b60408051928352602083810195909552820183905233917fbd2c92e9545442bc8234f21592c7e8aa0dceb32c7dd38030f185ca35a38dd5979080606081015b0390a3604051908152f35b335f526004602052608060405f2073ffffffffffffffffffffffffffffffffffffffff600460405192610d5f84612211565b60ff8154161515845260018101546020850152610d7e60028201612591565b6040850152610d8f60038201612591565b606085015201541691018190528015610e6f57935b73ffffffffffffffffffffffffffffffffffffffff851615610e47578381610e3b602097610e33610df57fbd2c92e9545442bc8234f21592c7e8aa0dceb32c7dd38030f185ca35a38dd59796612692565b809273ffffffffffffffffffffffffffffffffffffffff7f000000000000000000000000000000000000000000000000000000000000000016612ab0565b60055461260f565b60055595505050610ce3565b7f768dc598000000000000000000000000000000000000000000000000000000005f5260045ffd5b5073ffffffffffffffffffffffffffffffffffffffff6009541693610da4565b82857f20a3069e000000000000000000000000000000000000000000000000000000005f5260045260245260445ffd5b82847f1e657b2d000000000000000000000000000000000000000000000000000000005f5260045260245260445ffd5b3461026c5760c07ffffffffffffffffffffffffffffffffffffffffffffffffffffffffffffffffc36011261026c57610f2661216c565b610f2e612383565b9060443560643567ffffffffffffffff811161026c57610f52903690600401612392565b909260843567ffffffffffffffff811161026c57610f74903690600401612392565b60a4359273ffffffffffffffffffffffffffffffffffffffff841680940361026c5773ffffffffffffffffffffffffffffffffffffffff90610fb4612b71565b169586156112f1578461122b575b60405197610fcf89612211565b1515948589526020890198878a52610fe8368385612779565b99604082019a8b52610ffb368688612779565b9a606083019b8c5260808301918883528b5f52600460205261104f60405f2094511515859060ff7fffffffffffffffffffffffffffffffffffffffffffffffffffffffffffffff0083541691151516179055565b51600184015551805190600284019067ffffffffffffffff83116111cf576801000000000000000083116111cf576020908254848455808510611210575b5001905f5260205f205f5b8381106111fc5750505050600382019a5180519067ffffffffffffffff82116111cf576801000000000000000082116111cf576020908d80548482558085106111b4575b5050019b5f5260205f209b5f905b8282106111a0575050507f66877f4d53b478ebc114d551b1d87e1ef6f28167dd890ec9a5605038a0908e44999a50916111959594939173ffffffffffffffffffffffffffffffffffffffff600481611187965116920191167fffffffffffffffffffffffff00000000000000000000000000000000000000008254161790556040519889988952602089015260a0604089015260a08801916127cf565b9185830360608701526127cf565b9060808301520390a2005b80518e8301556001909101906020016110ea565b6111c8915f5284845f2091820191016125e6565b8d8f6110dc565b7f4e487b71000000000000000000000000000000000000000000000000000000005f52604160045260245ffd5b600190602084519401938184015501611098565b61122590845f5285845f2091820191016125e6565b8f61108d565b600185018086116112c457820361129c5760015b85811061124c5750610fc2565b61125781878461273c565b357fffffffffffffffffffffffffffffffffffffffffffffffffffffffffffffffff82018281116112c45761128d90888561273c565b35101561129c5760010161123f565b7f9100d347000000000000000000000000000000000000000000000000000000005f5260045ffd5b7f4e487b71000000000000000000000000000000000000000000000000000000005f52601160045260245ffd5b867f8e4c8aa6000000000000000000000000000000000000000000000000000000005f5260045260245ffd5b3461026c5760407ffffffffffffffffffffffffffffffffffffffffffffffffffffffffffffffffc36011261026c57604061135661216c565b6113a961136161218f565b9173ffffffffffffffffffffffffffffffffffffffff81165f526002602052835f2073ffffffffffffffffffffffffffffffffffffffff84165f52602052835f205492612933565b9081808211156113c8576113bc9161260f565b82519182526020820152f35b50505f6113bc565b3461026c575f7ffffffffffffffffffffffffffffffffffffffffffffffffffffffffffffffffc36011261026c57602073ffffffffffffffffffffffffffffffffffffffff5f5416604051908152f35b3461026c575f7ffffffffffffffffffffffffffffffffffffffffffffffffffffffffffffffffc36011261026c576020600554604051908152f35b3461026c575f7ffffffffffffffffffffffffffffffffffffffffffffffffffffffffffffffffc36011261026c57602060405173ffffffffffffffffffffffffffffffffffffffff7f0000000000000000000000000000000000000000000000000000000000000000168152f35b3461026c575f7ffffffffffffffffffffffffffffffffffffffffffffffffffffffffffffffffc36011261026c576114ff612b71565b5f73ffffffffffffffffffffffffffffffffffffffff81547fffffffffffffffffffffffff000000000000000000000000000000000000000081168355167f8be0079c531659141344cd1fd0a4f28419497f9722a3daafe3b4186f6b6457e08280a3005b3461026c5760207ffffffffffffffffffffffffffffffffffffffffffffffffffffffffffffffffc36011261026c57602061049861159f61216c565b6126c2565b3461026c575f7ffffffffffffffffffffffffffffffffffffffffffffffffffffffffffffffffc36011261026c576005546006546007549091908015611646576115ee838361260f565b90670de0b6b3a7640000820291808304670de0b6b3a764000014901517156112c45761161d816116429361261c565b905b604051948594859094939260609260808301968352602083015260408201520152565b0390f35b61164290670de0b6b3a76400009061161f565b3461026c5760207ffffffffffffffffffffffffffffffffffffffffffffffffffffffffffffffffc36011261026c576020610498600435612692565b3461026c576116a33661226e565b335f52600860205260ff60405f20541615611798576116c1836126c2565b808311156117925780925b831561176457505073ffffffffffffffffffffffffffffffffffffffff6020936116f8846006546125d9565b60065516807f733600d662f803775adfe53e1702a60cfdf58d303b5da43e498aa6dc4427c31c6040518061172e42878984612670565b0390a27fadb9a49340a01a0b9f401b8850a1f6428e94caed400a41942f42d27e5c9921db60405180610d22339542908884612670565b7f8706f338000000000000000000000000000000000000000000000000000000005f5260045260245260445ffd5b826116cc565b7fbedf7052000000000000000000000000000000000000000000000000000000005f523360045260245ffd5b3461026c575f7ffffffffffffffffffffffffffffffffffffffffffffffffffffffffffffffffc36011261026c57602073ffffffffffffffffffffffffffffffffffffffff60095416604051908152f35b612347565b3461026c575f7ffffffffffffffffffffffffffffffffffffffffffffffffffffffffffffffffc36011261026c576020600754604051908152f35b3461026c5760407ffffffffffffffffffffffffffffffffffffffffffffffffffffffffffffffffc36011261026c5761188c61216c565b73ffffffffffffffffffffffffffffffffffffffff6118a9612383565b916118b2612b71565b169081156119285760207f07279e33951aa6ce64c70a4d6e3d46ff5995b1d4a523613765b05fd9aed2a40b91835f526008825261191d8160405f209060ff7fffffffffffffffffffffffffffffffffffffffffffffffffffffffffffffff0083541691151516179055565b6040519015158152a2005b507f8e4c8aa6000000000000000000000000000000000000000000000000000000005f5260045260245ffd5b3461026c575f7ffffffffffffffffffffffffffffffffffffffffffffffffffffffffffffffffc36011261026c57335f52600160205260405f2060405161199a816121f5565b81548152600360018301549260208301938452600281015460408401520154606082019080825215611b52576119d190514261260f565b62093a808110611b185750335f52600360205260405f2054611adc57611ad77f204fccf0d92ed8d48f204adb39b2e81e92bad0dedb93f5716ca9478cfb57de0091611a51611a1e336126c2565b94611a2c835160055461260f565b600555611a45611a3d87855161260f565b60065461260f565b6006555160075461260f565b600755335f5260016020525f6003604082208281558260018201558260028201550155611ab5843373ffffffffffffffffffffffffffffffffffffffff7f000000000000000000000000000000000000000000000000000000000000000016612ab0565b5160405191829133954291846040919493926060820195825260208201520152565b0390a2005b335f52600360205260405f20547f3bdf1f51000000000000000000000000000000000000000000000000000000005f523360045260245260445ffd5b62093a800362093a8081116112c4577ff8717df9000000000000000000000000000000000000000000000000000000005f5260045260245ffd5b7f4d2cd7c8000000000000000000000000000000000000000000000000000000005f523360045260245ffd5b3461026c57611b8c3661226e565b91335f52600460205260405f2073ffffffffffffffffffffffffffffffffffffffff600460405192611bbd84612211565b60ff8154161515845260018101546020850152611bdc60028201612591565b6040850152611bed60038201612591565b606085015201541660808201525115611ef157611c098161280c565b828110611ec1575073ffffffffffffffffffffffffffffffffffffffff1690815f52600260205260405f2073ffffffffffffffffffffffffffffffffffffffff33165f5260205260405f20611c5f8282546125d9565b90555f828152600260208181526040808420338552909152909120426001820155845191019067ffffffffffffffff81116111cf57611c9e82546123c3565b601f8111611e86575b506020601f8211600114611dc65790807fe9785bd15e30b64383450cfa478cc401c5e85ff8af192673e392f168df4206789493925f91611dbb575b507fffffffffffffffffffffffffffffffffffffffffffffffffffffffffffffffff8260011b9260031b1c19161790555b825f52600260205260405f2073ffffffffffffffffffffffffffffffffffffffff33165f52602052600360405f200173ffffffffffffffffffffffffffffffffffffffff33167fffffffffffffffffffffffff0000000000000000000000000000000000000000825416179055825f52600360205260405f20611d978282546125d9565b90556040519081526040602082015280611db6339560408301906121b2565b0390a3005b905086015187611ce2565b7fffffffffffffffffffffffffffffffffffffffffffffffffffffffffffffffe0821690835f52805f20915f5b818110611e6e57509183917fe9785bd15e30b64383450cfa478cc401c5e85ff8af192673e392f168df42067896959460019410611e37575b5050811b019055611d13565b8801517fffffffffffffffffffffffffffffffffffffffffffffffffffffffffffffffff60f88460031b161c191690558780611e2b565b9192602060018192868c015181550194019201611df3565b611eb190835f5260205f20601f840160051c81019160208510611eb7575b601f0160051c01906125e6565b85611ca7565b9091508190611ea4565b90507fadb9e043000000000000000000000000000000000000000000000000000000005f5260045260245260445ffd5b7f04d95544000000000000000000000000000000000000000000000000000000005f523360045260245ffd5b3461026c5760207ffffffffffffffffffffffffffffffffffffffffffffffffffffffffffffffffc36011261026c5773ffffffffffffffffffffffffffffffffffffffff611f6961216c565b165f52600160205260405f2080546116426001830154926003600282015491015490604051948594859094939260609260808301968352602083015260408201520152565b3461026c5760207ffffffffffffffffffffffffffffffffffffffffffffffffffffffffffffffffc36011261026c5773ffffffffffffffffffffffffffffffffffffffff611ffa61216c565b165f526004602052606060405f2060ff8154169073ffffffffffffffffffffffffffffffffffffffff600460018301549201541690604051921515835260208301526040820152f35b3461026c5760407ffffffffffffffffffffffffffffffffffffffffffffffffffffffffffffffffc36011261026c5773ffffffffffffffffffffffffffffffffffffffff61208f61216c565b5f606061209a61218f565b946120a4816121f5565b8281528260208201528160408201520152165f52600260205273ffffffffffffffffffffffffffffffffffffffff60405f2091165f5260205260405f206040516120ed816121f5565b815481526001820154916020820192835273ffffffffffffffffffffffffffffffffffffffff61216081600361212560028601612414565b9460408701958652015416926060850193845260405195869560208752516020870152516040860152516080606086015260a08501906121b2565b91511660808301520390f35b6004359073ffffffffffffffffffffffffffffffffffffffff8216820361026c57565b6024359073ffffffffffffffffffffffffffffffffffffffff8216820361026c57565b907fffffffffffffffffffffffffffffffffffffffffffffffffffffffffffffffe0601f602080948051918291828752018686015e5f8582860101520116010190565b6080810190811067ffffffffffffffff8211176111cf57604052565b60a0810190811067ffffffffffffffff8211176111cf57604052565b90601f7fffffffffffffffffffffffffffffffffffffffffffffffffffffffffffffffe0910116810190811067ffffffffffffffff8211176111cf57604052565b60607ffffffffffffffffffffffffffffffffffffffffffffffffffffffffffffffffc82011261026c5760043573ffffffffffffffffffffffffffffffffffffffff8116810361026c57916024359160443567ffffffffffffffff811161026c578160238201121561026c5780600401359067ffffffffffffffff82116111cf576040519261232560207fffffffffffffffffffffffffffffffffffffffffffffffffffffffffffffffe0601f860116018561222d565b8284526024838301011161026c57815f92602460209301838601378301015290565b3461026c5760207ffffffffffffffffffffffffffffffffffffffffffffffffffffffffffffffffc36011261026c576020610498600435612653565b60243590811515820361026c57565b9181601f8401121561026c5782359167ffffffffffffffff831161026c576020808501948460051b01011161026c57565b90600182811c9216801561240a575b60208310146123dd57565b7f4e487b71000000000000000000000000000000000000000000000000000000005f52602260045260245ffd5b91607f16916123d2565b9060405191825f825492612427846123c3565b8084529360018116908115612492575060011461244e575b5061244c9250038361222d565b565b90505f9291925260205f20905f915b81831061247657505090602061244c928201015f61243f565b602091935080600191548385890101520191019091849261245d565b6020935061244c9592507fffffffffffffffffffffffffffffffffffffffffffffffffffffffffffffff0091501682840152151560051b8201015f61243f565b3461026c5760407ffffffffffffffffffffffffffffffffffffffffffffffffffffffffffffffffc36011261026c5761250961216c565b73ffffffffffffffffffffffffffffffffffffffff61252661218f565b91165f52600260205273ffffffffffffffffffffffffffffffffffffffff60405f2091165f52602052602060405f2054604051908152f35b90602080835192838152019201905f5b81811061257b5750505090565b825184526020938401939092019160010161256e565b90604051918281549182825260208201905f5260205f20925f5b8181106125c057505061244c9250038361222d565b84548352600194850194879450602090930192016125ab565b919082018092116112c457565b8181106125f1575050565b5f81556001016125e6565b818102929181159184041417156112c457565b919082039182116112c457565b8115612626570490565b7f4e487b71000000000000000000000000000000000000000000000000000000005f52601260045260245ffd5b600754801561266c57610acb90612669926125fc565b90565b5090565b93929161268d9060409286526060602087015260608601906121b2565b930152565b60075480156126bc576126b7612669926126b16005546006549061260f565b906125fc565b61261c565b50505f90565b73ffffffffffffffffffffffffffffffffffffffff165f52600160205260405f206040516126ef816121f5565b815481526060600360018401549384602085015260028101546040850152015491015280156127375761272e612669916126b16005546006549061260f565b6007549061261c565b505f90565b919081101561274c5760051b0190565b7f4e487b71000000000000000000000000000000000000000000000000000000005f52603260045260245ffd5b9291909267ffffffffffffffff84116111cf578360051b9060206040516127a28285018261222d565b809681520191810192831161026c57905b8282106127bf57505050565b81358152602091820191016127b3565b90918281527f07ffffffffffffffffffffffffffffffffffffffffffffffffffffffffffffff831161026c5760209260051b809284830137010190565b73ffffffffffffffffffffffffffffffffffffffff16805f52600160205260405f209060405161283b816121f5565b82548152606060036001850154948560208501526002810154604085015201549101525f52600360205260405f20548082115f146126bc576126699161260f565b73ffffffffffffffffffffffffffffffffffffffff165f526001602052606060405f206003604051916128ae836121f5565b8054835260018101546020840152600281015460408401520154918291015280156128fa576128dd904261260f565b62093a808110156127375762093a800362093a8081116112c45790565b507fffffffffffffffffffffffffffffffffffffffffffffffffffffffffffffffff90565b805182101561274c5760209160051b010190565b9073ffffffffffffffffffffffffffffffffffffffff82165f52600460205260405f20906040519261296484612211565b60ff8354161515845273ffffffffffffffffffffffffffffffffffffffff6001840154926020860193845261299b60028601612591565b956040810196875260808360046129b460038a01612591565b9860608501998a52015416910152165f52600260205273ffffffffffffffffffffffffffffffffffffffff60405f2091165f5260205260405f20906040516129fb816121f5565b8254815273ffffffffffffffffffffffffffffffffffffffff600360018501549460208401958652612a2f60028201612414565b604085015201541660608201525115612aa85783515115612aa05750612a5690514261260f565b5f5b83518051821015612a8e5781612a6d9161291f565b518210612a7c57600101612a58565b919050612a8a92505161291f565b5190565b50505090612a8a91519051519061291f565b925050505190565b505050505f90565b9173ffffffffffffffffffffffffffffffffffffffff604051927fa9059cbb000000000000000000000000000000000000000000000000000000005f521660045260245260205f60448180865af19060015f5114821615612b59575b60405215612b175750565b73ffffffffffffffffffffffffffffffffffffffff907f5274afe7000000000000000000000000000000000000000000000000000000005f521660045260245ffd5b906001811516610b2a57823b15153d15161690612b0c565b73ffffffffffffffffffffffffffffffffffffffff5f54163303612b9157565b7f118cdaa7000000000000000000000000000000000000000000000000000000005f523360045260245ffdfea2646970667358221220ac175c4d40cd7740361e7a21289653048331e26a854dd0e26b32bbf20711fb8364736f6c634300081c0033","linkReferences":{}},"methodIdentifiers":{"GTOKEN()":"7f6b337b","MIN_STAKE()":"cb1c2b5c","UNSTAKE_DELAY()":"e35e5d84","authorizeSlasher(address,bool)":"32d5a2e3","authorizedSlashers(address)":"aed2d908","availableBalance(address)":"a0821be3","balanceOf(address)":"70a08231","calculateExitFee(address,address)":"e8bd8f4e","calculateShares(uint256)":"3ec16194","configureLocker(address,bool,uint256,uint256[],uint256[],address)":"962276a7","gTokenToShares(uint256)":"1c0b5cd8","getGlobalStats()":"6b4169c3","getLockInfo(address,address)":"061c9040","getLockedStake(address,address)":"dd2368c9","getLockerConfig(address)":"e83477ed","getStakeInfo(address)":"c3453153","getUnstakeTimeRemaining(address)":"b3699401","lockStake(address,uint256,string)":"1720af70","lockedBalanceBy(address,address)":"eaf1ae0e","lockerConfigs(address)":"11ce17c9","locks(address,address)":"c05f6155","owner()":"8da5cb5b","previewExitFee(address,address)":"8e89dc21","renounceOwnership()":"715018a6","requestUnstake()":"fc63958e","setTreasury(address)":"f0f44260","sharesToGToken(uint256)":"67e66d75","slash(address,uint256,string)":"678b3ee2","stake(uint256)":"a694fc3a","stakes(address)":"16934fc4","totalLocked(address)":"d8fb9337","totalShares()":"3a98ef39","totalSlashed()":"a201bbdd","totalStaked()":"817b1cd2","transferOwnership(address)":"f2fde38b","treasury()":"61d027b3","unlockStake(address,uint256)":"965af6c7","unstake()":"2def6620"},"id":213}