{"abi":[{"type":"constructor","inputs":[{"name":"_entryPoint","type":"address","internalType":"address"},{"name":"_owner","type":"address","internalType":"address"},{"name":"_treasury","type":"address","internalType":"address"},{"name":"_ethUsdPriceFeed","type":"address","internalType":"address"},{"name":"_serviceFeeRate","type":"uint256","internalType":"uint256"},{"name":"_maxGasCostCap","type":"uint256","internalType":"uint256"},{"name":"_minTokenBalance","type":"uint256","internalType":"uint256"},{"name":"_initialSBT","type":"address","internalType":"address"},{"name":"_initialGasToken","type":"address","internalType":"address"},{"name":"_registry","type":"address","internalType":"address"}],"stateMutability":"nonpayable"},{"type":"receive","stateMutability":"payable"},{"type":"function","name":"MAX_GAS_TOKENS","inputs":[],"outputs":[{"name":"","type":"uint256","internalType":"uint256"}],"stateMutability":"view"},{"type":"function","name":"MAX_SBTS","inputs":[],"outputs":[{"name":"","type":"uint256","internalType":"uint256"}],"stateMutability":"view"},{"type":"function","name":"MAX_SERVICE_FEE","inputs":[],"outputs":[{"name":"","type":"uint256","internalType":"uint256"}],"stateMutability":"view"},{"type":"function","name":"VERSION","inputs":[],"outputs":[{"name":"","type":"string","internalType":"string"}],"stateMutability":"view"},{"type":"function","name":"addDeposit","inputs":[],"outputs":[],"stateMutability":"payable"},{"type":"function","name":"addGasToken","inputs":[{"name":"token","type":"address","internalType":"address"}],"outputs":[],"stateMutability":"nonpayable"},{"type":"function","name":"addSBT","inputs":[{"name":"sbt","type":"address","internalType":"address"}],"outputs":[],"stateMutability":"nonpayable"},{"type":"function","name":"addStake","inputs":[{"name":"unstakeDelaySec","type":"uint32","internalType":"uint32"}],"outputs":[],"stateMutability":"payable"},{"type":"function","name":"checkUserQualification","inputs":[{"name":"user","type":"address","internalType":"address"},{"name":"estimatedGasCost","type":"uint256","internalType":"uint256"}],"outputs":[{"name":"qualified","type":"bool","internalType":"bool"},{"name":"reason","type":"string","internalType":"string"}],"stateMutability":"view"},{"type":"function","name":"deactivateFromRegistry","inputs":[],"outputs":[],"stateMutability":"nonpayable"},{"type":"function","name":"entryPoint","inputs":[],"outputs":[{"name":"","type":"address","internalType":"contract IEntryPoint"}],"stateMutability":"view"},{"type":"function","name":"estimatePNTCost","inputs":[{"name":"gasCostWei","type":"uint256","internalType":"uint256"},{"name":"gasToken","type":"address","internalType":"address"}],"outputs":[{"name":"","type":"uint256","internalType":"uint256"}],"stateMutability":"view"},{"type":"function","name":"ethUsdPriceFeed","inputs":[],"outputs":[{"name":"","type":"address","internalType":"contract AggregatorV3Interface"}],"stateMutability":"view"},{"type":"function","name":"getDeposit","inputs":[],"outputs":[{"name":"","type":"uint256","internalType":"uint256"}],"stateMutability":"view"},{"type":"function","name":"getSupportedGasTokens","inputs":[],"outputs":[{"name":"","type":"address[]","internalType":"address[]"}],"stateMutability":"view"},{"type":"function","name":"getSupportedSBTs","inputs":[],"outputs":[{"name":"","type":"address[]","internalType":"address[]"}],"stateMutability":"view"},{"type":"function","name":"isActiveInRegistry","inputs":[],"outputs":[{"name":"","type":"bool","internalType":"bool"}],"stateMutability":"view"},{"type":"function","name":"isGasTokenSupported","inputs":[{"name":"","type":"address","internalType":"address"}],"outputs":[{"name":"","type":"bool","internalType":"bool"}],"stateMutability":"view"},{"type":"function","name":"isRegistrySet","inputs":[],"outputs":[{"name":"","type":"bool","internalType":"bool"}],"stateMutability":"view"},{"type":"function","name":"isSBTSupported","inputs":[{"name":"","type":"address","internalType":"address"}],"outputs":[{"name":"","type":"bool","internalType":"bool"}],"stateMutability":"view"},{"type":"function","name":"maxGasCostCap","inputs":[],"outputs":[{"name":"","type":"uint256","internalType":"uint256"}],"stateMutability":"view"},{"type":"function","name":"minTokenBalance","inputs":[],"outputs":[{"name":"","type":"uint256","internalType":"uint256"}],"stateMutability":"view"},{"type":"function","name":"owner","inputs":[],"outputs":[{"name":"","type":"address","internalType":"address"}],"stateMutability":"view"},{"type":"function","name":"pause","inputs":[],"outputs":[],"stateMutability":"nonpayable"},{"type":"function","name":"paused","inputs":[],"outputs":[{"name":"","type":"bool","internalType":"bool"}],"stateMutability":"view"},{"type":"function","name":"postOp","inputs":[{"name":"","type":"uint8","internalType":"enum PostOpMode"},{"name":"","type":"bytes","internalType":"bytes"},{"name":"actualGasCost","type":"uint256","internalType":"uint256"},{"name":"","type":"uint256","internalType":"uint256"}],"outputs":[],"stateMutability":"nonpayable"},{"type":"function","name":"registry","inputs":[],"outputs":[{"name":"","type":"address","internalType":"contract ISuperPaymasterRegistry"}],"stateMutability":"view"},{"type":"function","name":"removeGasToken","inputs":[{"name":"token","type":"address","internalType":"address"}],"outputs":[],"stateMutability":"nonpayable"},{"type":"function","name":"removeSBT","inputs":[{"name":"sbt","type":"address","internalType":"address"}],"outputs":[],"stateMutability":"nonpayable"},{"type":"function","name":"renounceOwnership","inputs":[],"outputs":[],"stateMutability":"nonpayable"},{"type":"function","name":"serviceFeeRate","inputs":[],"outputs":[{"name":"","type":"uint256","internalType":"uint256"}],"stateMutability":"view"},{"type":"function","name":"setMaxGasCostCap","inputs":[{"name":"_maxGasCostCap","type":"uint256","internalType":"uint256"}],"outputs":[],"stateMutability":"nonpayable"},{"type":"function","name":"setMinTokenBalance","inputs":[{"name":"_minTokenBalance","type":"uint256","internalType":"uint256"}],"outputs":[],"stateMutability":"nonpayable"},{"type":"function","name":"setServiceFeeRate","inputs":[{"name":"_serviceFeeRate","type":"uint256","internalType":"uint256"}],"outputs":[],"stateMutability":"nonpayable"},{"type":"function","name":"setTreasury","inputs":[{"name":"_treasury","type":"address","internalType":"address"}],"outputs":[],"stateMutability":"nonpayable"},{"type":"function","name":"supportedGasTokens","inputs":[{"name":"","type":"uint256","internalType":"uint256"}],"outputs":[{"name":"","type":"address","internalType":"address"}],"stateMutability":"view"},{"type":"function","name":"supportedSBTs","inputs":[{"name":"","type":"uint256","internalType":"uint256"}],"outputs":[{"name":"","type":"address","internalType":"address"}],"stateMutability":"view"},{"type":"function","name":"transferOwnership","inputs":[{"name":"newOwner","type":"address","internalType":"address"}],"outputs":[],"stateMutability":"nonpayable"},{"type":"function","name":"treasury","inputs":[],"outputs":[{"name":"","type":"address","internalType":"address"}],"stateMutability":"view"},{"type":"function","name":"unlockStake","inputs":[],"outputs":[],"stateMutability":"nonpayable"},{"type":"function","name":"unpause","inputs":[],"outputs":[],"stateMutability":"nonpayable"},{"type":"function","name":"validatePaymasterUserOp","inputs":[{"name":"userOp","type":"tuple","internalType":"struct PackedUserOperation","components":[{"name":"sender","type":"address","internalType":"address"},{"name":"nonce","type":"uint256","internalType":"uint256"},{"name":"initCode","type":"bytes","internalType":"bytes"},{"name":"callData","type":"bytes","internalType":"bytes"},{"name":"accountGasLimits","type":"bytes32","internalType":"bytes32"},{"name":"preVerificationGas","type":"uint256","internalType":"uint256"},{"name":"gasFees","type":"bytes32","internalType":"bytes32"},{"name":"paymasterAndData","type":"bytes","internalType":"bytes"},{"name":"signature","type":"bytes","internalType":"bytes"}]},{"name":"","type":"bytes32","internalType":"bytes32"},{"name":"maxCost","type":"uint256","internalType":"uint256"}],"outputs":[{"name":"context","type":"bytes","internalType":"bytes"},{"name":"validationData","type":"uint256","internalType":"uint256"}],"stateMutability":"nonpayable"},{"type":"function","name":"version","inputs":[],"outputs":[{"name":"","type":"string","internalType":"string"}],"stateMutability":"pure"},{"type":"function","name":"withdrawPNT","inputs":[{"name":"to","type":"address","internalType":"address"},{"name":"token","type":"address","internalType":"address"},{"name":"amount","type":"uint256","internalType":"uint256"}],"outputs":[],"stateMutability":"nonpayable"},{"type":"function","name":"withdrawStake","inputs":[{"name":"withdrawAddress","type":"address","internalType":"address payable"}],"outputs":[],"stateMutability":"nonpayable"},{"type":"function","name":"withdrawTo","inputs":[{"name":"withdrawAddress","type":"address","internalType":"address payable"},{"name":"amount","type":"uint256","internalType":"uint256"}],"outputs":[],"stateMutability":"nonpayable"},{"type":"event","name":"DeactivatedFromRegistry","inputs":[{"name":"paymaster","type":"address","indexed":true,"internalType":"address"}],"anonymous":false},{"type":"event","name":"GasPaymentProcessed","inputs":[{"name":"user","type":"address","indexed":true,"internalType":"address"},{"name":"gasToken","type":"address","indexed":true,"internalType":"address"},{"name":"pntAmount","type":"uint256","indexed":false,"internalType":"uint256"},{"name":"gasCostWei","type":"uint256","indexed":false,"internalType":"uint256"},{"name":"actualGasCost","type":"uint256","indexed":false,"internalType":"uint256"}],"anonymous":false},{"type":"event","name":"GasTokenAdded","inputs":[{"name":"token","type":"address","indexed":true,"internalType":"address"}],"anonymous":false},{"type":"event","name":"GasTokenRemoved","inputs":[{"name":"token","type":"address","indexed":true,"internalType":"address"}],"anonymous":false},{"type":"event","name":"MaxGasCostCapUpdated","inputs":[{"name":"oldCap","type":"uint256","indexed":false,"internalType":"uint256"},{"name":"newCap","type":"uint256","indexed":false,"internalType":"uint256"}],"anonymous":false},{"type":"event","name":"MinTokenBalanceUpdated","inputs":[{"name":"oldBalance","type":"uint256","indexed":false,"internalType":"uint256"},{"name":"newBalance","type":"uint256","indexed":false,"internalType":"uint256"}],"anonymous":false},{"type":"event","name":"OwnershipTransferred","inputs":[{"name":"previousOwner","type":"address","indexed":true,"internalType":"address"},{"name":"newOwner","type":"address","indexed":true,"internalType":"address"}],"anonymous":false},{"type":"event","name":"Paused","inputs":[{"name":"account","type":"address","indexed":true,"internalType":"address"}],"anonymous":false},{"type":"event","name":"PostOpProcessed","inputs":[{"name":"user","type":"address","indexed":true,"internalType":"address"},{"name":"actualGasCost","type":"uint256","indexed":false,"internalType":"uint256"},{"name":"pntCharged","type":"uint256","indexed":false,"internalType":"uint256"}],"anonymous":false},{"type":"event","name":"SBTAdded","inputs":[{"name":"sbt","type":"address","indexed":true,"internalType":"address"}],"anonymous":false},{"type":"event","name":"SBTRemoved","inputs":[{"name":"sbt","type":"address","indexed":true,"internalType":"address"}],"anonymous":false},{"type":"event","name":"ServiceFeeUpdated","inputs":[{"name":"oldRate","type":"uint256","indexed":false,"internalType":"uint256"},{"name":"newRate","type":"uint256","indexed":false,"internalType":"uint256"}],"anonymous":false},{"type":"event","name":"TreasuryUpdated","inputs":[{"name":"oldTreasury","type":"address","indexed":true,"internalType":"address"},{"name":"newTreasury","type":"address","indexed":true,"internalType":"address"}],"anonymous":false},{"type":"event","name":"Unpaused","inputs":[{"name":"account","type":"address","indexed":true,"internalType":"address"}],"anonymous":false},{"type":"error","name":"OwnableInvalidOwner","inputs":[{"name":"owner","type":"address","internalType":"address"}]},{"type":"error","name":"OwnableUnauthorizedAccount","inputs":[{"name":"account","type":"address","internalType":"address"}]},{"type":"error","name":"PaymasterV4_1__RegistryNotSet","inputs":[]},{"type":"error","name":"PaymasterV4__AlreadyExists","inputs":[]},{"type":"error","name":"PaymasterV4__EmptyArray","inputs":[]},{"type":"error","name":"PaymasterV4__InsufficientPNT","inputs":[]},{"type":"error","name":"PaymasterV4__InvalidPaymasterData","inputs":[]},{"type":"error","name":"PaymasterV4__InvalidServiceFee","inputs":[]},{"type":"error","name":"PaymasterV4__InvalidTokenBalance","inputs":[]},{"type":"error","name":"PaymasterV4__MaxLimitReached","inputs":[]},{"type":"error","name":"PaymasterV4__NoValidSBT","inputs":[]},{"type":"error","name":"PaymasterV4__NotFound","inputs":[]},{"type":"error","name":"PaymasterV4__OnlyEntryPoint","inputs":[]},{"type":"error","name":"PaymasterV4__Paused","inputs":[]},{"type":"error","name":"PaymasterV4__ZeroAddress","inputs":[]},{"type":"error","name":"ReentrancyGuardReentrantCall","inputs":[]}],"bytecode":{"object":"0x60e03461041657601f61358638819003918201601f19168301916001600160401b038311848410176102e95780849261014094604052833981010312610416576100488161041a565b6100546020830161041a565b6100606040840161041a565b61006c6060850161041a565b608085015160a08601519160c08701519361008960e0890161041a565b966100a461012061009d6101008c0161041a565b9a0161041a565b966001600160a01b03168015610403575f80546001600160a01b03198116831782556001600160a01b0316907f8be0079c531659141344cd1fd0a4f28419497f9722a3daafe3b4186f6b6457e09080a3600180556001600160a01b031690811561031b576001600160a01b031691821561031b576001600160a01b031690811561031b576103e884116103f45785156103e55760805260a052600280546001600160a01b0319169190911790556003556004556005556006805460ff191690556001600160a01b0316801561031b5760c0526001600160a01b03168015801561032a575b50506001600160a01b03168015801561021a575b604051613157908161042f82396080518181816109cd01528181610b2301528181610c0901528181610cbc0152818161103c015281816116de01528181611ade01528181611ee50152612397015260a051818181611bf8015261290c015260c051818181610e080152818161110c01528181611cf101526127570152f35b61031b57805f52600a60205260ff60405f20541661030c57600a60095410156102fd57600954680100000000000000008110156102e95760018101806009558110156102d5577f6e1540171b6c0c960b71a7020d9f60077f6af931a8bbf590da0223dacf75c7af0180546001600160a01b031916821790555f818152600a60205260408120805460ff191660011790557fc3eb2433af2977c4fd3784f9dcce78c51f96e3fda169d2d557ccded454bee9ac9080a25f8061019c565b634e487b7160e01b5f52603260045260245ffd5b634e487b7160e01b5f52604160045260245ffd5b63725001bf60e11b5f5260045ffd5b630dd00cb960e31b5f5260045ffd5b637501fa2d60e01b5f5260045ffd5b61031b57805f52600860205260ff60405f20541661030c57600560075410156102fd57600754680100000000000000008110156102e95760018101806007558110156102d5577fa66cc928b5edb82af9bd49922954155ab7b0942694bea4ce44661d9a8736c6880180546001600160a01b031916821790555f818152600860205260408120805460ff191660011790557f3f5a217a8a37fd257506eccfe25230895a4c08871c9a3f09c5407f3f1d59690f9080a25f80610188565b63056f612d60e51b5f5260045ffd5b636f541ffd60e11b5f5260045ffd5b631e4fbdf760e01b5f525f60045260245ffd5b5f80fd5b51906001600160a01b03821682036104165756fe6080604052600436101561001a575b3615610018575f80fd5b005b5f5f3560e01c80630396cb601461233c5780630879c412146123005780630f76f830146121fd57806314d90e1b146121c2578063180bd832146120185780631e6f3a9714611f6f578063205c287814611e8d5780632da6a1f914611dfc5780633400ba5214611dc257806336f897e714611ca35780633f4ba83a14611c1c57806342f6fb2914611bad57806346de32cd14611b4a5780634a58db1914611a94578063517304a414611a2c57806352b7512c1461164f57806354fd4d50146115d057806359fc187d146115685780635b78f35f1461152c5780635c975abb146114eb57806361d027b31461149957806361d1bc941461145d5780636b605b841461120f5780636f374b0f146111cc578063715018a6146111305780637b103999146110c15780637c627b2114610fae5780638456cb5914610f245780638da5cb5b14610ed35780639b1d309114610e2e578063a032f4b814610dbd578063aa51e01514610d83578063b0ac157114610ce0578063b0d691fe14610c71578063bb9fe6bf14610bba578063c23a5cea14610acb578063c399ec8814610955578063c9929dad146108e1578063da3dc2cb146107d3578063dfe3f3e414610775578063e8a905b7146106c0578063f0f44260146105d4578063f1264ed014610566578063f2fde38b14610478578063fd090621146102a45763ffa1ad741461021f575061000e565b346102a157807ffffffffffffffffffffffffffffffffffffffffffffffffffffffffffffffffc3601126102a1575061029d60405161025f604082612569565b601981527f5061796d617374657256342d4469726563742d76312e302e300000000000000060208201526040519182916020835260208301906124b4565b0390f35b80fd5b50346102a15760207ffffffffffffffffffffffffffffffffffffffffffffffffffffffffffffffffc3601126102a1576102dc61241f565b6102e461280a565b73ffffffffffffffffffffffffffffffffffffffff811690811561045057818352600860205260ff604084205416610428576005600754101561040057600754680100000000000000008110156103d3579061034b82600161037794016007556007612554565b90919073ffffffffffffffffffffffffffffffffffffffff8084549260031b9316831b921b1916179055565b80825260086020526040822060017fffffffffffffffffffffffffffffffffffffffffffffffffffffffffffffff008254161790557f3f5a217a8a37fd257506eccfe25230895a4c08871c9a3f09c5407f3f1d59690f8280a280f35b6024847f4e487b710000000000000000000000000000000000000000000000000000000081526041600452fd5b6004837fe4a0037e000000000000000000000000000000000000000000000000000000008152fd5b6004837f6e8065c8000000000000000000000000000000000000000000000000000000008152fd5b6004837f7501fa2d000000000000000000000000000000000000000000000000000000008152fd5b50346102a15760207ffffffffffffffffffffffffffffffffffffffffffffffffffffffffffffffffc3601126102a15773ffffffffffffffffffffffffffffffffffffffff6104c561241f565b6104cd61280a565b16801561053a5773ffffffffffffffffffffffffffffffffffffffff8254827fffffffffffffffffffffffff00000000000000000000000000000000000000008216178455167f8be0079c531659141344cd1fd0a4f28419497f9722a3daafe3b4186f6b6457e08380a380f35b6024827f1e4fbdf700000000000000000000000000000000000000000000000000000000815280600452fd5b50346102a15760207ffffffffffffffffffffffffffffffffffffffffffffffffffffffffffffffffc3601126102a157600435906007548210156102a157602073ffffffffffffffffffffffffffffffffffffffff6105c4846124f7565b90549060031b1c16604051908152f35b50346102a15760207ffffffffffffffffffffffffffffffffffffffffffffffffffffffffffffffffc3601126102a15773ffffffffffffffffffffffffffffffffffffffff61062161241f565b61062961280a565b1680156106985773ffffffffffffffffffffffffffffffffffffffff600254827fffffffffffffffffffffffff0000000000000000000000000000000000000000821617600255167f4ab5be82436d353e61ca18726e984e561f5c1cc7c6d38b29d2553c790434705a8380a380f35b6004827f7501fa2d000000000000000000000000000000000000000000000000000000008152fd5b50346102a157807ffffffffffffffffffffffffffffffffffffffffffffffffffffffffffffffffc3601126102a15760405180916020600754928381520191600782527fa66cc928b5edb82af9bd49922954155ab7b0942694bea4ce44661d9a8736c688915b8181106107495761029d8561073d81870382612569565b60405191829182612465565b825473ffffffffffffffffffffffffffffffffffffffff16845260209093019260019283019201610726565b50346102a15760207ffffffffffffffffffffffffffffffffffffffffffffffffffffffffffffffffc3601126102a157600435906009548210156102a157602073ffffffffffffffffffffffffffffffffffffffff6105c48461253c565b50346102a15760607ffffffffffffffffffffffffffffffffffffffffffffffffffffffffffffffffc3601126102a15761080b61241f565b73ffffffffffffffffffffffffffffffffffffffff610828612442565b9161083161280a565b1680156104505773ffffffffffffffffffffffffffffffffffffffff9160446020928560405195869485937fa9059cbb000000000000000000000000000000000000000000000000000000008552600485015284356024850152165af180156108d65761089c575080f35b6020813d6020116108ce575b816108b560209383612569565b810103126108ca576108c690612733565b5080f35b5080fd5b3d91506108a8565b6040513d84823e3d90fd5b50346102a15760207ffffffffffffffffffffffffffffffffffffffffffffffffffffffffffffffffc3601126102a1577f49081791577ea5202d6975e5d6ad3a55a49709b1adf70fbd4fbf4b3ffda6e031604060043561093f61280a565b600454908060045582519182526020820152a180f35b50346102a157807ffffffffffffffffffffffffffffffffffffffffffffffffffffffffffffffffc3601126102a1576040517f5287ce1200000000000000000000000000000000000000000000000000000000815230600482015260a08160248173ffffffffffffffffffffffffffffffffffffffff7f0000000000000000000000000000000000000000000000000000000000000000165afa9081156108d6578291610a09575b60208251604051908152f35b905060a0813d60a011610ac3575b81610a2460a09383612569565b810103126108ca576040519060a0820182811067ffffffffffffffff8211176103d35760405280518252610a5a60208201612733565b602083015260408101516dffffffffffffffffffffffffffff81168103610abf57604083015260608101519063ffffffff82168203610abf576080916060840152015165ffffffffffff81168103610abb576020925060808201525f6109fd565b8280fd5b8380fd5b3d9150610a17565b50346102a15760207ffffffffffffffffffffffffffffffffffffffffffffffffffffffffffffffffc3601126102a15780610b0461241f565b610b0c61280a565b73ffffffffffffffffffffffffffffffffffffffff7f00000000000000000000000000000000000000000000000000000000000000001690813b15610bb65773ffffffffffffffffffffffffffffffffffffffff602484928360405195869485937fc23a5cea0000000000000000000000000000000000000000000000000000000085521660048401525af180156108d657610ba55750f35b81610baf91612569565b6102a15780f35b5050fd5b50346102a157807ffffffffffffffffffffffffffffffffffffffffffffffffffffffffffffffffc3601126102a157610bf161280a565b8073ffffffffffffffffffffffffffffffffffffffff7f000000000000000000000000000000000000000000000000000000000000000016803b15610c6e578180916004604051809481937fbb9fe6bf0000000000000000000000000000000000000000000000000000000083525af180156108d657610ba55750f35b50fd5b50346102a157807ffffffffffffffffffffffffffffffffffffffffffffffffffffffffffffffffc3601126102a157602060405173ffffffffffffffffffffffffffffffffffffffff7f0000000000000000000000000000000000000000000000000000000000000000168152f35b50346102a15760207ffffffffffffffffffffffffffffffffffffffffffffffffffffffffffffffffc3601126102a157600435610d1b61280a565b8015610d5b5760407f7f9c5da1bed4f9434e0b66081f505cd59f3e73d24aa12dea305582ad3322149991600554908060055582519182526020820152a180f35b6004827fadec25a0000000000000000000000000000000000000000000000000000000008152fd5b50346102a157807ffffffffffffffffffffffffffffffffffffffffffffffffffffffffffffffffc3601126102a157602060405160058152f35b50346102a157807ffffffffffffffffffffffffffffffffffffffffffffffffffffffffffffffffc3601126102a157602060405173ffffffffffffffffffffffffffffffffffffffff7f00000000000000000000000000000000000000000000000000000000000000001615158152f35b50346102a15760207ffffffffffffffffffffffffffffffffffffffffffffffffffffffffffffffffc3601126102a157600435610e6961280a565b6103e88111610eab5760407e3b413cf14a67407425bd0b5c065b2de08876554d8489ad7dd4aa95604d280c91600354908060035582519182526020820152a180f35b6004827fdea83ffa000000000000000000000000000000000000000000000000000000008152fd5b50346102a157807ffffffffffffffffffffffffffffffffffffffffffffffffffffffffffffffffc3601126102a15773ffffffffffffffffffffffffffffffffffffffff6020915416604051908152f35b50346102a157807ffffffffffffffffffffffffffffffffffffffffffffffffffffffffffffffffc3601126102a157610f5b61280a565b60017fffffffffffffffffffffffffffffffffffffffffffffffffffffffffffffff006006541617600655337f62e78cea01bee320cd4e420270b5ea74000d11b0c9f74754ebdbfc544b05a2588280a280f35b50346102a15760807ffffffffffffffffffffffffffffffffffffffffffffffffffffffffffffffffc3601126102a157600360043510156102a15760243567ffffffffffffffff81116108ca57366023820112156108ca57806004013567ffffffffffffffff8111610abb57369101602401116102a15773ffffffffffffffffffffffffffffffffffffffff7f00000000000000000000000000000000000000000000000000000000000000001633036110995760405160443581528160208201527fdbcdce246c9de488793d9fbced081189358cd1a3c61ea7271de36df777c15c0a60403292a280f35b807f6e458eaa0000000000000000000000000000000000000000000000000000000060049252fd5b50346102a157807ffffffffffffffffffffffffffffffffffffffffffffffffffffffffffffffffc3601126102a157602060405173ffffffffffffffffffffffffffffffffffffffff7f0000000000000000000000000000000000000000000000000000000000000000168152f35b50346102a157807ffffffffffffffffffffffffffffffffffffffffffffffffffffffffffffffffc3601126102a15761116761280a565b8073ffffffffffffffffffffffffffffffffffffffff81547fffffffffffffffffffffffff000000000000000000000000000000000000000081168355167f8be0079c531659141344cd1fd0a4f28419497f9722a3daafe3b4186f6b6457e08280a380f35b50346102a157807ffffffffffffffffffffffffffffffffffffffffffffffffffffffffffffffffc3601126102a1576020611205612740565b6040519015158152f35b50346102a15760207ffffffffffffffffffffffffffffffffffffffffffffffffffffffffffffffffc3601126102a15773ffffffffffffffffffffffffffffffffffffffff61125c61241f565b61126461280a565b16808252600a60205260ff604083205416156114355760095490825b8281106112e3575b8382808252600a602052604082207fffffffffffffffffffffffffffffffffffffffffffffffffffffffffffffff0081541690557f9ab86610b358c5041191d816eaf692d22c70d541d23086a03c5040bf75cae73a8280a280f35b8173ffffffffffffffffffffffffffffffffffffffff6113028361253c565b90549060031b1c161461131757600101611280565b90917fffffffffffffffffffffffffffffffffffffffffffffffffffffffffffffffff8101908111611408579061034b73ffffffffffffffffffffffffffffffffffffffff6113686113769461253c565b90549060031b1c169161253c565b60095480156113db577fffffffffffffffffffffffffffffffffffffffffffffffffffffffffffffffff016113d16113af826009612554565b73ffffffffffffffffffffffffffffffffffffffff82549160031b1b19169055565b600955805f611288565b6024837f4e487b710000000000000000000000000000000000000000000000000000000081526031600452fd5b6024847f4e487b710000000000000000000000000000000000000000000000000000000081526011600452fd5b6004827f150165b9000000000000000000000000000000000000000000000000000000008152fd5b50346102a157807ffffffffffffffffffffffffffffffffffffffffffffffffffffffffffffffffc3601126102a1576020600354604051908152f35b50346102a157807ffffffffffffffffffffffffffffffffffffffffffffffffffffffffffffffffc3601126102a157602073ffffffffffffffffffffffffffffffffffffffff60025416604051908152f35b50346102a157807ffffffffffffffffffffffffffffffffffffffffffffffffffffffffffffffffc3601126102a157602060ff600654166040519015158152f35b50346102a157807ffffffffffffffffffffffffffffffffffffffffffffffffffffffffffffffffc3601126102a1576020600554604051908152f35b50346102a15760207ffffffffffffffffffffffffffffffffffffffffffffffffffffffffffffffffc3601126102a15760ff604060209273ffffffffffffffffffffffffffffffffffffffff6115bc61241f565b168152600a84522054166040519015158152f35b50346102a157807ffffffffffffffffffffffffffffffffffffffffffffffffffffffffffffffffc3601126102a1575061029d604051611611604082612569565b601d81527f5061796d617374657256342e312d52656769737472792d76312e312e3000000060208201526040519182916020835260208301906124b4565b50346102a15760607ffffffffffffffffffffffffffffffffffffffffffffffffffffffffffffffffc3601126102a1576004359067ffffffffffffffff82116102a157816004016101207ffffffffffffffffffffffffffffffffffffffffffffffffffffffffffffffffc84360301126108ca576044359273ffffffffffffffffffffffffffffffffffffffff7f0000000000000000000000000000000000000000000000000000000000000000163303611a045760ff600654166119dc576002600154146119b457600260015560e40190603461172d83836126e2565b90501061198c5773ffffffffffffffffffffffffffffffffffffffff81351690813b611957575b6004548086111561194f57925b8491604861176f83836126e2565b90501015611916575b50509361179b73ffffffffffffffffffffffffffffffffffffffff958484612df7565b95169283156118ee5773ffffffffffffffffffffffffffffffffffffffff60025416604051907f23b872dd000000000000000000000000000000000000000000000000000000008252846004830152602482015286604482015260208160648189895af180156118e357611879575b5061186f957ffc4c641fa72bd2cbf0e7fdd8b517c19ddbccc7b2ede61572b6293a9d26f414329260609260405192835260208301526040820152a360405190611854602083612569565b5f8252600180556040519283926040845260408401906124b4565b9060208301520390f35b6020813d6020116118db575b8161189260209383612569565b810103126118d757957ffc4c641fa72bd2cbf0e7fdd8b517c19ddbccc7b2ede61572b6293a9d26f41432926060926118cc61186f99612733565b50925092509561180a565b8580fd5b3d9150611885565b6040513d88823e3d90fd5b6004857f8a7638fa000000000000000000000000000000000000000000000000000000008152fd5b61192092506126e2565b604895919511610abf57936034013560601c61179b73ffffffffffffffffffffffffffffffffffffffff611778565b508492611761565b61196082612b82565b611754576004847fbbab703a000000000000000000000000000000000000000000000000000000008152fd5b6004837f17f78eb7000000000000000000000000000000000000000000000000000000008152fd5b6004837f3ee5aeb5000000000000000000000000000000000000000000000000000000008152fd5b6004837fb82a6180000000000000000000000000000000000000000000000000000000008152fd5b6004837f6e458eaa000000000000000000000000000000000000000000000000000000008152fd5b50346102a15760207ffffffffffffffffffffffffffffffffffffffffffffffffffffffffffffffffc3601126102a15760ff604060209273ffffffffffffffffffffffffffffffffffffffff611a8061241f565b168152600884522054166040519015158152f35b50807ffffffffffffffffffffffffffffffffffffffffffffffffffffffffffffffffc3601126102a157611ac661280a565b8073ffffffffffffffffffffffffffffffffffffffff7f000000000000000000000000000000000000000000000000000000000000000016803b15610c6e5781602491604051928380927fb760faf900000000000000000000000000000000000000000000000000000000825230600483015234905af180156108d657610ba55750f35b50346102a15760407ffffffffffffffffffffffffffffffffffffffffffffffffffffffffffffffffc3601126102a157611b8e611b8561241f565b602435906125d7565b9061029d604051928392151583526040602084015260408301906124b4565b50346102a157807ffffffffffffffffffffffffffffffffffffffffffffffffffffffffffffffffc3601126102a157602060405173ffffffffffffffffffffffffffffffffffffffff7f0000000000000000000000000000000000000000000000000000000000000000168152f35b50346102a157807ffffffffffffffffffffffffffffffffffffffffffffffffffffffffffffffffc3601126102a157611c5361280a565b7fffffffffffffffffffffffffffffffffffffffffffffffffffffffffffffff0060065416600655337f5db9ee0a495bf2e6ff9c91a7834c1ba4fdd244a5e8aa4e537bd38aeae4b073aa8280a280f35b50346102a157807ffffffffffffffffffffffffffffffffffffffffffffffffffffffffffffffffc3601126102a157611cda61280a565b73ffffffffffffffffffffffffffffffffffffffff7f0000000000000000000000000000000000000000000000000000000000000000168015611d9a578082913b15610c6e578180916004604051809481937f51b42b000000000000000000000000000000000000000000000000000000000083525af180156108d657611d85575b50307fca323d32ea3ada728fbc5a470183af7d4cc49a426cb2bdf68847d6e298576f208280a280f35b81611d8f91612569565b6102a157805f611d5c565b6004827f19561c06000000000000000000000000000000000000000000000000000000008152fd5b50346102a157807ffffffffffffffffffffffffffffffffffffffffffffffffffffffffffffffffc3601126102a1576020604051600a8152f35b50346102a15760407ffffffffffffffffffffffffffffffffffffffffffffffffffffffffffffffffc3601126102a15760043590611e38612442565b9173ffffffffffffffffffffffffffffffffffffffff83168252600a60205260ff6040832054161561143557600454602093611e7e93509181811115611e8657506128e4565b604051908152f35b90506128e4565b50346102a15760407ffffffffffffffffffffffffffffffffffffffffffffffffffffffffffffffffc3601126102a15780611ec661241f565b611ece61280a565b73ffffffffffffffffffffffffffffffffffffffff7f00000000000000000000000000000000000000000000000000000000000000001690813b15610bb65773ffffffffffffffffffffffffffffffffffffffff604484928360405195869485937f205c287800000000000000000000000000000000000000000000000000000000855216600484015260243560248401525af180156108d657610ba55750f35b50346102a157807ffffffffffffffffffffffffffffffffffffffffffffffffffffffffffffffffc3601126102a15760405180916020600954928381520191600982527f6e1540171b6c0c960b71a7020d9f60077f6af931a8bbf590da0223dacf75c7af915b818110611fec5761029d8561073d81870382612569565b825473ffffffffffffffffffffffffffffffffffffffff16845260209093019260019283019201611fd5565b50346102a15760207ffffffffffffffffffffffffffffffffffffffffffffffffffffffffffffffffc3601126102a15773ffffffffffffffffffffffffffffffffffffffff61206561241f565b61206d61280a565b16808252600860205260ff604083205416156114355760075490825b8281106120ec575b83828082526008602052604082207fffffffffffffffffffffffffffffffffffffffffffffffffffffffffffffff0081541690557f1b2dde4dd450b08ce8eb719da7c716607a7f0164a42396ff08dd4b57c9bd0fcd8280a280f35b8173ffffffffffffffffffffffffffffffffffffffff61210b836124f7565b90549060031b1c161461212057600101612089565b90917fffffffffffffffffffffffffffffffffffffffffffffffffffffffffffffffff8101908111611408579061034b73ffffffffffffffffffffffffffffffffffffffff61217161217f946124f7565b90549060031b1c16916124f7565b60075480156113db577fffffffffffffffffffffffffffffffffffffffffffffffffffffffffffffffff016121b86113af826007612554565b600755805f612091565b50346102a157807ffffffffffffffffffffffffffffffffffffffffffffffffffffffffffffffffc3601126102a15760206040516103e88152f35b50346102a15760207ffffffffffffffffffffffffffffffffffffffffffffffffffffffffffffffffc3601126102a15761223561241f565b61223d61280a565b73ffffffffffffffffffffffffffffffffffffffff811690811561045057818352600a60205260ff60408420541661042857600a600954101561040057600954680100000000000000008110156103d3579061034b8260016122a494016009556009612554565b808252600a6020526040822060017fffffffffffffffffffffffffffffffffffffffffffffffffffffffffffffff008254161790557fc3eb2433af2977c4fd3784f9dcce78c51f96e3fda169d2d557ccded454bee9ac8280a280f35b50346102a157807ffffffffffffffffffffffffffffffffffffffffffffffffffffffffffffffffc3601126102a1576020600454604051908152f35b5060207ffffffffffffffffffffffffffffffffffffffffffffffffffffffffffffffffc36011261241b5760043563ffffffff811680910361241b5761238061280a565b73ffffffffffffffffffffffffffffffffffffffff7f00000000000000000000000000000000000000000000000000000000000000001690813b1561241b575f906024604051809481937f0396cb60000000000000000000000000000000000000000000000000000000008352600483015234905af1801561241057612404575080f35b61001891505f90612569565b6040513d5f823e3d90fd5b5f80fd5b6004359073ffffffffffffffffffffffffffffffffffffffff8216820361241b57565b6024359073ffffffffffffffffffffffffffffffffffffffff8216820361241b57565b60206040818301928281528451809452019201905f5b8181106124885750505090565b825173ffffffffffffffffffffffffffffffffffffffff1684526020938401939092019160010161247b565b907fffffffffffffffffffffffffffffffffffffffffffffffffffffffffffffffe0601f602080948051918291828752018686015e5f8582860101520116010190565b60075481101561250f5760075f5260205f2001905f90565b7f4e487b71000000000000000000000000000000000000000000000000000000005f52603260045260245ffd5b60095481101561250f5760095f5260205f2001905f90565b805482101561250f575f5260205f2001905f90565b90601f7fffffffffffffffffffffffffffffffffffffffffffffffffffffffffffffffe0910116810190811067ffffffffffffffff8211176125aa57604052565b7f4e487b71000000000000000000000000000000000000000000000000000000005f52604160045260245ffd5b90813b612696575b73ffffffffffffffffffffffffffffffffffffffff9161260d91600454908181115f1461268e575090612c5c565b50161561262b57600190604051612625602082612569565b5f815290565b5f9060405161263b606082612569565b602781527f496e73756666696369656e7420746f6b656e2062616c616e6365206f7220616c60208201527f6c6f77616e636500000000000000000000000000000000000000000000000000604082015290565b905090612c5c565b61269f82612b82565b6125df5750505f906040516126b5604082612569565b601e81527f5573657220646f6573206e6f74206f776e207265717569726564205342540000602082015290565b9035907fffffffffffffffffffffffffffffffffffffffffffffffffffffffffffffffe18136030182121561241b570180359067ffffffffffffffff821161241b5760200191813603831361241b57565b5190811515820361241b57565b73ffffffffffffffffffffffffffffffffffffffff7f0000000000000000000000000000000000000000000000000000000000000000168015612805576020602491604051928380927f928708220000000000000000000000000000000000000000000000000000000082523060048301525afa5f91816127c9575b506127c657505f90565b90565b9091506020813d6020116127fd575b816127e560209383612569565b8101031261241b576127f690612733565b905f6127bc565b3d91506127d8565b505f90565b73ffffffffffffffffffffffffffffffffffffffff5f5416330361282a57565b7f118cdaa7000000000000000000000000000000000000000000000000000000005f523360045260245ffd5b519069ffffffffffffffffffff8216820361241b57565b8181029291811591840414171561288057565b7f4e487b71000000000000000000000000000000000000000000000000000000005f52601160045260245ffd5b81156128b7570490565b7f4e487b71000000000000000000000000000000000000000000000000000000005f52601260045260245ffd5b6040517ffeaf968c0000000000000000000000000000000000000000000000000000000081527f000000000000000000000000000000000000000000000000000000000000000073ffffffffffffffffffffffffffffffffffffffff1660a082600481845afa8015612410575f925f91612b2e575b50420342811161288057610e1010612b06576020600491604051928380927f313ce5670000000000000000000000000000000000000000000000000000000082525afa908115612410575f91612aca575b50670de0b6b3a7640000820291808304670de0b6b3a764000014901517156128805760ff1691604d8311612880576129f26129f892670de0b6b3a764000094600a0a906128ad565b9061286d565b046003546127100190816127101161288057612710612a2e73ffffffffffffffffffffffffffffffffffffffff9360209361286d565b04926004604051809481937fb30ea59c000000000000000000000000000000000000000000000000000000008352165afa908115612410575f91612a98575b50670de0b6b3a7640000820291808304670de0b6b3a76400001490151715612880576127c6916128ad565b90506020813d602011612ac2575b81612ab360209383612569565b8101031261241b57515f612a6d565b3d9150612aa6565b90506020813d602011612afe575b81612ae560209383612569565b8101031261241b575160ff8116810361241b575f6129aa565b3d9150612ad8565b7fadec25a0000000000000000000000000000000000000000000000000000000005f5260045ffd5b92505060a0823d60a011612b7a575b81612b4a60a09383612569565b8101031261241b57612b5b82612856565b506020820151612b72608060608501519401612856565b50915f612959565b3d9150612b3d565b600754905f5b828110612b96575050505f90565b6024602073ffffffffffffffffffffffffffffffffffffffff612bb8846124f7565b90549060031b1c16604051928380927f70a0823100000000000000000000000000000000000000000000000000000000825273ffffffffffffffffffffffffffffffffffffffff881660048301525afa908115612410575f91612c2b575b50612c2357600101612b88565b505050600190565b90506020813d8211612c54575b81612c4560209383612569565b8101031261241b57515f612c16565b3d9150612c38565b90600954905f5b828110612c7457505050505f905f90565b73ffffffffffffffffffffffffffffffffffffffff612c928261253c565b90549060031b1c16612ca481846128e4565b906040517f70a0823100000000000000000000000000000000000000000000000000000000815273ffffffffffffffffffffffffffffffffffffffff87166004820152602081602481855afa908115612410575f91612dc6575b506040517fdd62ed3e00000000000000000000000000000000000000000000000000000000815273ffffffffffffffffffffffffffffffffffffffff88166004820152306024820152602081604481865afa9182156124105784915f93612d90575b508111159182612d85575b5050612d7b575050600101612c63565b9590945092505050565b10159050825f612d6b565b915091506020813d8211612dbe575b81612dac60209383612569565b8101031261241b575190839081612d60565b3d9150612d9f565b90506020813d8211612def575b81612de060209383612569565b8101031261241b57515f612cfe565b3d9150612dd3565b9173ffffffffffffffffffffffffffffffffffffffff8116908115158061310b575b612fb0575b5050600954905f5b828110612e3757505050505f905f90565b73ffffffffffffffffffffffffffffffffffffffff612e558261253c565b90549060031b1c16612e6781846128e4565b906040517f70a0823100000000000000000000000000000000000000000000000000000000815273ffffffffffffffffffffffffffffffffffffffff87166004820152602081602481855afa908115612410575f91612f7f575b506040517fdd62ed3e00000000000000000000000000000000000000000000000000000000815273ffffffffffffffffffffffffffffffffffffffff88166004820152306024820152602081604481865afa9182156124105784915f93612f49575b508111159182612f3e575b5050612d7b575050600101612e26565b10159050825f612f2e565b915091506020813d8211612f77575b81612f6560209383612569565b8101031261241b575190839081612f23565b3d9150612f58565b90506020813d8211612fa8575b81612f9960209383612569565b8101031261241b57515f612ec1565b3d9150612f8c565b612fba81846128e4565b91604051907f70a0823100000000000000000000000000000000000000000000000000000000825273ffffffffffffffffffffffffffffffffffffffff86166004830152602082602481845afa918215612410575f926130d7575b506040517fdd62ed3e00000000000000000000000000000000000000000000000000000000815273ffffffffffffffffffffffffffffffffffffffff8716600482015230602482015290602090829060449082905afa9182156124105784915f936130a0575b508111159182613095575b505015612e1e57939092509050565b10159050825f613086565b915091506020813d6020116130cf575b816130bd60209383612569565b8101031261241b57519083908161307b565b3d91506130b0565b9091506020813d602011613103575b816130f360209383612569565b8101031261241b5751905f613015565b3d91506130e6565b50815f52600a60205260ff60405f205416612e1956fea26469706673582212206076351ff3800adee86f2cc2f177dbd9c48876e0d78b0bbf5208bc61ab6f50e964736f6c634300081c0033","linkReferences":{}},"methodIdentifiers":{"MAX_GAS_TOKENS()":"3400ba52","MAX_SBTS()":"aa51e015","MAX_SERVICE_FEE()":"14d90e1b","VERSION()":"ffa1ad74","addDeposit()":"4a58db19","addGasToken(address)":"0f76f830","addSBT(address)":"fd090621","addStake(uint32)":"0396cb60","checkUserQualification(address,uint256)":"46de32cd","deactivateFromRegistry()":"36f897e7","entryPoint()":"b0d691fe","estimatePNTCost(uint256,address)":"2da6a1f9","ethUsdPriceFeed()":"42f6fb29","getDeposit()":"c399ec88","getSupportedGasTokens()":"1e6f3a97","getSupportedSBTs()":"e8a905b7","isActiveInRegistry()":"6f374b0f","isGasTokenSupported(address)":"59fc187d","isRegistrySet()":"a032f4b8","isSBTSupported(address)":"517304a4","maxGasCostCap()":"0879c412","minTokenBalance()":"5b78f35f","owner()":"8da5cb5b","pause()":"8456cb59","paused()":"5c975abb","postOp(uint8,bytes,uint256,uint256)":"7c627b21","registry()":"7b103999","removeGasToken(address)":"6b605b84","removeSBT(address)":"180bd832","renounceOwnership()":"715018a6","serviceFeeRate()":"61d1bc94","setMaxGasCostCap(uint256)":"c9929dad","setMinTokenBalance(uint256)":"b0ac1571","setServiceFeeRate(uint256)":"9b1d3091","setTreasury(address)":"f0f44260","supportedGasTokens(uint256)":"dfe3f3e4","supportedSBTs(uint256)":"f1264ed0","transferOwnership(address)":"f2fde38b","treasury()":"61d027b3","unlockStake()":"bb9fe6bf","unpause()":"3f4ba83a","validatePaymasterUserOp((address,uint256,bytes,bytes,bytes32,uint256,bytes32,bytes,bytes),bytes32,uint256)":"52b7512c","version()":"54fd4d50","withdrawPNT(address,address,uint256)":"da3dc2cb","withdrawStake(address)":"c23a5cea","withdrawTo(address,uint256)":"205c2878"},"id":129}