{"abi":[{"type":"constructor","inputs":[{"name":"_entryPoint","type":"address","internalType":"address"},{"name":"_owner","type":"address","internalType":"address"},{"name":"_treasury","type":"address","internalType":"address"},{"name":"_gasToUSDRate","type":"uint256","internalType":"uint256"},{"name":"_pntPriceUSD","type":"uint256","internalType":"uint256"},{"name":"_serviceFeeRate","type":"uint256","internalType":"uint256"},{"name":"_maxGasCostCap","type":"uint256","internalType":"uint256"},{"name":"_minTokenBalance","type":"uint256","internalType":"uint256"},{"name":"_initialSBT","type":"address","internalType":"address"},{"name":"_initialGasToken","type":"address","internalType":"address"}],"stateMutability":"nonpayable"},{"type":"receive","stateMutability":"payable"},{"type":"function","name":"MAX_GAS_TOKENS","inputs":[],"outputs":[{"name":"","type":"uint256","internalType":"uint256"}],"stateMutability":"view"},{"type":"function","name":"MAX_SBTS","inputs":[],"outputs":[{"name":"","type":"uint256","internalType":"uint256"}],"stateMutability":"view"},{"type":"function","name":"MAX_SERVICE_FEE","inputs":[],"outputs":[{"name":"","type":"uint256","internalType":"uint256"}],"stateMutability":"view"},{"type":"function","name":"VERSION","inputs":[],"outputs":[{"name":"","type":"string","internalType":"string"}],"stateMutability":"view"},{"type":"function","name":"addDeposit","inputs":[],"outputs":[],"stateMutability":"payable"},{"type":"function","name":"addGasToken","inputs":[{"name":"token","type":"address","internalType":"address"}],"outputs":[],"stateMutability":"nonpayable"},{"type":"function","name":"addSBT","inputs":[{"name":"sbt","type":"address","internalType":"address"}],"outputs":[],"stateMutability":"nonpayable"},{"type":"function","name":"addStake","inputs":[{"name":"unstakeDelaySec","type":"uint32","internalType":"uint32"}],"outputs":[],"stateMutability":"payable"},{"type":"function","name":"checkUserQualification","inputs":[{"name":"user","type":"address","internalType":"address"},{"name":"estimatedGasCost","type":"uint256","internalType":"uint256"}],"outputs":[{"name":"qualified","type":"bool","internalType":"bool"},{"name":"reason","type":"string","internalType":"string"}],"stateMutability":"view"},{"type":"function","name":"deactivateFromRegistry","inputs":[],"outputs":[],"stateMutability":"nonpayable"},{"type":"function","name":"entryPoint","inputs":[],"outputs":[{"name":"","type":"address","internalType":"contract IEntryPoint"}],"stateMutability":"view"},{"type":"function","name":"estimatePNTCost","inputs":[{"name":"gasCostWei","type":"uint256","internalType":"uint256"}],"outputs":[{"name":"","type":"uint256","internalType":"uint256"}],"stateMutability":"view"},{"type":"function","name":"gasToUSDRate","inputs":[],"outputs":[{"name":"","type":"uint256","internalType":"uint256"}],"stateMutability":"view"},{"type":"function","name":"getDeposit","inputs":[],"outputs":[{"name":"","type":"uint256","internalType":"uint256"}],"stateMutability":"view"},{"type":"function","name":"getSupportedGasTokens","inputs":[],"outputs":[{"name":"","type":"address[]","internalType":"address[]"}],"stateMutability":"view"},{"type":"function","name":"getSupportedSBTs","inputs":[],"outputs":[{"name":"","type":"address[]","internalType":"address[]"}],"stateMutability":"view"},{"type":"function","name":"isActiveInRegistry","inputs":[],"outputs":[{"name":"","type":"bool","internalType":"bool"}],"stateMutability":"view"},{"type":"function","name":"isGasTokenSupported","inputs":[{"name":"","type":"address","internalType":"address"}],"outputs":[{"name":"","type":"bool","internalType":"bool"}],"stateMutability":"view"},{"type":"function","name":"isRegistrySet","inputs":[],"outputs":[{"name":"","type":"bool","internalType":"bool"}],"stateMutability":"view"},{"type":"function","name":"isSBTSupported","inputs":[{"name":"","type":"address","internalType":"address"}],"outputs":[{"name":"","type":"bool","internalType":"bool"}],"stateMutability":"view"},{"type":"function","name":"maxGasCostCap","inputs":[],"outputs":[{"name":"","type":"uint256","internalType":"uint256"}],"stateMutability":"view"},{"type":"function","name":"minTokenBalance","inputs":[],"outputs":[{"name":"","type":"uint256","internalType":"uint256"}],"stateMutability":"view"},{"type":"function","name":"owner","inputs":[],"outputs":[{"name":"","type":"address","internalType":"address"}],"stateMutability":"view"},{"type":"function","name":"pause","inputs":[],"outputs":[],"stateMutability":"nonpayable"},{"type":"function","name":"paused","inputs":[],"outputs":[{"name":"","type":"bool","internalType":"bool"}],"stateMutability":"view"},{"type":"function","name":"pntPriceUSD","inputs":[],"outputs":[{"name":"","type":"uint256","internalType":"uint256"}],"stateMutability":"view"},{"type":"function","name":"postOp","inputs":[{"name":"","type":"uint8","internalType":"enum PostOpMode"},{"name":"","type":"bytes","internalType":"bytes"},{"name":"actualGasCost","type":"uint256","internalType":"uint256"},{"name":"","type":"uint256","internalType":"uint256"}],"outputs":[],"stateMutability":"nonpayable"},{"type":"function","name":"registry","inputs":[],"outputs":[{"name":"","type":"address","internalType":"contract ISuperPaymasterRegistry"}],"stateMutability":"view"},{"type":"function","name":"removeGasToken","inputs":[{"name":"token","type":"address","internalType":"address"}],"outputs":[],"stateMutability":"nonpayable"},{"type":"function","name":"removeSBT","inputs":[{"name":"sbt","type":"address","internalType":"address"}],"outputs":[],"stateMutability":"nonpayable"},{"type":"function","name":"renounceOwnership","inputs":[],"outputs":[],"stateMutability":"nonpayable"},{"type":"function","name":"serviceFeeRate","inputs":[],"outputs":[{"name":"","type":"uint256","internalType":"uint256"}],"stateMutability":"view"},{"type":"function","name":"setGasToUSDRate","inputs":[{"name":"_gasToUSDRate","type":"uint256","internalType":"uint256"}],"outputs":[],"stateMutability":"nonpayable"},{"type":"function","name":"setMaxGasCostCap","inputs":[{"name":"_maxGasCostCap","type":"uint256","internalType":"uint256"}],"outputs":[],"stateMutability":"nonpayable"},{"type":"function","name":"setMinTokenBalance","inputs":[{"name":"_minTokenBalance","type":"uint256","internalType":"uint256"}],"outputs":[],"stateMutability":"nonpayable"},{"type":"function","name":"setPntPriceUSD","inputs":[{"name":"_pntPriceUSD","type":"uint256","internalType":"uint256"}],"outputs":[],"stateMutability":"nonpayable"},{"type":"function","name":"setRegistry","inputs":[{"name":"_registry","type":"address","internalType":"address"}],"outputs":[],"stateMutability":"nonpayable"},{"type":"function","name":"setServiceFeeRate","inputs":[{"name":"_serviceFeeRate","type":"uint256","internalType":"uint256"}],"outputs":[],"stateMutability":"nonpayable"},{"type":"function","name":"setTreasury","inputs":[{"name":"_treasury","type":"address","internalType":"address"}],"outputs":[],"stateMutability":"nonpayable"},{"type":"function","name":"supportedGasTokens","inputs":[{"name":"","type":"uint256","internalType":"uint256"}],"outputs":[{"name":"","type":"address","internalType":"address"}],"stateMutability":"view"},{"type":"function","name":"supportedSBTs","inputs":[{"name":"","type":"uint256","internalType":"uint256"}],"outputs":[{"name":"","type":"address","internalType":"address"}],"stateMutability":"view"},{"type":"function","name":"transferOwnership","inputs":[{"name":"newOwner","type":"address","internalType":"address"}],"outputs":[],"stateMutability":"nonpayable"},{"type":"function","name":"treasury","inputs":[],"outputs":[{"name":"","type":"address","internalType":"address"}],"stateMutability":"view"},{"type":"function","name":"unlockStake","inputs":[],"outputs":[],"stateMutability":"nonpayable"},{"type":"function","name":"unpause","inputs":[],"outputs":[],"stateMutability":"nonpayable"},{"type":"function","name":"validatePaymasterUserOp","inputs":[{"name":"userOp","type":"tuple","internalType":"struct PackedUserOperation","components":[{"name":"sender","type":"address","internalType":"address"},{"name":"nonce","type":"uint256","internalType":"uint256"},{"name":"initCode","type":"bytes","internalType":"bytes"},{"name":"callData","type":"bytes","internalType":"bytes"},{"name":"accountGasLimits","type":"bytes32","internalType":"bytes32"},{"name":"preVerificationGas","type":"uint256","internalType":"uint256"},{"name":"gasFees","type":"bytes32","internalType":"bytes32"},{"name":"paymasterAndData","type":"bytes","internalType":"bytes"},{"name":"signature","type":"bytes","internalType":"bytes"}]},{"name":"","type":"bytes32","internalType":"bytes32"},{"name":"maxCost","type":"uint256","internalType":"uint256"}],"outputs":[{"name":"context","type":"bytes","internalType":"bytes"},{"name":"validationData","type":"uint256","internalType":"uint256"}],"stateMutability":"nonpayable"},{"type":"function","name":"version","inputs":[],"outputs":[{"name":"","type":"string","internalType":"string"}],"stateMutability":"pure"},{"type":"function","name":"withdrawPNT","inputs":[{"name":"to","type":"address","internalType":"address"},{"name":"token","type":"address","internalType":"address"},{"name":"amount","type":"uint256","internalType":"uint256"}],"outputs":[],"stateMutability":"nonpayable"},{"type":"function","name":"withdrawStake","inputs":[{"name":"withdrawAddress","type":"address","internalType":"address payable"}],"outputs":[],"stateMutability":"nonpayable"},{"type":"function","name":"withdrawTo","inputs":[{"name":"withdrawAddress","type":"address","internalType":"address payable"},{"name":"amount","type":"uint256","internalType":"uint256"}],"outputs":[],"stateMutability":"nonpayable"},{"type":"event","name":"DeactivatedFromRegistry","inputs":[{"name":"paymaster","type":"address","indexed":true,"internalType":"address"}],"anonymous":false},{"type":"event","name":"GasPaymentProcessed","inputs":[{"name":"user","type":"address","indexed":true,"internalType":"address"},{"name":"gasToken","type":"address","indexed":true,"internalType":"address"},{"name":"pntAmount","type":"uint256","indexed":false,"internalType":"uint256"},{"name":"gasCostWei","type":"uint256","indexed":false,"internalType":"uint256"},{"name":"actualGasCost","type":"uint256","indexed":false,"internalType":"uint256"}],"anonymous":false},{"type":"event","name":"GasToUSDRateUpdated","inputs":[{"name":"oldRate","type":"uint256","indexed":false,"internalType":"uint256"},{"name":"newRate","type":"uint256","indexed":false,"internalType":"uint256"}],"anonymous":false},{"type":"event","name":"GasTokenAdded","inputs":[{"name":"token","type":"address","indexed":true,"internalType":"address"}],"anonymous":false},{"type":"event","name":"GasTokenRemoved","inputs":[{"name":"token","type":"address","indexed":true,"internalType":"address"}],"anonymous":false},{"type":"event","name":"MaxGasCostCapUpdated","inputs":[{"name":"oldCap","type":"uint256","indexed":false,"internalType":"uint256"},{"name":"newCap","type":"uint256","indexed":false,"internalType":"uint256"}],"anonymous":false},{"type":"event","name":"MinTokenBalanceUpdated","inputs":[{"name":"oldBalance","type":"uint256","indexed":false,"internalType":"uint256"},{"name":"newBalance","type":"uint256","indexed":false,"internalType":"uint256"}],"anonymous":false},{"type":"event","name":"OwnershipTransferred","inputs":[{"name":"previousOwner","type":"address","indexed":true,"internalType":"address"},{"name":"newOwner","type":"address","indexed":true,"internalType":"address"}],"anonymous":false},{"type":"event","name":"Paused","inputs":[{"name":"account","type":"address","indexed":true,"internalType":"address"}],"anonymous":false},{"type":"event","name":"PntPriceUpdated","inputs":[{"name":"oldPrice","type":"uint256","indexed":false,"internalType":"uint256"},{"name":"newPrice","type":"uint256","indexed":false,"internalType":"uint256"}],"anonymous":false},{"type":"event","name":"PostOpProcessed","inputs":[{"name":"user","type":"address","indexed":true,"internalType":"address"},{"name":"actualGasCost","type":"uint256","indexed":false,"internalType":"uint256"},{"name":"pntCharged","type":"uint256","indexed":false,"internalType":"uint256"}],"anonymous":false},{"type":"event","name":"RegistryUpdated","inputs":[{"name":"registry","type":"address","indexed":true,"internalType":"address"}],"anonymous":false},{"type":"event","name":"SBTAdded","inputs":[{"name":"sbt","type":"address","indexed":true,"internalType":"address"}],"anonymous":false},{"type":"event","name":"SBTRemoved","inputs":[{"name":"sbt","type":"address","indexed":true,"internalType":"address"}],"anonymous":false},{"type":"event","name":"ServiceFeeUpdated","inputs":[{"name":"oldRate","type":"uint256","indexed":false,"internalType":"uint256"},{"name":"newRate","type":"uint256","indexed":false,"internalType":"uint256"}],"anonymous":false},{"type":"event","name":"TreasuryUpdated","inputs":[{"name":"oldTreasury","type":"address","indexed":true,"internalType":"address"},{"name":"newTreasury","type":"address","indexed":true,"internalType":"address"}],"anonymous":false},{"type":"event","name":"Unpaused","inputs":[{"name":"account","type":"address","indexed":true,"internalType":"address"}],"anonymous":false},{"type":"error","name":"OwnableInvalidOwner","inputs":[{"name":"owner","type":"address","internalType":"address"}]},{"type":"error","name":"OwnableUnauthorizedAccount","inputs":[{"name":"account","type":"address","internalType":"address"}]},{"type":"error","name":"PaymasterV4_1__RegistryNotSet","inputs":[]},{"type":"error","name":"PaymasterV4__AlreadyExists","inputs":[]},{"type":"error","name":"PaymasterV4__EmptyArray","inputs":[]},{"type":"error","name":"PaymasterV4__InsufficientPNT","inputs":[]},{"type":"error","name":"PaymasterV4__InvalidPaymasterData","inputs":[]},{"type":"error","name":"PaymasterV4__InvalidServiceFee","inputs":[]},{"type":"error","name":"PaymasterV4__InvalidTokenBalance","inputs":[]},{"type":"error","name":"PaymasterV4__MaxLimitReached","inputs":[]},{"type":"error","name":"PaymasterV4__NoValidSBT","inputs":[]},{"type":"error","name":"PaymasterV4__NotFound","inputs":[]},{"type":"error","name":"PaymasterV4__OnlyEntryPoint","inputs":[]},{"type":"error","name":"PaymasterV4__Paused","inputs":[]},{"type":"error","name":"PaymasterV4__ZeroAddress","inputs":[]},{"type":"error","name":"ReentrancyGuardReentrantCall","inputs":[]}],"bytecode":{"object":"0x60a0346103c957601f6133cc38819003918201601f19168301916001600160401b0383118484101761029c57808492610140946040528339810103126103c957610048816103cd565b90610055602082016103cd565b91610062604083016103cd565b6060830151608084015160a08501519160c08601519360e0870151956100986101206100916101008b016103cd565b99016103cd565b986001600160a01b031680156103b6575f80546001600160a01b03198116831782556001600160a01b0316907f8be0079c531659141344cd1fd0a4f28419497f9722a3daafe3b4186f6b6457e09080a3600180556001600160a01b03169081156102ce576001600160a01b03169081156102ce578215610398578315610398576103e885116103a757861561039857608052600280546001600160a01b0319169190911790556003556004556005556006556007556008805460ff191690556001600160a01b0316801580156102dd575b50506001600160a01b0316801580156101cd575b604051612fea90816103e28239608051818181610aa401528181610bf601528181610cdc01528181610d8f015281816111b3015281816118cf01528181611cd70152818161203b01526124ed0152f35b6102ce57805f52600c60205260ff60405f2054166102bf57600a600b5410156102b057600b546801000000000000000081101561029c576001810180600b55811015610288577f0175b7a638427703f0dbe7bb9bbf987a2551717b34e79f33b5b1008d1fa01db90180546001600160a01b031916821790555f818152600c60205260408120805460ff191660011790557fc3eb2433af2977c4fd3784f9dcce78c51f96e3fda169d2d557ccded454bee9ac9080a25f8061017d565b634e487b7160e01b5f52603260045260245ffd5b634e487b7160e01b5f52604160045260245ffd5b63725001bf60e11b5f5260045ffd5b630dd00cb960e31b5f5260045ffd5b637501fa2d60e01b5f5260045ffd5b6102ce57805f52600a60205260ff60405f2054166102bf57600560095410156102b0576009546801000000000000000081101561029c576001810180600955811015610288577f6e1540171b6c0c960b71a7020d9f60077f6af931a8bbf590da0223dacf75c7af0180546001600160a01b031916821790555f818152600a60205260408120805460ff191660011790557f3f5a217a8a37fd257506eccfe25230895a4c08871c9a3f09c5407f3f1d59690f9080a25f80610169565b63056f612d60e51b5f5260045ffd5b636f541ffd60e11b5f5260045ffd5b631e4fbdf760e01b5f525f60045260245ffd5b5f80fd5b51906001600160a01b03821682036103c95756fe6080604052600436101561001a575b3615610018575f80fd5b005b5f5f3560e01c80630396cb60146124925780630879c412146124565780630f76f8301461235357806314d90e1b14612318578063180bd8321461216e5780631e6f3a97146120c5578063205c287814611fe357806326db61a214611f685780633400ba5214611f2e57806336f897e714611e2d5780633f4ba83a14611da657806346de32cd14611d435780634a58db1914611c8d578063517304a414611c2557806352b7512c1461184057806354fd4d50146117c157806359fc187d146117595780635b78f35f1461171d5780635c975abb146116dc57806361d027b31461168a57806361d1bc941461164e578063682ca415146116125780636b605b84146113c45780636f374b0f14611381578063715018a6146112e55780637b103999146112935780637b8c6a5c146112385780637c627b21146111255780638456cb591461109b5780638da5cb5b1461104a5780639b1d309114610fa5578063a032f4b814610f51578063a38fe06714610f15578063a91ee0dc14610e68578063aa51e01514610e2e578063b0ac157114610db3578063b0d691fe14610d44578063bb9fe6bf14610c8d578063c23a5cea14610b9e578063c399ec8814610a2c578063c9929dad146109b8578063da3dc2cb146108a2578063dfe3f3e414610844578063e6d9ea8a146107a1578063e8a905b7146106ec578063f0f4426014610600578063f1264ed014610592578063f2fde38b146104a4578063fd090621146102d05763ffa1ad741461024b575061000e565b346102cd57807ffffffffffffffffffffffffffffffffffffffffffffffffffffffffffffffffc3601126102cd57506102c960405161028b60408261269c565b601981527f5061796d617374657256342d4469726563742d76312e302e300000000000000060208201526040519182916020835260208301906125e7565b0390f35b80fd5b50346102cd5760207ffffffffffffffffffffffffffffffffffffffffffffffffffffffffffffffffc3601126102cd57610308612575565b61031061291e565b73ffffffffffffffffffffffffffffffffffffffff811690811561047c57818352600a60205260ff604084205416610454576005600954101561042c57600954680100000000000000008110156103ff57906103778260016103a394016009556009612687565b90919073ffffffffffffffffffffffffffffffffffffffff8084549260031b9316831b921b1916179055565b808252600a6020526040822060017fffffffffffffffffffffffffffffffffffffffffffffffffffffffffffffff008254161790557f3f5a217a8a37fd257506eccfe25230895a4c08871c9a3f09c5407f3f1d59690f8280a280f35b6024847f4e487b710000000000000000000000000000000000000000000000000000000081526041600452fd5b6004837fe4a0037e000000000000000000000000000000000000000000000000000000008152fd5b6004837f6e8065c8000000000000000000000000000000000000000000000000000000008152fd5b6004837f7501fa2d000000000000000000000000000000000000000000000000000000008152fd5b50346102cd5760207ffffffffffffffffffffffffffffffffffffffffffffffffffffffffffffffffc3601126102cd5773ffffffffffffffffffffffffffffffffffffffff6104f1612575565b6104f961291e565b1680156105665773ffffffffffffffffffffffffffffffffffffffff8254827fffffffffffffffffffffffff00000000000000000000000000000000000000008216178455167f8be0079c531659141344cd1fd0a4f28419497f9722a3daafe3b4186f6b6457e08380a380f35b6024827f1e4fbdf700000000000000000000000000000000000000000000000000000000815280600452fd5b50346102cd5760207ffffffffffffffffffffffffffffffffffffffffffffffffffffffffffffffffc3601126102cd57600435906009548210156102cd57602073ffffffffffffffffffffffffffffffffffffffff6105f08461262a565b90549060031b1c16604051908152f35b50346102cd5760207ffffffffffffffffffffffffffffffffffffffffffffffffffffffffffffffffc3601126102cd5773ffffffffffffffffffffffffffffffffffffffff61064d612575565b61065561291e565b1680156106c45773ffffffffffffffffffffffffffffffffffffffff600254827fffffffffffffffffffffffff0000000000000000000000000000000000000000821617600255167f4ab5be82436d353e61ca18726e984e561f5c1cc7c6d38b29d2553c790434705a8380a380f35b6004827f7501fa2d000000000000000000000000000000000000000000000000000000008152fd5b50346102cd57807ffffffffffffffffffffffffffffffffffffffffffffffffffffffffffffffffc3601126102cd5760405180916020600954928381520191600982527f6e1540171b6c0c960b71a7020d9f60077f6af931a8bbf590da0223dacf75c7af915b818110610775576102c9856107698187038261269c565b60405191829182612598565b825473ffffffffffffffffffffffffffffffffffffffff16845260209093019260019283019201610752565b50346102cd5760207ffffffffffffffffffffffffffffffffffffffffffffffffffffffffffffffffc3601126102cd576004356107dc61291e565b801561081c5760407fa57361723107342255fb30c4a7f825f312facf98989bf87e4885ebe7516225dd91600354908060035582519182526020820152a180f35b6004827fadec25a0000000000000000000000000000000000000000000000000000000008152fd5b50346102cd5760207ffffffffffffffffffffffffffffffffffffffffffffffffffffffffffffffffc3601126102cd5760043590600b548210156102cd57602073ffffffffffffffffffffffffffffffffffffffff6105f08461266f565b50346102cd5760607ffffffffffffffffffffffffffffffffffffffffffffffffffffffffffffffffc3601126102cd576108da612575565b6024359073ffffffffffffffffffffffffffffffffffffffff82168092036109b45773ffffffffffffffffffffffffffffffffffffffff9061091a61291e565b16801561047c578291604460209260405194859384927fa9059cbb0000000000000000000000000000000000000000000000000000000084526004840152833560248401525af180156109a95761096f575080f35b6020813d6020116109a1575b816109886020938361269c565b8101031261099d5761099990612865565b5080f35b5080fd5b3d915061097b565b6040513d84823e3d90fd5b8280fd5b50346102cd5760207ffffffffffffffffffffffffffffffffffffffffffffffffffffffffffffffffc3601126102cd577f49081791577ea5202d6975e5d6ad3a55a49709b1adf70fbd4fbf4b3ffda6e0316040600435610a1661291e565b600654908060065582519182526020820152a180f35b50346102cd57807ffffffffffffffffffffffffffffffffffffffffffffffffffffffffffffffffc3601126102cd576040517f5287ce1200000000000000000000000000000000000000000000000000000000815230600482015260a08160248173ffffffffffffffffffffffffffffffffffffffff7f0000000000000000000000000000000000000000000000000000000000000000165afa9081156109a9578291610ae0575b60208251604051908152f35b905060a0813d60a011610b96575b81610afb60a0938361269c565b8101031261099d576040519060a0820182811067ffffffffffffffff8211176103ff5760405280518252610b3160208201612865565b602083015260408101516dffffffffffffffffffffffffffff81168103610b9257604083015260608101519063ffffffff82168203610b92576080916060840152015165ffffffffffff811681036109b4576020925060808201525f610ad4565b8380fd5b3d9150610aee565b50346102cd5760207ffffffffffffffffffffffffffffffffffffffffffffffffffffffffffffffffc3601126102cd5780610bd7612575565b610bdf61291e565b73ffffffffffffffffffffffffffffffffffffffff7f00000000000000000000000000000000000000000000000000000000000000001690813b15610c895773ffffffffffffffffffffffffffffffffffffffff602484928360405195869485937fc23a5cea0000000000000000000000000000000000000000000000000000000085521660048401525af180156109a957610c785750f35b81610c829161269c565b6102cd5780f35b5050fd5b50346102cd57807ffffffffffffffffffffffffffffffffffffffffffffffffffffffffffffffffc3601126102cd57610cc461291e565b8073ffffffffffffffffffffffffffffffffffffffff7f000000000000000000000000000000000000000000000000000000000000000016803b15610d41578180916004604051809481937fbb9fe6bf0000000000000000000000000000000000000000000000000000000083525af180156109a957610c785750f35b50fd5b50346102cd57807ffffffffffffffffffffffffffffffffffffffffffffffffffffffffffffffffc3601126102cd57602060405173ffffffffffffffffffffffffffffffffffffffff7f0000000000000000000000000000000000000000000000000000000000000000168152f35b50346102cd5760207ffffffffffffffffffffffffffffffffffffffffffffffffffffffffffffffffc3601126102cd57600435610dee61291e565b801561081c5760407f7f9c5da1bed4f9434e0b66081f505cd59f3e73d24aa12dea305582ad3322149991600754908060075582519182526020820152a180f35b50346102cd57807ffffffffffffffffffffffffffffffffffffffffffffffffffffffffffffffffc3601126102cd57602060405160058152f35b50346102cd5760207ffffffffffffffffffffffffffffffffffffffffffffffffffffffffffffffffc3601126102cd5773ffffffffffffffffffffffffffffffffffffffff610eb5612575565b610ebd61291e565b1680156106c457807fffffffffffffffffffffffff0000000000000000000000000000000000000000600d541617600d557fd6ceddf6d2a22f21c7c81675c518004eff43bc5c8a6fc32a0b748e69d58671cd8280a280f35b50346102cd57807ffffffffffffffffffffffffffffffffffffffffffffffffffffffffffffffffc3601126102cd576020600454604051908152f35b50346102cd57807ffffffffffffffffffffffffffffffffffffffffffffffffffffffffffffffffc3601126102cd57602073ffffffffffffffffffffffffffffffffffffffff600d54161515604051908152f35b50346102cd5760207ffffffffffffffffffffffffffffffffffffffffffffffffffffffffffffffffc3601126102cd57600435610fe061291e565b6103e881116110225760407e3b413cf14a67407425bd0b5c065b2de08876554d8489ad7dd4aa95604d280c91600554908060055582519182526020820152a180f35b6004827fdea83ffa000000000000000000000000000000000000000000000000000000008152fd5b50346102cd57807ffffffffffffffffffffffffffffffffffffffffffffffffffffffffffffffffc3601126102cd5773ffffffffffffffffffffffffffffffffffffffff6020915416604051908152f35b50346102cd57807ffffffffffffffffffffffffffffffffffffffffffffffffffffffffffffffffc3601126102cd576110d261291e565b60017fffffffffffffffffffffffffffffffffffffffffffffffffffffffffffffff006008541617600855337f62e78cea01bee320cd4e420270b5ea74000d11b0c9f74754ebdbfc544b05a2588280a280f35b50346102cd5760807ffffffffffffffffffffffffffffffffffffffffffffffffffffffffffffffffc3601126102cd57600360043510156102cd5760243567ffffffffffffffff811161099d573660238201121561099d57806004013567ffffffffffffffff81116109b457369101602401116102cd5773ffffffffffffffffffffffffffffffffffffffff7f00000000000000000000000000000000000000000000000000000000000000001633036112105760405160443581528160208201527fdbcdce246c9de488793d9fbced081189358cd1a3c61ea7271de36df777c15c0a60403292a280f35b807f6e458eaa0000000000000000000000000000000000000000000000000000000060049252fd5b50346102cd5760207ffffffffffffffffffffffffffffffffffffffffffffffffffffffffffffffffc3601126102cd5750600654602090611284906004358181111561128c5750612a84565b604051908152f35b9050612a84565b50346102cd57807ffffffffffffffffffffffffffffffffffffffffffffffffffffffffffffffffc3601126102cd57602073ffffffffffffffffffffffffffffffffffffffff600d5416604051908152f35b50346102cd57807ffffffffffffffffffffffffffffffffffffffffffffffffffffffffffffffffc3601126102cd5761131c61291e565b8073ffffffffffffffffffffffffffffffffffffffff81547fffffffffffffffffffffffff000000000000000000000000000000000000000081168355167f8be0079c531659141344cd1fd0a4f28419497f9722a3daafe3b4186f6b6457e08280a380f35b50346102cd57807ffffffffffffffffffffffffffffffffffffffffffffffffffffffffffffffffc3601126102cd5760206113ba612872565b6040519015158152f35b50346102cd5760207ffffffffffffffffffffffffffffffffffffffffffffffffffffffffffffffffc3601126102cd5773ffffffffffffffffffffffffffffffffffffffff611411612575565b61141961291e565b16808252600c60205260ff604083205416156115ea57600b5490825b828110611498575b8382808252600c602052604082207fffffffffffffffffffffffffffffffffffffffffffffffffffffffffffffff0081541690557f9ab86610b358c5041191d816eaf692d22c70d541d23086a03c5040bf75cae73a8280a280f35b8173ffffffffffffffffffffffffffffffffffffffff6114b78361266f565b90549060031b1c16146114cc57600101611435565b90917fffffffffffffffffffffffffffffffffffffffffffffffffffffffffffffffff81019081116115bd579061037773ffffffffffffffffffffffffffffffffffffffff61151d61152b9461266f565b90549060031b1c169161266f565b600b548015611590577fffffffffffffffffffffffffffffffffffffffffffffffffffffffffffffffff0161158661156482600b612687565b73ffffffffffffffffffffffffffffffffffffffff82549160031b1b19169055565b600b55805f61143d565b6024837f4e487b710000000000000000000000000000000000000000000000000000000081526031600452fd5b6024847f4e487b710000000000000000000000000000000000000000000000000000000081526011600452fd5b6004827f150165b9000000000000000000000000000000000000000000000000000000008152fd5b50346102cd57807ffffffffffffffffffffffffffffffffffffffffffffffffffffffffffffffffc3601126102cd576020600354604051908152f35b50346102cd57807ffffffffffffffffffffffffffffffffffffffffffffffffffffffffffffffffc3601126102cd576020600554604051908152f35b50346102cd57807ffffffffffffffffffffffffffffffffffffffffffffffffffffffffffffffffc3601126102cd57602073ffffffffffffffffffffffffffffffffffffffff60025416604051908152f35b50346102cd57807ffffffffffffffffffffffffffffffffffffffffffffffffffffffffffffffffc3601126102cd57602060ff600854166040519015158152f35b50346102cd57807ffffffffffffffffffffffffffffffffffffffffffffffffffffffffffffffffc3601126102cd576020600754604051908152f35b50346102cd5760207ffffffffffffffffffffffffffffffffffffffffffffffffffffffffffffffffc3601126102cd5760ff604060209273ffffffffffffffffffffffffffffffffffffffff6117ad612575565b168152600c84522054166040519015158152f35b50346102cd57807ffffffffffffffffffffffffffffffffffffffffffffffffffffffffffffffffc3601126102cd57506102c960405161180260408261269c565b601d81527f5061796d617374657256342e312d52656769737472792d76312e312e3000000060208201526040519182916020835260208301906125e7565b50346102cd5760607ffffffffffffffffffffffffffffffffffffffffffffffffffffffffffffffffc3601126102cd576004359067ffffffffffffffff82116102cd57816004016101207ffffffffffffffffffffffffffffffffffffffffffffffffffffffffffffffffc843603011261099d576044359273ffffffffffffffffffffffffffffffffffffffff7f0000000000000000000000000000000000000000000000000000000000000000163303611bfd5760ff60085416611bd557600260015414611bad57600260015560e40192603461191e8584612814565b905010611b855773ffffffffffffffffffffffffffffffffffffffff82351690813b611b50575b60065480821115611b4857925b61195b84612a84565b958591604861196a8383612814565b90501015611b0f575b505061199573ffffffffffffffffffffffffffffffffffffffff918785612ca1565b16928315611ae75773ffffffffffffffffffffffffffffffffffffffff60025416604051907f23b872dd000000000000000000000000000000000000000000000000000000008252846004830152602482015286604482015260208160648189895af18015611adc57611a72575b50611a68957ffc4c641fa72bd2cbf0e7fdd8b517c19ddbccc7b2ede61572b6293a9d26f414329260609260405192835260208301526040820152a360405190611a4d60208361269c565b5f8252600180556040519283926040845260408401906125e7565b9060208301520390f35b6020813d602011611ad4575b81611a8b6020938361269c565b81010312611ad057957ffc4c641fa72bd2cbf0e7fdd8b517c19ddbccc7b2ede61572b6293a9d26f4143292606092611ac5611a6899612865565b509250925095611a03565b8580fd5b3d9150611a7e565b6040513d88823e3d90fd5b6004857f8a7638fa000000000000000000000000000000000000000000000000000000008152fd5b611b199250612814565b604811611b44576034013560601c61199573ffffffffffffffffffffffffffffffffffffffff611973565b8480fd5b508092611952565b611b598261296a565b611945576004847fbbab703a000000000000000000000000000000000000000000000000000000008152fd5b6004837f17f78eb7000000000000000000000000000000000000000000000000000000008152fd5b6004837f3ee5aeb5000000000000000000000000000000000000000000000000000000008152fd5b6004837fb82a6180000000000000000000000000000000000000000000000000000000008152fd5b6004837f6e458eaa000000000000000000000000000000000000000000000000000000008152fd5b50346102cd5760207ffffffffffffffffffffffffffffffffffffffffffffffffffffffffffffffffc3601126102cd5760ff604060209273ffffffffffffffffffffffffffffffffffffffff611c79612575565b168152600a84522054166040519015158152f35b50807ffffffffffffffffffffffffffffffffffffffffffffffffffffffffffffffffc3601126102cd57611cbf61291e565b8073ffffffffffffffffffffffffffffffffffffffff7f000000000000000000000000000000000000000000000000000000000000000016803b15610d415781602491604051928380927fb760faf900000000000000000000000000000000000000000000000000000000825230600483015234905af180156109a957610c785750f35b50346102cd5760407ffffffffffffffffffffffffffffffffffffffffffffffffffffffffffffffffc3601126102cd57611d87611d7e612575565b6024359061270a565b906102c9604051928392151583526040602084015260408301906125e7565b50346102cd57807ffffffffffffffffffffffffffffffffffffffffffffffffffffffffffffffffc3601126102cd57611ddd61291e565b7fffffffffffffffffffffffffffffffffffffffffffffffffffffffffffffff0060085416600855337f5db9ee0a495bf2e6ff9c91a7834c1ba4fdd244a5e8aa4e537bd38aeae4b073aa8280a280f35b50346102cd57807ffffffffffffffffffffffffffffffffffffffffffffffffffffffffffffffffc3601126102cd57611e6461291e565b73ffffffffffffffffffffffffffffffffffffffff600d54168015611f06578082913b15610d41578180916004604051809481937f51b42b000000000000000000000000000000000000000000000000000000000083525af180156109a957611ef1575b50307fca323d32ea3ada728fbc5a470183af7d4cc49a426cb2bdf68847d6e298576f208280a280f35b81611efb9161269c565b6102cd57805f611ec8565b6004827f19561c06000000000000000000000000000000000000000000000000000000008152fd5b50346102cd57807ffffffffffffffffffffffffffffffffffffffffffffffffffffffffffffffffc3601126102cd576020604051600a8152f35b50346102cd5760207ffffffffffffffffffffffffffffffffffffffffffffffffffffffffffffffffc3601126102cd57600435611fa361291e565b801561081c5760407fea0b5b55c51eb4418a187746d48f7367558c8e9501985dfac3d046a19cbde4a691600454908060045582519182526020820152a180f35b50346102cd5760407ffffffffffffffffffffffffffffffffffffffffffffffffffffffffffffffffc3601126102cd578061201c612575565b61202461291e565b73ffffffffffffffffffffffffffffffffffffffff7f00000000000000000000000000000000000000000000000000000000000000001690813b15610c895773ffffffffffffffffffffffffffffffffffffffff604484928360405195869485937f205c287800000000000000000000000000000000000000000000000000000000855216600484015260243560248401525af180156109a957610c785750f35b50346102cd57807ffffffffffffffffffffffffffffffffffffffffffffffffffffffffffffffffc3601126102cd5760405180916020600b54928381520191600b82527f0175b7a638427703f0dbe7bb9bbf987a2551717b34e79f33b5b1008d1fa01db9915b818110612142576102c9856107698187038261269c565b825473ffffffffffffffffffffffffffffffffffffffff1684526020909301926001928301920161212b565b50346102cd5760207ffffffffffffffffffffffffffffffffffffffffffffffffffffffffffffffffc3601126102cd5773ffffffffffffffffffffffffffffffffffffffff6121bb612575565b6121c361291e565b16808252600a60205260ff604083205416156115ea5760095490825b828110612242575b8382808252600a602052604082207fffffffffffffffffffffffffffffffffffffffffffffffffffffffffffffff0081541690557f1b2dde4dd450b08ce8eb719da7c716607a7f0164a42396ff08dd4b57c9bd0fcd8280a280f35b8173ffffffffffffffffffffffffffffffffffffffff6122618361262a565b90549060031b1c1614612276576001016121df565b90917fffffffffffffffffffffffffffffffffffffffffffffffffffffffffffffffff81019081116115bd579061037773ffffffffffffffffffffffffffffffffffffffff6122c76122d59461262a565b90549060031b1c169161262a565b6009548015611590577fffffffffffffffffffffffffffffffffffffffffffffffffffffffffffffffff0161230e611564826009612687565b600955805f6121e7565b50346102cd57807ffffffffffffffffffffffffffffffffffffffffffffffffffffffffffffffffc3601126102cd5760206040516103e88152f35b50346102cd5760207ffffffffffffffffffffffffffffffffffffffffffffffffffffffffffffffffc3601126102cd5761238b612575565b61239361291e565b73ffffffffffffffffffffffffffffffffffffffff811690811561047c57818352600c60205260ff60408420541661045457600a600b54101561042c57600b54680100000000000000008110156103ff57906103778260016123fa9401600b55600b612687565b808252600c6020526040822060017fffffffffffffffffffffffffffffffffffffffffffffffffffffffffffffff008254161790557fc3eb2433af2977c4fd3784f9dcce78c51f96e3fda169d2d557ccded454bee9ac8280a280f35b50346102cd57807ffffffffffffffffffffffffffffffffffffffffffffffffffffffffffffffffc3601126102cd576020600654604051908152f35b5060207ffffffffffffffffffffffffffffffffffffffffffffffffffffffffffffffffc3601126125715760043563ffffffff8116809103612571576124d661291e565b73ffffffffffffffffffffffffffffffffffffffff7f00000000000000000000000000000000000000000000000000000000000000001690813b15612571575f906024604051809481937f0396cb60000000000000000000000000000000000000000000000000000000008352600483015234905af180156125665761255a575080f35b61001891505f9061269c565b6040513d5f823e3d90fd5b5f80fd5b6004359073ffffffffffffffffffffffffffffffffffffffff8216820361257157565b60206040818301928281528451809452019201905f5b8181106125bb5750505090565b825173ffffffffffffffffffffffffffffffffffffffff168452602093840193909201916001016125ae565b907fffffffffffffffffffffffffffffffffffffffffffffffffffffffffffffffe0601f602080948051918291828752018686015e5f8582860101520116010190565b6009548110156126425760095f5260205f2001905f90565b7f4e487b71000000000000000000000000000000000000000000000000000000005f52603260045260245ffd5b600b5481101561264257600b5f5260205f2001905f90565b8054821015612642575f5260205f2001905f90565b90601f7fffffffffffffffffffffffffffffffffffffffffffffffffffffffffffffffe0910116810190811067ffffffffffffffff8211176126dd57604052565b7f4e487b71000000000000000000000000000000000000000000000000000000005f52604160045260245ffd5b90813b6127c8575b73ffffffffffffffffffffffffffffffffffffffff9161274261274892600654908181115f1461128c5750612a84565b90612b16565b16156127655760019060405161275f60208261269c565b5f815290565b5f9060405161277560608261269c565b602581527f496e73756666696369656e7420504e542062616c616e6365206f7220616c6c6f60208201527f77616e6365000000000000000000000000000000000000000000000000000000604082015290565b6127d18261296a565b6127125750505f906040516127e760408261269c565b601e81527f5573657220646f6573206e6f74206f776e207265717569726564205342540000602082015290565b9035907fffffffffffffffffffffffffffffffffffffffffffffffffffffffffffffffe181360301821215612571570180359067ffffffffffffffff82116125715760200191813603831361257157565b5190811515820361257157565b73ffffffffffffffffffffffffffffffffffffffff600d54168015612919576020602491604051928380927f928708220000000000000000000000000000000000000000000000000000000082523060048301525afa5f91816128dd575b506128da57505f90565b90565b9091506020813d602011612911575b816128f96020938361269c565b810103126125715761290a90612865565b905f6128d0565b3d91506128ec565b505f90565b73ffffffffffffffffffffffffffffffffffffffff5f5416330361293e57565b7f118cdaa7000000000000000000000000000000000000000000000000000000005f523360045260245ffd5b600954905f5b82811061297e575050505f90565b6024602073ffffffffffffffffffffffffffffffffffffffff6129a08461262a565b90549060031b1c16604051928380927f70a0823100000000000000000000000000000000000000000000000000000000825273ffffffffffffffffffffffffffffffffffffffff881660048301525afa908115612566575f91612a13575b50612a0b57600101612970565b505050600190565b90506020813d8211612a3c575b81612a2d6020938361269c565b8101031261257157515f6129fe565b3d9150612a20565b81810292918115918404141715612a5757565b7f4e487b71000000000000000000000000000000000000000000000000000000005f52601160045260245ffd5b612a9a670de0b6b3a76400009160035490612a44565b0460055461271001908161271011612a575761271091612ab991612a44565b04670de0b6b3a7640000810290808204670de0b6b3a76400001490151715612a5757600454908115612ae9570490565b7f4e487b71000000000000000000000000000000000000000000000000000000005f52601260045260245ffd5b90600b54915f5b838110612b2c57505050505f90565b73ffffffffffffffffffffffffffffffffffffffff612b4a8261266f565b90549060031b1c166040517f70a0823100000000000000000000000000000000000000000000000000000000815273ffffffffffffffffffffffffffffffffffffffff84166004820152602081602481855afa908115612566575f91612c70575b506040517fdd62ed3e00000000000000000000000000000000000000000000000000000000815273ffffffffffffffffffffffffffffffffffffffff85166004820152306024820152602081604481865afa9182156125665786915f93612c3a575b508111159182612c2f575b5050612c275750600101612b1d565b935050505090565b10159050845f612c18565b915091506020813d8211612c68575b81612c566020938361269c565b81010312612571575190859081612c0d565b3d9150612c49565b90506020813d8211612c99575b81612c8a6020938361269c565b8101031261257157515f612bab565b3d9150612c7d565b9173ffffffffffffffffffffffffffffffffffffffff811680151580612f9e575b612e4b575b5050600b54915f5b838110612cde57505050505f90565b73ffffffffffffffffffffffffffffffffffffffff612cfc8261266f565b90549060031b1c166040517f70a0823100000000000000000000000000000000000000000000000000000000815273ffffffffffffffffffffffffffffffffffffffff84166004820152602081602481855afa908115612566575f91612e1a575b506040517fdd62ed3e00000000000000000000000000000000000000000000000000000000815273ffffffffffffffffffffffffffffffffffffffff85166004820152306024820152602081604481865afa9182156125665786915f93612de4575b508111159182612dd9575b5050612c275750600101612ccf565b10159050845f612dca565b915091506020813d8211612e12575b81612e006020938361269c565b81010312612571575190859081612dbf565b3d9150612df3565b90506020813d8211612e43575b81612e346020938361269c565b8101031261257157515f612d5d565b3d9150612e27565b604051907f70a0823100000000000000000000000000000000000000000000000000000000825273ffffffffffffffffffffffffffffffffffffffff85166004830152602082602481845afa918215612566575f92612f6a575b506040517fdd62ed3e00000000000000000000000000000000000000000000000000000000815273ffffffffffffffffffffffffffffffffffffffff8616600482015230602482015290602090829060449082905afa9182156125665784915f93612f33575b508111159182612f28575b5050612f225780612cc7565b91505090565b10159050825f612f16565b915091506020813d602011612f62575b81612f506020938361269c565b81010312612571575190839081612f0b565b3d9150612f43565b9091506020813d602011612f96575b81612f866020938361269c565b810103126125715751905f612ea5565b3d9150612f79565b50805f52600c60205260ff60405f205416612cc256fea2646970667358221220d60e2f4173b408f109cf58021f32c695998fe7ed8e77ea7e19cb3ebf07f8e8be64736f6c634300081c0033","linkReferences":{}},"methodIdentifiers":{"MAX_GAS_TOKENS()":"3400ba52","MAX_SBTS()":"aa51e015","MAX_SERVICE_FEE()":"14d90e1b","VERSION()":"ffa1ad74","addDeposit()":"4a58db19","addGasToken(address)":"0f76f830","addSBT(address)":"fd090621","addStake(uint32)":"0396cb60","checkUserQualification(address,uint256)":"46de32cd","deactivateFromRegistry()":"36f897e7","entryPoint()":"b0d691fe","estimatePNTCost(uint256)":"7b8c6a5c","gasToUSDRate()":"682ca415","getDeposit()":"c399ec88","getSupportedGasTokens()":"1e6f3a97","getSupportedSBTs()":"e8a905b7","isActiveInRegistry()":"6f374b0f","isGasTokenSupported(address)":"59fc187d","isRegistrySet()":"a032f4b8","isSBTSupported(address)":"517304a4","maxGasCostCap()":"0879c412","minTokenBalance()":"5b78f35f","owner()":"8da5cb5b","pause()":"8456cb59","paused()":"5c975abb","pntPriceUSD()":"a38fe067","postOp(uint8,bytes,uint256,uint256)":"7c627b21","registry()":"7b103999","removeGasToken(address)":"6b605b84","removeSBT(address)":"180bd832","renounceOwnership()":"715018a6","serviceFeeRate()":"61d1bc94","setGasToUSDRate(uint256)":"e6d9ea8a","setMaxGasCostCap(uint256)":"c9929dad","setMinTokenBalance(uint256)":"b0ac1571","setPntPriceUSD(uint256)":"26db61a2","setRegistry(address)":"a91ee0dc","setServiceFeeRate(uint256)":"9b1d3091","setTreasury(address)":"f0f44260","supportedGasTokens(uint256)":"dfe3f3e4","supportedSBTs(uint256)":"f1264ed0","transferOwnership(address)":"f2fde38b","treasury()":"61d027b3","unlockStake()":"bb9fe6bf","unpause()":"3f4ba83a","validatePaymasterUserOp((address,uint256,bytes,bytes,bytes32,uint256,bytes32,bytes,bytes),bytes32,uint256)":"52b7512c","version()":"54fd4d50","withdrawPNT(address,address,uint256)":"da3dc2cb","withdrawStake(address)":"c23a5cea","withdrawTo(address,uint256)":"205c2878"},"id":116}