{"abi":[{"type":"constructor","inputs":[{"name":"_entryPoint","type":"address","internalType":"address"},{"name":"_owner","type":"address","internalType":"address"},{"name":"_treasury","type":"address","internalType":"address"},{"name":"_ethUsdPriceFeed","type":"address","internalType":"address"},{"name":"_serviceFeeRate","type":"uint256","internalType":"uint256"},{"name":"_maxGasCostCap","type":"uint256","internalType":"uint256"},{"name":"_initialSBT","type":"address","internalType":"address"},{"name":"_initialGasToken","type":"address","internalType":"address"},{"name":"_registry","type":"address","internalType":"address"}],"stateMutability":"nonpayable"},{"type":"receive","stateMutability":"payable"},{"type":"function","name":"MAX_GAS_TOKENS","inputs":[],"outputs":[{"name":"","type":"uint256","internalType":"uint256"}],"stateMutability":"view"},{"type":"function","name":"MAX_SBTS","inputs":[],"outputs":[{"name":"","type":"uint256","internalType":"uint256"}],"stateMutability":"view"},{"type":"function","name":"MAX_SERVICE_FEE","inputs":[],"outputs":[{"name":"","type":"uint256","internalType":"uint256"}],"stateMutability":"view"},{"type":"function","name":"VERSION","inputs":[],"outputs":[{"name":"","type":"string","internalType":"string"}],"stateMutability":"view"},{"type":"function","name":"addDeposit","inputs":[],"outputs":[],"stateMutability":"payable"},{"type":"function","name":"addGasToken","inputs":[{"name":"token","type":"address","internalType":"address"}],"outputs":[],"stateMutability":"nonpayable"},{"type":"function","name":"addSBT","inputs":[{"name":"sbt","type":"address","internalType":"address"}],"outputs":[],"stateMutability":"nonpayable"},{"type":"function","name":"addStake","inputs":[{"name":"unstakeDelaySec","type":"uint32","internalType":"uint32"}],"outputs":[],"stateMutability":"payable"},{"type":"function","name":"checkUserQualification","inputs":[{"name":"user","type":"address","internalType":"address"},{"name":"estimatedGasCost","type":"uint256","internalType":"uint256"}],"outputs":[{"name":"qualified","type":"bool","internalType":"bool"},{"name":"reason","type":"string","internalType":"string"}],"stateMutability":"view"},{"type":"function","name":"deactivateFromRegistry","inputs":[],"outputs":[],"stateMutability":"nonpayable"},{"type":"function","name":"entryPoint","inputs":[],"outputs":[{"name":"","type":"address","internalType":"contract IEntryPoint"}],"stateMutability":"view"},{"type":"function","name":"estimatePNTCost","inputs":[{"name":"gasCostWei","type":"uint256","internalType":"uint256"},{"name":"gasToken","type":"address","internalType":"address"}],"outputs":[{"name":"","type":"uint256","internalType":"uint256"}],"stateMutability":"view"},{"type":"function","name":"ethUsdPriceFeed","inputs":[],"outputs":[{"name":"","type":"address","internalType":"contract AggregatorV3Interface"}],"stateMutability":"view"},{"type":"function","name":"getDeposit","inputs":[],"outputs":[{"name":"","type":"uint256","internalType":"uint256"}],"stateMutability":"view"},{"type":"function","name":"getSupportedGasTokens","inputs":[],"outputs":[{"name":"","type":"address[]","internalType":"address[]"}],"stateMutability":"view"},{"type":"function","name":"getSupportedSBTs","inputs":[],"outputs":[{"name":"","type":"address[]","internalType":"address[]"}],"stateMutability":"view"},{"type":"function","name":"isActiveInRegistry","inputs":[],"outputs":[{"name":"","type":"bool","internalType":"bool"}],"stateMutability":"view"},{"type":"function","name":"isGasTokenSupported","inputs":[{"name":"","type":"address","internalType":"address"}],"outputs":[{"name":"","type":"bool","internalType":"bool"}],"stateMutability":"view"},{"type":"function","name":"isRegistrySet","inputs":[],"outputs":[{"name":"","type":"bool","internalType":"bool"}],"stateMutability":"view"},{"type":"function","name":"isSBTSupported","inputs":[{"name":"","type":"address","internalType":"address"}],"outputs":[{"name":"","type":"bool","internalType":"bool"}],"stateMutability":"view"},{"type":"function","name":"maxGasCostCap","inputs":[],"outputs":[{"name":"","type":"uint256","internalType":"uint256"}],"stateMutability":"view"},{"type":"function","name":"owner","inputs":[],"outputs":[{"name":"","type":"address","internalType":"address"}],"stateMutability":"view"},{"type":"function","name":"pause","inputs":[],"outputs":[],"stateMutability":"nonpayable"},{"type":"function","name":"paused","inputs":[],"outputs":[{"name":"","type":"bool","internalType":"bool"}],"stateMutability":"view"},{"type":"function","name":"postOp","inputs":[{"name":"","type":"uint8","internalType":"enum PostOpMode"},{"name":"","type":"bytes","internalType":"bytes"},{"name":"actualGasCost","type":"uint256","internalType":"uint256"},{"name":"","type":"uint256","internalType":"uint256"}],"outputs":[],"stateMutability":"nonpayable"},{"type":"function","name":"registry","inputs":[],"outputs":[{"name":"","type":"address","internalType":"contract ISuperPaymasterRegistry"}],"stateMutability":"view"},{"type":"function","name":"removeGasToken","inputs":[{"name":"token","type":"address","internalType":"address"}],"outputs":[],"stateMutability":"nonpayable"},{"type":"function","name":"removeSBT","inputs":[{"name":"sbt","type":"address","internalType":"address"}],"outputs":[],"stateMutability":"nonpayable"},{"type":"function","name":"renounceOwnership","inputs":[],"outputs":[],"stateMutability":"nonpayable"},{"type":"function","name":"serviceFeeRate","inputs":[],"outputs":[{"name":"","type":"uint256","internalType":"uint256"}],"stateMutability":"view"},{"type":"function","name":"setMaxGasCostCap","inputs":[{"name":"_maxGasCostCap","type":"uint256","internalType":"uint256"}],"outputs":[],"stateMutability":"nonpayable"},{"type":"function","name":"setServiceFeeRate","inputs":[{"name":"_serviceFeeRate","type":"uint256","internalType":"uint256"}],"outputs":[],"stateMutability":"nonpayable"},{"type":"function","name":"setTreasury","inputs":[{"name":"_treasury","type":"address","internalType":"address"}],"outputs":[],"stateMutability":"nonpayable"},{"type":"function","name":"supportedGasTokens","inputs":[{"name":"","type":"uint256","internalType":"uint256"}],"outputs":[{"name":"","type":"address","internalType":"address"}],"stateMutability":"view"},{"type":"function","name":"supportedSBTs","inputs":[{"name":"","type":"uint256","internalType":"uint256"}],"outputs":[{"name":"","type":"address","internalType":"address"}],"stateMutability":"view"},{"type":"function","name":"transferOwnership","inputs":[{"name":"newOwner","type":"address","internalType":"address"}],"outputs":[],"stateMutability":"nonpayable"},{"type":"function","name":"treasury","inputs":[],"outputs":[{"name":"","type":"address","internalType":"address"}],"stateMutability":"view"},{"type":"function","name":"unlockStake","inputs":[],"outputs":[],"stateMutability":"nonpayable"},{"type":"function","name":"unpause","inputs":[],"outputs":[],"stateMutability":"nonpayable"},{"type":"function","name":"validatePaymasterUserOp","inputs":[{"name":"userOp","type":"tuple","internalType":"struct PackedUserOperation","components":[{"name":"sender","type":"address","internalType":"address"},{"name":"nonce","type":"uint256","internalType":"uint256"},{"name":"initCode","type":"bytes","internalType":"bytes"},{"name":"callData","type":"bytes","internalType":"bytes"},{"name":"accountGasLimits","type":"bytes32","internalType":"bytes32"},{"name":"preVerificationGas","type":"uint256","internalType":"uint256"},{"name":"gasFees","type":"bytes32","internalType":"bytes32"},{"name":"paymasterAndData","type":"bytes","internalType":"bytes"},{"name":"signature","type":"bytes","internalType":"bytes"}]},{"name":"","type":"bytes32","internalType":"bytes32"},{"name":"maxCost","type":"uint256","internalType":"uint256"}],"outputs":[{"name":"context","type":"bytes","internalType":"bytes"},{"name":"validationData","type":"uint256","internalType":"uint256"}],"stateMutability":"nonpayable"},{"type":"function","name":"version","inputs":[],"outputs":[{"name":"","type":"string","internalType":"string"}],"stateMutability":"pure"},{"type":"function","name":"withdrawPNT","inputs":[{"name":"to","type":"address","internalType":"address"},{"name":"token","type":"address","internalType":"address"},{"name":"amount","type":"uint256","internalType":"uint256"}],"outputs":[],"stateMutability":"nonpayable"},{"type":"function","name":"withdrawStake","inputs":[{"name":"withdrawAddress","type":"address","internalType":"address payable"}],"outputs":[],"stateMutability":"nonpayable"},{"type":"function","name":"withdrawTo","inputs":[{"name":"withdrawAddress","type":"address","internalType":"address payable"},{"name":"amount","type":"uint256","internalType":"uint256"}],"outputs":[],"stateMutability":"nonpayable"},{"type":"event","name":"DeactivatedFromRegistry","inputs":[{"name":"paymaster","type":"address","indexed":true,"internalType":"address"}],"anonymous":false},{"type":"event","name":"GasPaymentProcessed","inputs":[{"name":"user","type":"address","indexed":true,"internalType":"address"},{"name":"gasToken","type":"address","indexed":true,"internalType":"address"},{"name":"pntAmount","type":"uint256","indexed":false,"internalType":"uint256"},{"name":"gasCostWei","type":"uint256","indexed":false,"internalType":"uint256"},{"name":"actualGasCost","type":"uint256","indexed":false,"internalType":"uint256"}],"anonymous":false},{"type":"event","name":"GasTokenAdded","inputs":[{"name":"token","type":"address","indexed":true,"internalType":"address"}],"anonymous":false},{"type":"event","name":"GasTokenRemoved","inputs":[{"name":"token","type":"address","indexed":true,"internalType":"address"}],"anonymous":false},{"type":"event","name":"MaxGasCostCapUpdated","inputs":[{"name":"oldCap","type":"uint256","indexed":false,"internalType":"uint256"},{"name":"newCap","type":"uint256","indexed":false,"internalType":"uint256"}],"anonymous":false},{"type":"event","name":"OwnershipTransferred","inputs":[{"name":"previousOwner","type":"address","indexed":true,"internalType":"address"},{"name":"newOwner","type":"address","indexed":true,"internalType":"address"}],"anonymous":false},{"type":"event","name":"Paused","inputs":[{"name":"account","type":"address","indexed":true,"internalType":"address"}],"anonymous":false},{"type":"event","name":"PostOpProcessed","inputs":[{"name":"user","type":"address","indexed":true,"internalType":"address"},{"name":"actualGasCost","type":"uint256","indexed":false,"internalType":"uint256"},{"name":"pntCharged","type":"uint256","indexed":false,"internalType":"uint256"}],"anonymous":false},{"type":"event","name":"SBTAdded","inputs":[{"name":"sbt","type":"address","indexed":true,"internalType":"address"}],"anonymous":false},{"type":"event","name":"SBTRemoved","inputs":[{"name":"sbt","type":"address","indexed":true,"internalType":"address"}],"anonymous":false},{"type":"event","name":"ServiceFeeUpdated","inputs":[{"name":"oldRate","type":"uint256","indexed":false,"internalType":"uint256"},{"name":"newRate","type":"uint256","indexed":false,"internalType":"uint256"}],"anonymous":false},{"type":"event","name":"TreasuryUpdated","inputs":[{"name":"oldTreasury","type":"address","indexed":true,"internalType":"address"},{"name":"newTreasury","type":"address","indexed":true,"internalType":"address"}],"anonymous":false},{"type":"event","name":"Unpaused","inputs":[{"name":"account","type":"address","indexed":true,"internalType":"address"}],"anonymous":false},{"type":"error","name":"OwnableInvalidOwner","inputs":[{"name":"owner","type":"address","internalType":"address"}]},{"type":"error","name":"OwnableUnauthorizedAccount","inputs":[{"name":"account","type":"address","internalType":"address"}]},{"type":"error","name":"PaymasterV4_1__RegistryNotSet","inputs":[]},{"type":"error","name":"PaymasterV4__AlreadyExists","inputs":[]},{"type":"error","name":"PaymasterV4__EmptyArray","inputs":[]},{"type":"error","name":"PaymasterV4__InsufficientPNT","inputs":[]},{"type":"error","name":"PaymasterV4__InvalidPaymasterData","inputs":[]},{"type":"error","name":"PaymasterV4__InvalidServiceFee","inputs":[]},{"type":"error","name":"PaymasterV4__InvalidTokenBalance","inputs":[]},{"type":"error","name":"PaymasterV4__MaxLimitReached","inputs":[]},{"type":"error","name":"PaymasterV4__NoValidSBT","inputs":[]},{"type":"error","name":"PaymasterV4__NotFound","inputs":[]},{"type":"error","name":"PaymasterV4__OnlyEntryPoint","inputs":[]},{"type":"error","name":"PaymasterV4__Paused","inputs":[]},{"type":"error","name":"PaymasterV4__ZeroAddress","inputs":[]},{"type":"error","name":"ReentrancyGuardReentrantCall","inputs":[]}],"bytecode":{"object":"0x60e0346103f857601f61347338819003918201601f19168301916001600160401b038311848410176102da57808492610120946040528339810103126103f857610048816103fc565b610054602083016103fc565b610060604084016103fc565b61006c606085016103fc565b60808501519060a08601519261008460c088016103fc565b9561009e61010061009760e08b016103fc565b99016103fc565b956001600160a01b031680156103e5575f80546001600160a01b03198116831782556001600160a01b0316907f8be0079c531659141344cd1fd0a4f28419497f9722a3daafe3b4186f6b6457e09080a3600180556001600160a01b031690811561030c576001600160a01b031691821561030c576001600160a01b031690811561030c576103e884116103d65760805260a052600280546001600160a01b0319169190911790556003556004556005805460ff191690556001600160a01b0316801561030c5760c0526001600160a01b03168015801561031b575b50506001600160a01b03168015801561020b575b604051613062908161041182396080518181816109b701528181610b0d01528181610bf301528181610ca601528181610f83015281816115e9015281816119e901528181611df001526122a2015260a051818181611b030152612817015260c051818181610d4f0152818161105301528181611bfc01526126620152f35b61030c57805f52600960205260ff60405f2054166102fd57600a60085410156102ee57600854680100000000000000008110156102da5760018101806008558110156102c6577ff3f7a9fe364faab93b216da50a3214154f22a0a2b415b23a84c8169e8b636ee30180546001600160a01b031916821790555f818152600960205260408120805460ff191660011790557fc3eb2433af2977c4fd3784f9dcce78c51f96e3fda169d2d557ccded454bee9ac9080a25f8061018d565b634e487b7160e01b5f52603260045260245ffd5b634e487b7160e01b5f52604160045260245ffd5b63725001bf60e11b5f5260045ffd5b630dd00cb960e31b5f5260045ffd5b637501fa2d60e01b5f5260045ffd5b61030c57805f52600760205260ff60405f2054166102fd57600560065410156102ee57600654680100000000000000008110156102da5760018101806006558110156102c6577ff652222313e28459528d920b65115c16c04f3efc82aaedc97be59f3f377c0d3f0180546001600160a01b031916821790555f818152600760205260408120805460ff191660011790557f3f5a217a8a37fd257506eccfe25230895a4c08871c9a3f09c5407f3f1d59690f9080a25f80610179565b636f541ffd60e11b5f5260045ffd5b631e4fbdf760e01b5f525f60045260245ffd5b5f80fd5b51906001600160a01b03821682036103f85756fe6080604052600436101561001a575b3615610018575f80fd5b005b5f5f3560e01c80630396cb60146122475780630879c4121461220b5780630f76f8301461210857806314d90e1b146120cd578063180bd83214611f235780631e6f3a9714611e7a578063205c287814611d985780632da6a1f914611d075780633400ba5214611ccd57806336f897e714611bae5780633f4ba83a14611b2757806342f6fb2914611ab857806346de32cd14611a555780634a58db191461199f578063517304a41461193757806352b7512c1461155a57806354fd4d50146114db57806359fc187d146114735780635c975abb1461143257806361d027b3146113e057806361d1bc94146113a45780636b605b84146111565780636f374b0f14611113578063715018a6146110775780637b103999146110085780637c627b2114610ef55780638456cb5914610e6b5780638da5cb5b14610e1a5780639b1d309114610d75578063a032f4b814610d04578063aa51e01514610cca578063b0d691fe14610c5b578063bb9fe6bf14610ba4578063c23a5cea14610ab5578063c399ec881461093f578063c9929dad146108cb578063da3dc2cb146107bd578063dfe3f3e41461075f578063e8a905b7146106aa578063f0f44260146105be578063f1264ed014610550578063f2fde38b14610462578063fd0906211461028e5763ffa1ad7414610209575061000e565b3461028b57807ffffffffffffffffffffffffffffffffffffffffffffffffffffffffffffffffc36011261028b5750610287604051610249604082612474565b601981527f5061796d617374657256342d4469726563742d76312e302e300000000000000060208201526040519182916020835260208301906123bf565b0390f35b80fd5b503461028b5760207ffffffffffffffffffffffffffffffffffffffffffffffffffffffffffffffffc36011261028b576102c661232a565b6102ce612715565b73ffffffffffffffffffffffffffffffffffffffff811690811561043a57818352600760205260ff60408420541661041257600560065410156103ea57600654680100000000000000008110156103bd57906103358260016103619401600655600661245f565b90919073ffffffffffffffffffffffffffffffffffffffff8084549260031b9316831b921b1916179055565b80825260076020526040822060017fffffffffffffffffffffffffffffffffffffffffffffffffffffffffffffff008254161790557f3f5a217a8a37fd257506eccfe25230895a4c08871c9a3f09c5407f3f1d59690f8280a280f35b6024847f4e487b710000000000000000000000000000000000000000000000000000000081526041600452fd5b6004837fe4a0037e000000000000000000000000000000000000000000000000000000008152fd5b6004837f6e8065c8000000000000000000000000000000000000000000000000000000008152fd5b6004837f7501fa2d000000000000000000000000000000000000000000000000000000008152fd5b503461028b5760207ffffffffffffffffffffffffffffffffffffffffffffffffffffffffffffffffc36011261028b5773ffffffffffffffffffffffffffffffffffffffff6104af61232a565b6104b7612715565b1680156105245773ffffffffffffffffffffffffffffffffffffffff8254827fffffffffffffffffffffffff00000000000000000000000000000000000000008216178455167f8be0079c531659141344cd1fd0a4f28419497f9722a3daafe3b4186f6b6457e08380a380f35b6024827f1e4fbdf700000000000000000000000000000000000000000000000000000000815280600452fd5b503461028b5760207ffffffffffffffffffffffffffffffffffffffffffffffffffffffffffffffffc36011261028b576004359060065482101561028b57602073ffffffffffffffffffffffffffffffffffffffff6105ae84612402565b90549060031b1c16604051908152f35b503461028b5760207ffffffffffffffffffffffffffffffffffffffffffffffffffffffffffffffffc36011261028b5773ffffffffffffffffffffffffffffffffffffffff61060b61232a565b610613612715565b1680156106825773ffffffffffffffffffffffffffffffffffffffff600254827fffffffffffffffffffffffff0000000000000000000000000000000000000000821617600255167f4ab5be82436d353e61ca18726e984e561f5c1cc7c6d38b29d2553c790434705a8380a380f35b6004827f7501fa2d000000000000000000000000000000000000000000000000000000008152fd5b503461028b57807ffffffffffffffffffffffffffffffffffffffffffffffffffffffffffffffffc36011261028b5760405180916020600654928381520191600682527ff652222313e28459528d920b65115c16c04f3efc82aaedc97be59f3f377c0d3f915b818110610733576102878561072781870382612474565b60405191829182612370565b825473ffffffffffffffffffffffffffffffffffffffff16845260209093019260019283019201610710565b503461028b5760207ffffffffffffffffffffffffffffffffffffffffffffffffffffffffffffffffc36011261028b576004359060085482101561028b57602073ffffffffffffffffffffffffffffffffffffffff6105ae84612447565b503461028b5760607ffffffffffffffffffffffffffffffffffffffffffffffffffffffffffffffffc36011261028b576107f561232a565b73ffffffffffffffffffffffffffffffffffffffff61081261234d565b9161081b612715565b16801561043a5773ffffffffffffffffffffffffffffffffffffffff9160446020928560405195869485937fa9059cbb000000000000000000000000000000000000000000000000000000008552600485015284356024850152165af180156108c057610886575080f35b6020813d6020116108b8575b8161089f60209383612474565b810103126108b4576108b09061263e565b5080f35b5080fd5b3d9150610892565b6040513d84823e3d90fd5b503461028b5760207ffffffffffffffffffffffffffffffffffffffffffffffffffffffffffffffffc36011261028b577f49081791577ea5202d6975e5d6ad3a55a49709b1adf70fbd4fbf4b3ffda6e0316040600435610929612715565b600454908060045582519182526020820152a180f35b503461028b57807ffffffffffffffffffffffffffffffffffffffffffffffffffffffffffffffffc36011261028b576040517f5287ce1200000000000000000000000000000000000000000000000000000000815230600482015260a08160248173ffffffffffffffffffffffffffffffffffffffff7f0000000000000000000000000000000000000000000000000000000000000000165afa9081156108c05782916109f3575b60208251604051908152f35b905060a0813d60a011610aad575b81610a0e60a09383612474565b810103126108b4576040519060a0820182811067ffffffffffffffff8211176103bd5760405280518252610a446020820161263e565b602083015260408101516dffffffffffffffffffffffffffff81168103610aa957604083015260608101519063ffffffff82168203610aa9576080916060840152015165ffffffffffff81168103610aa5576020925060808201525f6109e7565b8280fd5b8380fd5b3d9150610a01565b503461028b5760207ffffffffffffffffffffffffffffffffffffffffffffffffffffffffffffffffc36011261028b5780610aee61232a565b610af6612715565b73ffffffffffffffffffffffffffffffffffffffff7f00000000000000000000000000000000000000000000000000000000000000001690813b15610ba05773ffffffffffffffffffffffffffffffffffffffff602484928360405195869485937fc23a5cea0000000000000000000000000000000000000000000000000000000085521660048401525af180156108c057610b8f5750f35b81610b9991612474565b61028b5780f35b5050fd5b503461028b57807ffffffffffffffffffffffffffffffffffffffffffffffffffffffffffffffffc36011261028b57610bdb612715565b8073ffffffffffffffffffffffffffffffffffffffff7f000000000000000000000000000000000000000000000000000000000000000016803b15610c58578180916004604051809481937fbb9fe6bf0000000000000000000000000000000000000000000000000000000083525af180156108c057610b8f5750f35b50fd5b503461028b57807ffffffffffffffffffffffffffffffffffffffffffffffffffffffffffffffffc36011261028b57602060405173ffffffffffffffffffffffffffffffffffffffff7f0000000000000000000000000000000000000000000000000000000000000000168152f35b503461028b57807ffffffffffffffffffffffffffffffffffffffffffffffffffffffffffffffffc36011261028b57602060405160058152f35b503461028b57807ffffffffffffffffffffffffffffffffffffffffffffffffffffffffffffffffc36011261028b57602060405173ffffffffffffffffffffffffffffffffffffffff7f00000000000000000000000000000000000000000000000000000000000000001615158152f35b503461028b5760207ffffffffffffffffffffffffffffffffffffffffffffffffffffffffffffffffc36011261028b57600435610db0612715565b6103e88111610df25760407e3b413cf14a67407425bd0b5c065b2de08876554d8489ad7dd4aa95604d280c91600354908060035582519182526020820152a180f35b6004827fdea83ffa000000000000000000000000000000000000000000000000000000008152fd5b503461028b57807ffffffffffffffffffffffffffffffffffffffffffffffffffffffffffffffffc36011261028b5773ffffffffffffffffffffffffffffffffffffffff6020915416604051908152f35b503461028b57807ffffffffffffffffffffffffffffffffffffffffffffffffffffffffffffffffc36011261028b57610ea2612715565b60017fffffffffffffffffffffffffffffffffffffffffffffffffffffffffffffff006005541617600555337f62e78cea01bee320cd4e420270b5ea74000d11b0c9f74754ebdbfc544b05a2588280a280f35b503461028b5760807ffffffffffffffffffffffffffffffffffffffffffffffffffffffffffffffffc36011261028b576003600435101561028b5760243567ffffffffffffffff81116108b457366023820112156108b457806004013567ffffffffffffffff8111610aa5573691016024011161028b5773ffffffffffffffffffffffffffffffffffffffff7f0000000000000000000000000000000000000000000000000000000000000000163303610fe05760405160443581528160208201527fdbcdce246c9de488793d9fbced081189358cd1a3c61ea7271de36df777c15c0a60403292a280f35b807f6e458eaa0000000000000000000000000000000000000000000000000000000060049252fd5b503461028b57807ffffffffffffffffffffffffffffffffffffffffffffffffffffffffffffffffc36011261028b57602060405173ffffffffffffffffffffffffffffffffffffffff7f0000000000000000000000000000000000000000000000000000000000000000168152f35b503461028b57807ffffffffffffffffffffffffffffffffffffffffffffffffffffffffffffffffc36011261028b576110ae612715565b8073ffffffffffffffffffffffffffffffffffffffff81547fffffffffffffffffffffffff000000000000000000000000000000000000000081168355167f8be0079c531659141344cd1fd0a4f28419497f9722a3daafe3b4186f6b6457e08280a380f35b503461028b57807ffffffffffffffffffffffffffffffffffffffffffffffffffffffffffffffffc36011261028b57602061114c61264b565b6040519015158152f35b503461028b5760207ffffffffffffffffffffffffffffffffffffffffffffffffffffffffffffffffc36011261028b5773ffffffffffffffffffffffffffffffffffffffff6111a361232a565b6111ab612715565b16808252600960205260ff6040832054161561137c5760085490825b82811061122a575b83828082526009602052604082207fffffffffffffffffffffffffffffffffffffffffffffffffffffffffffffff0081541690557f9ab86610b358c5041191d816eaf692d22c70d541d23086a03c5040bf75cae73a8280a280f35b8173ffffffffffffffffffffffffffffffffffffffff61124983612447565b90549060031b1c161461125e576001016111c7565b90917fffffffffffffffffffffffffffffffffffffffffffffffffffffffffffffffff810190811161134f579061033573ffffffffffffffffffffffffffffffffffffffff6112af6112bd94612447565b90549060031b1c1691612447565b6008548015611322577fffffffffffffffffffffffffffffffffffffffffffffffffffffffffffffffff016113186112f682600861245f565b73ffffffffffffffffffffffffffffffffffffffff82549160031b1b19169055565b600855805f6111cf565b6024837f4e487b710000000000000000000000000000000000000000000000000000000081526031600452fd5b6024847f4e487b710000000000000000000000000000000000000000000000000000000081526011600452fd5b6004827f150165b9000000000000000000000000000000000000000000000000000000008152fd5b503461028b57807ffffffffffffffffffffffffffffffffffffffffffffffffffffffffffffffffc36011261028b576020600354604051908152f35b503461028b57807ffffffffffffffffffffffffffffffffffffffffffffffffffffffffffffffffc36011261028b57602073ffffffffffffffffffffffffffffffffffffffff60025416604051908152f35b503461028b57807ffffffffffffffffffffffffffffffffffffffffffffffffffffffffffffffffc36011261028b57602060ff600554166040519015158152f35b503461028b5760207ffffffffffffffffffffffffffffffffffffffffffffffffffffffffffffffffc36011261028b5760ff604060209273ffffffffffffffffffffffffffffffffffffffff6114c761232a565b168152600984522054166040519015158152f35b503461028b57807ffffffffffffffffffffffffffffffffffffffffffffffffffffffffffffffffc36011261028b575061028760405161151c604082612474565b601d81527f5061796d617374657256342e312d52656769737472792d76312e312e3000000060208201526040519182916020835260208301906123bf565b503461028b5760607ffffffffffffffffffffffffffffffffffffffffffffffffffffffffffffffffc36011261028b576004359067ffffffffffffffff821161028b57816004016101207ffffffffffffffffffffffffffffffffffffffffffffffffffffffffffffffffc84360301126108b4576044359273ffffffffffffffffffffffffffffffffffffffff7f000000000000000000000000000000000000000000000000000000000000000016330361190f5760ff600554166118e7576002600154146118bf57600260015560e40190603461163883836125ed565b9050106118975773ffffffffffffffffffffffffffffffffffffffff81351690813b611862575b6004548086111561185a57925b8491604861167a83836125ed565b90501015611821575b5050936116a673ffffffffffffffffffffffffffffffffffffffff958484612d02565b95169283156117f95773ffffffffffffffffffffffffffffffffffffffff60025416604051907f23b872dd000000000000000000000000000000000000000000000000000000008252846004830152602482015286604482015260208160648189895af180156117ee57611784575b5061177a957ffc4c641fa72bd2cbf0e7fdd8b517c19ddbccc7b2ede61572b6293a9d26f414329260609260405192835260208301526040820152a36040519061175f602083612474565b5f8252600180556040519283926040845260408401906123bf565b9060208301520390f35b6020813d6020116117e6575b8161179d60209383612474565b810103126117e257957ffc4c641fa72bd2cbf0e7fdd8b517c19ddbccc7b2ede61572b6293a9d26f41432926060926117d761177a9961263e565b509250925095611715565b8580fd5b3d9150611790565b6040513d88823e3d90fd5b6004857f8a7638fa000000000000000000000000000000000000000000000000000000008152fd5b61182b92506125ed565b604895919511610aa957936034013560601c6116a673ffffffffffffffffffffffffffffffffffffffff611683565b50849261166c565b61186b82612a8d565b61165f576004847fbbab703a000000000000000000000000000000000000000000000000000000008152fd5b6004837f17f78eb7000000000000000000000000000000000000000000000000000000008152fd5b6004837f3ee5aeb5000000000000000000000000000000000000000000000000000000008152fd5b6004837fb82a6180000000000000000000000000000000000000000000000000000000008152fd5b6004837f6e458eaa000000000000000000000000000000000000000000000000000000008152fd5b503461028b5760207ffffffffffffffffffffffffffffffffffffffffffffffffffffffffffffffffc36011261028b5760ff604060209273ffffffffffffffffffffffffffffffffffffffff61198b61232a565b168152600784522054166040519015158152f35b50807ffffffffffffffffffffffffffffffffffffffffffffffffffffffffffffffffc36011261028b576119d1612715565b8073ffffffffffffffffffffffffffffffffffffffff7f000000000000000000000000000000000000000000000000000000000000000016803b15610c585781602491604051928380927fb760faf900000000000000000000000000000000000000000000000000000000825230600483015234905af180156108c057610b8f5750f35b503461028b5760407ffffffffffffffffffffffffffffffffffffffffffffffffffffffffffffffffc36011261028b57611a99611a9061232a565b602435906124e2565b90610287604051928392151583526040602084015260408301906123bf565b503461028b57807ffffffffffffffffffffffffffffffffffffffffffffffffffffffffffffffffc36011261028b57602060405173ffffffffffffffffffffffffffffffffffffffff7f0000000000000000000000000000000000000000000000000000000000000000168152f35b503461028b57807ffffffffffffffffffffffffffffffffffffffffffffffffffffffffffffffffc36011261028b57611b5e612715565b7fffffffffffffffffffffffffffffffffffffffffffffffffffffffffffffff0060055416600555337f5db9ee0a495bf2e6ff9c91a7834c1ba4fdd244a5e8aa4e537bd38aeae4b073aa8280a280f35b503461028b57807ffffffffffffffffffffffffffffffffffffffffffffffffffffffffffffffffc36011261028b57611be5612715565b73ffffffffffffffffffffffffffffffffffffffff7f0000000000000000000000000000000000000000000000000000000000000000168015611ca5578082913b15610c58578180916004604051809481937f51b42b000000000000000000000000000000000000000000000000000000000083525af180156108c057611c90575b50307fca323d32ea3ada728fbc5a470183af7d4cc49a426cb2bdf68847d6e298576f208280a280f35b81611c9a91612474565b61028b57805f611c67565b6004827f19561c06000000000000000000000000000000000000000000000000000000008152fd5b503461028b57807ffffffffffffffffffffffffffffffffffffffffffffffffffffffffffffffffc36011261028b576020604051600a8152f35b503461028b5760407ffffffffffffffffffffffffffffffffffffffffffffffffffffffffffffffffc36011261028b5760043590611d4361234d565b9173ffffffffffffffffffffffffffffffffffffffff83168252600960205260ff6040832054161561137c57600454602093611d8993509181811115611d9157506127ef565b604051908152f35b90506127ef565b503461028b5760407ffffffffffffffffffffffffffffffffffffffffffffffffffffffffffffffffc36011261028b5780611dd161232a565b611dd9612715565b73ffffffffffffffffffffffffffffffffffffffff7f00000000000000000000000000000000000000000000000000000000000000001690813b15610ba05773ffffffffffffffffffffffffffffffffffffffff604484928360405195869485937f205c287800000000000000000000000000000000000000000000000000000000855216600484015260243560248401525af180156108c057610b8f5750f35b503461028b57807ffffffffffffffffffffffffffffffffffffffffffffffffffffffffffffffffc36011261028b5760405180916020600854928381520191600882527ff3f7a9fe364faab93b216da50a3214154f22a0a2b415b23a84c8169e8b636ee3915b818110611ef7576102878561072781870382612474565b825473ffffffffffffffffffffffffffffffffffffffff16845260209093019260019283019201611ee0565b503461028b5760207ffffffffffffffffffffffffffffffffffffffffffffffffffffffffffffffffc36011261028b5773ffffffffffffffffffffffffffffffffffffffff611f7061232a565b611f78612715565b16808252600760205260ff6040832054161561137c5760065490825b828110611ff7575b83828082526007602052604082207fffffffffffffffffffffffffffffffffffffffffffffffffffffffffffffff0081541690557f1b2dde4dd450b08ce8eb719da7c716607a7f0164a42396ff08dd4b57c9bd0fcd8280a280f35b8173ffffffffffffffffffffffffffffffffffffffff61201683612402565b90549060031b1c161461202b57600101611f94565b90917fffffffffffffffffffffffffffffffffffffffffffffffffffffffffffffffff810190811161134f579061033573ffffffffffffffffffffffffffffffffffffffff61207c61208a94612402565b90549060031b1c1691612402565b6006548015611322577fffffffffffffffffffffffffffffffffffffffffffffffffffffffffffffffff016120c36112f682600661245f565b600655805f611f9c565b503461028b57807ffffffffffffffffffffffffffffffffffffffffffffffffffffffffffffffffc36011261028b5760206040516103e88152f35b503461028b5760207ffffffffffffffffffffffffffffffffffffffffffffffffffffffffffffffffc36011261028b5761214061232a565b612148612715565b73ffffffffffffffffffffffffffffffffffffffff811690811561043a57818352600960205260ff60408420541661041257600a60085410156103ea57600854680100000000000000008110156103bd57906103358260016121af9401600855600861245f565b80825260096020526040822060017fffffffffffffffffffffffffffffffffffffffffffffffffffffffffffffff008254161790557fc3eb2433af2977c4fd3784f9dcce78c51f96e3fda169d2d557ccded454bee9ac8280a280f35b503461028b57807ffffffffffffffffffffffffffffffffffffffffffffffffffffffffffffffffc36011261028b576020600454604051908152f35b5060207ffffffffffffffffffffffffffffffffffffffffffffffffffffffffffffffffc3601126123265760043563ffffffff81168091036123265761228b612715565b73ffffffffffffffffffffffffffffffffffffffff7f00000000000000000000000000000000000000000000000000000000000000001690813b15612326575f906024604051809481937f0396cb60000000000000000000000000000000000000000000000000000000008352600483015234905af1801561231b5761230f575080f35b61001891505f90612474565b6040513d5f823e3d90fd5b5f80fd5b6004359073ffffffffffffffffffffffffffffffffffffffff8216820361232657565b6024359073ffffffffffffffffffffffffffffffffffffffff8216820361232657565b60206040818301928281528451809452019201905f5b8181106123935750505090565b825173ffffffffffffffffffffffffffffffffffffffff16845260209384019390920191600101612386565b907fffffffffffffffffffffffffffffffffffffffffffffffffffffffffffffffe0601f602080948051918291828752018686015e5f8582860101520116010190565b60065481101561241a5760065f5260205f2001905f90565b7f4e487b71000000000000000000000000000000000000000000000000000000005f52603260045260245ffd5b60085481101561241a5760085f5260205f2001905f90565b805482101561241a575f5260205f2001905f90565b90601f7fffffffffffffffffffffffffffffffffffffffffffffffffffffffffffffffe0910116810190811067ffffffffffffffff8211176124b557604052565b7f4e487b71000000000000000000000000000000000000000000000000000000005f52604160045260245ffd5b90813b6125a1575b73ffffffffffffffffffffffffffffffffffffffff9161251891600454908181115f14612599575090612b67565b50161561253657600190604051612530602082612474565b5f815290565b5f90604051612546606082612474565b602781527f496e73756666696369656e7420746f6b656e2062616c616e6365206f7220616c60208201527f6c6f77616e636500000000000000000000000000000000000000000000000000604082015290565b905090612b67565b6125aa82612a8d565b6124ea5750505f906040516125c0604082612474565b601e81527f5573657220646f6573206e6f74206f776e207265717569726564205342540000602082015290565b9035907fffffffffffffffffffffffffffffffffffffffffffffffffffffffffffffffe181360301821215612326570180359067ffffffffffffffff82116123265760200191813603831361232657565b5190811515820361232657565b73ffffffffffffffffffffffffffffffffffffffff7f0000000000000000000000000000000000000000000000000000000000000000168015612710576020602491604051928380927f928708220000000000000000000000000000000000000000000000000000000082523060048301525afa5f91816126d4575b506126d157505f90565b90565b9091506020813d602011612708575b816126f060209383612474565b81010312612326576127019061263e565b905f6126c7565b3d91506126e3565b505f90565b73ffffffffffffffffffffffffffffffffffffffff5f5416330361273557565b7f118cdaa7000000000000000000000000000000000000000000000000000000005f523360045260245ffd5b519069ffffffffffffffffffff8216820361232657565b8181029291811591840414171561278b57565b7f4e487b71000000000000000000000000000000000000000000000000000000005f52601160045260245ffd5b81156127c2570490565b7f4e487b71000000000000000000000000000000000000000000000000000000005f52601260045260245ffd5b6040517ffeaf968c0000000000000000000000000000000000000000000000000000000081527f000000000000000000000000000000000000000000000000000000000000000073ffffffffffffffffffffffffffffffffffffffff1660a082600481845afa801561231b575f925f91612a39575b50420342811161278b57610e1010612a11576020600491604051928380927f313ce5670000000000000000000000000000000000000000000000000000000082525afa90811561231b575f916129d5575b50670de0b6b3a7640000820291808304670de0b6b3a7640000149015171561278b5760ff1691604d831161278b576128fd61290392670de0b6b3a764000094600a0a906127b8565b90612778565b046003546127100190816127101161278b5761271061293973ffffffffffffffffffffffffffffffffffffffff93602093612778565b04926004604051809481937fb30ea59c000000000000000000000000000000000000000000000000000000008352165afa90811561231b575f916129a3575b50670de0b6b3a7640000820291808304670de0b6b3a7640000149015171561278b576126d1916127b8565b90506020813d6020116129cd575b816129be60209383612474565b8101031261232657515f612978565b3d91506129b1565b90506020813d602011612a09575b816129f060209383612474565b81010312612326575160ff81168103612326575f6128b5565b3d91506129e3565b7fadec25a0000000000000000000000000000000000000000000000000000000005f5260045ffd5b92505060a0823d60a011612a85575b81612a5560a09383612474565b8101031261232657612a6682612761565b506020820151612a7d608060608501519401612761565b50915f612864565b3d9150612a48565b600654905f5b828110612aa1575050505f90565b6024602073ffffffffffffffffffffffffffffffffffffffff612ac384612402565b90549060031b1c16604051928380927f70a0823100000000000000000000000000000000000000000000000000000000825273ffffffffffffffffffffffffffffffffffffffff881660048301525afa90811561231b575f91612b36575b50612b2e57600101612a93565b505050600190565b90506020813d8211612b5f575b81612b5060209383612474565b8101031261232657515f612b21565b3d9150612b43565b90600854905f5b828110612b7f57505050505f905f90565b73ffffffffffffffffffffffffffffffffffffffff612b9d82612447565b90549060031b1c16612baf81846127ef565b906040517f70a0823100000000000000000000000000000000000000000000000000000000815273ffffffffffffffffffffffffffffffffffffffff87166004820152602081602481855afa90811561231b575f91612cd1575b506040517fdd62ed3e00000000000000000000000000000000000000000000000000000000815273ffffffffffffffffffffffffffffffffffffffff88166004820152306024820152602081604481865afa91821561231b5784915f93612c9b575b508111159182612c90575b5050612c86575050600101612b6e565b9590945092505050565b10159050825f612c76565b915091506020813d8211612cc9575b81612cb760209383612474565b81010312612326575190839081612c6b565b3d9150612caa565b90506020813d8211612cfa575b81612ceb60209383612474565b8101031261232657515f612c09565b3d9150612cde565b9173ffffffffffffffffffffffffffffffffffffffff81169081151580613016575b612ebb575b5050600854905f5b828110612d4257505050505f905f90565b73ffffffffffffffffffffffffffffffffffffffff612d6082612447565b90549060031b1c16612d7281846127ef565b906040517f70a0823100000000000000000000000000000000000000000000000000000000815273ffffffffffffffffffffffffffffffffffffffff87166004820152602081602481855afa90811561231b575f91612e8a575b506040517fdd62ed3e00000000000000000000000000000000000000000000000000000000815273ffffffffffffffffffffffffffffffffffffffff88166004820152306024820152602081604481865afa91821561231b5784915f93612e54575b508111159182612e49575b5050612c86575050600101612d31565b10159050825f612e39565b915091506020813d8211612e82575b81612e7060209383612474565b81010312612326575190839081612e2e565b3d9150612e63565b90506020813d8211612eb3575b81612ea460209383612474565b8101031261232657515f612dcc565b3d9150612e97565b612ec581846127ef565b91604051907f70a0823100000000000000000000000000000000000000000000000000000000825273ffffffffffffffffffffffffffffffffffffffff86166004830152602082602481845afa91821561231b575f92612fe2575b506040517fdd62ed3e00000000000000000000000000000000000000000000000000000000815273ffffffffffffffffffffffffffffffffffffffff8716600482015230602482015290602090829060449082905afa91821561231b5784915f93612fab575b508111159182612fa0575b505015612d2957939092509050565b10159050825f612f91565b915091506020813d602011612fda575b81612fc860209383612474565b81010312612326575190839081612f86565b3d9150612fbb565b9091506020813d60201161300e575b81612ffe60209383612474565b810103126123265751905f612f20565b3d9150612ff1565b50815f52600960205260ff60405f205416612d2456fea2646970667358221220eea50c7873bd45292bff3811f633eea58f3a49c9791982ac3810c2941440b27c64736f6c634300081c0033","linkReferences":{}},"methodIdentifiers":{"MAX_GAS_TOKENS()":"3400ba52","MAX_SBTS()":"aa51e015","MAX_SERVICE_FEE()":"14d90e1b","VERSION()":"ffa1ad74","addDeposit()":"4a58db19","addGasToken(address)":"0f76f830","addSBT(address)":"fd090621","addStake(uint32)":"0396cb60","checkUserQualification(address,uint256)":"46de32cd","deactivateFromRegistry()":"36f897e7","entryPoint()":"b0d691fe","estimatePNTCost(uint256,address)":"2da6a1f9","ethUsdPriceFeed()":"42f6fb29","getDeposit()":"c399ec88","getSupportedGasTokens()":"1e6f3a97","getSupportedSBTs()":"e8a905b7","isActiveInRegistry()":"6f374b0f","isGasTokenSupported(address)":"59fc187d","isRegistrySet()":"a032f4b8","isSBTSupported(address)":"517304a4","maxGasCostCap()":"0879c412","owner()":"8da5cb5b","pause()":"8456cb59","paused()":"5c975abb","postOp(uint8,bytes,uint256,uint256)":"7c627b21","registry()":"7b103999","removeGasToken(address)":"6b605b84","removeSBT(address)":"180bd832","renounceOwnership()":"715018a6","serviceFeeRate()":"61d1bc94","setMaxGasCostCap(uint256)":"c9929dad","setServiceFeeRate(uint256)":"9b1d3091","setTreasury(address)":"f0f44260","supportedGasTokens(uint256)":"dfe3f3e4","supportedSBTs(uint256)":"f1264ed0","transferOwnership(address)":"f2fde38b","treasury()":"61d027b3","unlockStake()":"bb9fe6bf","unpause()":"3f4ba83a","validatePaymasterUserOp((address,uint256,bytes,bytes,bytes32,uint256,bytes32,bytes,bytes),bytes32,uint256)":"52b7512c","version()":"54fd4d50","withdrawPNT(address,address,uint256)":"da3dc2cb","withdrawStake(address)":"c23a5cea","withdrawTo(address,uint256)":"205c2878"},"id":125}